:100000000C94C9020C9401030C9401030C94010399
:100010000C9401030C9401030C9401030C94010350
:100020000C9401030C9401030C94932C0C94672DF5
:100030000C9418270C9401030C9401030C940103F5
:100040000C9401030C9401030C9401030C94010320
:100050000C9401030C949F270C9401030C9401034E
:100060000C9401030C9401030C9401030C94010300
:100070000C9401030C9401030C9401030C940103F0
:100080000C9401030C9401030C9401030C940103E0
:100090000C9401030C9401030C9401030C940103D0
:1000A0000C9401030C9401030C940103A900AA0011
:1000B000237824782578267851005200AC00A800D7
:1000C000AB00AD00AE00AF00B200B3000352217828
:1000D0002078227828782B7827782E782C78005270
:1000E0000100010001000100010001000100010008
:1000F0000052010001000100015201000252010002
:10010000010000521E0F0500047F3F1F643214647B
:100110003214783C1E1E140A052223252628292A7B
:100120002C2D2F3032333536383A3B3D3E4042435A
:100130004547494A4C4E5051535557595A5C5E6099
:1001400062646668696B6D6F71737577797B7D7FAB
:1001500081838587898A8C8E90929496989A9C9EAA
:100160009FA1A3A5A7A8AAACAEAFB1B3B4B6B8B9C6
:10017000BBBCBEBFC1C2C3C5C6C7C9CACBCCCDCE2E
:10018000D0D1D2D2D3D4D5D6D7D7D8D9D9DADADB11
:10019000DBDBDCDCDCDCDCDDDDDDDDDCDCDCDCDC9D
:1001A000DBDBDBDADAD9D9D8D7D7D6D5D4D3D2D2DC
:1001B000D1D0CECDCCCBCAC9C7C6C5C3C2C1BFBEC4
:1001C000BCBBB9B8B6B4B3B1AFAEACAAA8A7A5A32F
:1001D000A19F9E9C9A98969492908E8C8A898785EE
:1001E00083817F7D7B79777573716F6D6B696866CD
:1001F0006462605E5C5A5957555351504E4C4A499F
:1002000047454342403E3D3B3A3836353332302F46
:100210002D2C2A292826252322FFAA7F55400001BC
:1002200001010101010101010202020202020202B6
:100230000203030303030303030404040404040488
:10024000050505050506060606060707070707084C
:10025000080808090909090A0A0A0B0B0B0C0C0CFF
:100260000D0D0D0E0E0E0F0F0F1010111111121299
:1002700013131414151516161717181819191A1A16
:100280001B1B1C1D1D1E1E1F202021222223242477
:10029000252626272829292A2B2C2D2D2E2F3031B3
:1002A0003232333435363738393A3B3C3D3E3F40C5
:1002B0004142434445464748494A4C4D4E4F5051B0
:1002C0005354555658595A5B5D5E5F61626465666A
:1002D00068696B6C6D6F7072737577787A7B7D7EF1
:1002E0008082838587888A8C8E8F91939596989A41
:1002F0009C9EA0A2A3A5A7A9ABADAFB1B3B5B7BA59
:10030000BCBEC0C2C4C6C9CBCDCFD1D4D6D8DBDD2C
:10031000DFE2E4E7E9EBEEF0F3F5F8FAFDFF0000C9
:100320000000000000002A2B280000000000000050
:1003300000000000000000000029000000002C1E4A
:100340003420212224342627252E362D3738271E07
:100350001F202122232425263333362E37381F042D
:1003600005060708090A0B0C0D0E0F1011121314C5
:1003700015161718191A1B1C1D2F3130232D350483
:1003800005060708090A0B0C0D0E0F1011121314A5
:1003900015161718191A1B1C1D2F3130354C00006B
:1003A000000000000000000000000000000000004D
:1003B000000000000000000000000000000000003D
:1003C00000007E0F00D4FFFFFFC700000078140379
:1003D0004E006F006F0064006C006500500061000B
:1003E000640000001E0354006800650020004D00FA
:1003F0006100640020004E006F006F0064006C001C
:10040000650000000403090409025B00030100A069
:10041000FA09040000010301010009211101000192
:1004200022440007058103080001090401000203BA
:1004300000000009211101000122220007058203AA
:100440002000010705030320000109040200010345
:1004500000000009211101000122B60007058403F4
:1004600020000112010002000000086C6A01000077
:1004700001010200010660FF0961A1010962150086
:1004800026FF009520750881020963150026FF00EC
:10049000952075089102C005010902A10185020994
:1004A00001A1000509190129081500250195087504
:1004B0000181020501093009311581257F950275F9
:1004C00008810609381581257F9501750881060583
:1004D0000C0A38021581257F950175088106C0C078
:1004E00005010980A101850319012AB7001501261C
:1004F000B700950175108100C0050C0901A10185A7
:100500000419012AA002150126A002950175108187
:1005100000C005010906A1018506050719E029E7C4
:10052000150025019508750181020507190029EFBD
:100530001500250195F075018102050819012905AD
:10054000950575019102950175039101C005010999
:1005500006A101050719E029E71500250195087591
:100560000181029501750881010507190029FF1510
:100570000026FF0095067508810005081901290568
:1005800015002501950575019102950175039101ED
:10059000C00011241FBECFEFDAE0DEBFCDBF04B62E
:1005A00003FE18C08091280390912903A0912A038B
:1005B000B0912B038730904BA740B04B59F4109269
:1005C00028031092290310922A0310922B03E0E0D3
:1005D000F8E3099511E0A0E0B1E0E0EEF2E602C038
:1005E00005900D92A43FB107D9F723E0A4EFB1E045
:1005F00001C01D92A832B207E1F70E9493120C9439
:1006000005310C9400008430B8F46330A8F4433012
:1006100098F450E093E0699F400D511D1124FA01B8
:1006200099E0899FE00DF11D1124EE0FFF1FE454A6
:10063000FF4F85919491089581E090E00895843072
:1006400088F461110FC090E0880F991FE1E0E42762
:10065000E80FF92FF11DEE0FFF1FE455FF4F8591B5
:100660009491089581E090E0089581E008950E94BA
:100670003503089581E008950E94350308950E948E
:100680003C03089508950E9442030895A6E0B0E057
:10069000ECE4F3E00C94B12F49835A839E833091AC
:1006A000FB0189819A8131111AC03E81332399F06F
:1006B000222389F00E94D808182F682F89819A81F7
:1006C0000E94A50869817A81812F0E940E102696CA
:1006D000E3E00C94CD2F0E94BF08182FF3CF0E94A7
:1006E000D80869817A81F1CFFC01262F40815181A0
:1006F00062817381848195810E9446030895CF931E
:10070000DF93EC0161E00E947403BE010E94370395
:10071000DF91CF910895CF93DF93EC0160E00E94C9
:100720007403BE010E944303DF91CF91089581E0DD
:1007300008950E9497030895CF93C82F0E94A107A0
:100740008C2F0E9499032FEF84E39CE0215080407E
:100750009040E1F700C00000CF91089581E00E9431
:100760009C030E94C327089580E00E949C030E947E
:10077000E72708950F931F93CF93DF938C0161E0D8
:100780000E947403EC01F801858181110E944E1AC8
:10079000B801CE010E94A623811106C080E0DF913E
:1007A000CF911F910F910895B801CE010E943F0390
:1007B0008823A1F3B801CE010E94B122882371F3EE
:1007C000B801CE010E94181E882341F3B801CE0162
:1007D0000E94EE1D882311F3B801CE010E946D1A0C
:1007E0008823E1F2B801CE010E94F5228823B1F2FC
:1007F000F8018581882361F0C330FCE7DF07E9F069
:1008000058F4C115ECE7DE07A9F0C130DC47B9F0B8
:10081000C8010E943A03C3CFCB358CE7D807A9F0B3
:10082000CC35ECE7DE0771F0CA35DC4789F70E946A
:10083000410DEECF0E94AE03B1CF0E94490D0E9440
:10084000B403ACCF0E94370DE3CF0E94450DE0CF3B
:100850000E94F5260E9453040E94A41808950E9445
:1008600057040E94A5190E94FA260895089581E070
:1008700008950895CF93DF93D82F0E943704C82F8F
:10088000882319F08D2F0E9439048C2FDF91CF918E
:1008900008950895CF93C82F0E9436048C2F0E948C
:1008A0003A04CF91089580E00E944A0408950E947E
:1008B00035250E944A040895CF930E943525C82FFC
:1008C0008091F6018C1779F0C093F6010E9484277D
:1008D0006093F7017093F8018093F9019093FA0106
:1008E0008C2F0E944A04CF910895ADE0B0E0EBE771
:1008F000F4E00C94B22F488759876A877B878C87EE
:100900009D8791110E94470C1F8286E0FE01389658
:10091000DE01119601900D928A95E1F78D8181118A
:100920000DC029813A814B815C816D817E818F81EF
:100930000E94910B2D96E2E00C94CE2FCE010196F1
:100940000E947F038111EDCFF5CFFC01248121307E
:1009500021F4808191810E9405090895662329F080
:100960000E94791F0E945E2008950E94E51FFACF21
:10097000CF93C82F882399F08CEF8C0F813A88F49D
:100980008C2F0E94D525882329F08C2F0E94752654
:100990000E94DB0C8C2F0E945E260E94DB0CCF9104
:1009A000089580E28C0F883048F4C77081E001C060
:1009B000880FCA95EAF70E942A0CEFCFEBE5EC0FFF
:1009C000E33040F4F0E0E959FE4F808190E00E946E
:1009D0006925E5CFE8E5EC0FEB3150F4F0E0EE0FE0
:1009E000FF1FEF5CFE4F808191810E948E25D7CF43
:1009F00083E38C0F833198F661E08C2F0E94AE0464
:100A0000CECF882381F19CEF980F913A28F40E9471
:100A100075260E94DB0C089590E2980F983050F4F0
:100A2000877091E001C0990F8A95EAF7892F0E949B
:100A3000300CEFCF9BE5980F933028F490E080E0E6
:100A40000E946925089598E5980F9B3128F490E05D
:100A500080E00E948E25089593E3980F933118F457
:100A600060E00E94AE0408951F93CF93DF93182F88
:100A7000EB010E94B804209739F4812F0E940105F0
:100A8000DF91CF911F9108958FE99FE00197F1F7D2
:100A900000C000002197EFCF70E060E0893311F4CF
:100AA00060E570E00E9434050895882321F00E94DB
:100AB0002A0C0E94DB0C0895882321F00E94300C40
:100AC0000E94DB0C0895B0E0A0E0E9E6F5E00C94AC
:100AD000AB2F6C01D62FC72FFC0115810681029523
:100AE0000F700E94200CE82E8823F9F0E12E1123CC
:100AF000E1F08C2F807F803461F080E28D0F8830B0
:100B000008F18C2F807E803221F4D230D8F000237F
:100B1000C9F08091FC0282FF15C082E00E940B0D9B
:100B20000E94200C91E0E82EE926BC2EB2949FE0B2
:100B3000B922FBE0FB15B8F1EB2DF0E0E95FFE4CCC
:100B40000C94642FE12CF1CF0C2F0F70C07F11F0AB
:100B50000295007F112399F0002359F080E28D0F58
:100B6000883010F0D11107C0802F0E942A0C0E94FB
:100B7000DB0C8D2F5AC0802F0E943A0CF8CF8D2F9E
:100B80000E940105002379F080E28D0F883010F07B
:100B9000D11104C0802F0E94300C03C0802F0E940E
:100BA000400C0E94DB0CEB2DE850FF0B349720F437
:100BB0000E9435250E944A04EE2089F00E941C0CF8
:100BC00080FD0DC0F60115820E94160C0E941908C6
:100BD000C6010E9468070E94160C0E942508CDB726
:100BE000DEB7E9E00C94C72F2C2F2F70F22EC07FB8
:100BF000C03219F0F29480EFF822DD2341F0D130B9
:100C0000D1F1112309F444C00023F1F0B2CF809157
:100C1000FC0282FD15C0112359F0FF2029F08F2D11
:100C20000E942A0C0E94DB0C80E00E94B804BBCF1B
:100C300080E00E940105FF2009F4B5CF8F2DABCFD6
:100C4000112369F0011104C08F2D0E945505ABCF0F
:100C5000013009F0A8CF8F2D0E945E0CA4CF0111A6
:100C6000A2CF8F2D0E945C058F2D0E946A0C8F2DC4
:100C70000E944E0C98CF112321F0063008F093CF3C
:100C8000E3CF053008F08FCF8F2D0E945C058BCF0E
:100C90000023D1F3D93349F43FEF87EE93E031508D
:100CA00080409040E1F700C000008D2F0E940105B8
:100CB0007ACF8C2F86958695837069F0813009F004
:100CC00072CF8D2F9C2F9370111102C080E090E0A5
:100CD0000E948E2568CF8D2F9C2F9370111102C01A
:100CE00080E090E00E9469255ECF612F8D2F0E94E9
:100CF000AE0459CF8C2F837079F5111154CF4D2F3D
:100D0000429546954770440F440F8D2F8F70042EE7
:100D100001C0880F0A94EAF72D2F2071D4FF07C075
:100D20002FE030E001C0220F4A95EAF72095C695E2
:100D3000C695C370822BC23049F058F4C13019F007
:100D40000E94F50730CF0E94EF072DCF0E94FB07CE
:100D50002ACF0E94EC0727CF8695112311F08C2F04
:100D60008170882309F41FCF4D2F42954695477017
:100D7000440F440F8D2F8F70042E01C0880F0A94EA
:100D8000EAF72D2F2071D4FF07C02FE030E001C01B
:100D9000220F4A95EAF72095C695C695C370822B17
:100DA000C23049F058F4C13019F00E944408FBCE1B
:100DB0000E943E08F8CE0E944A08F5CE0E9407081D
:100DC000F2CECF70112329F08C2F0E9419088D2F9D
:100DD0003CCF8D2F0E945C058C2F0E942508E3CE0E
:100DE000D23F41F160F4D03FB9F0D13F81F01123FF
:100DF00009F446C00111BDCE8C2F8F711FC0D33FA7
:100E000001F1D43FA1F78091FC0282FD24C08C2F18
:100E10008F71112311F312C0112341F0053008F036
:100E2000C2CE8C2F8F710E943208BDCE063008F0E2
:100E3000BACEF7CF8C2F8F711111CFCF0E94190826
:100E4000B2CE112329F08C2F8F710E941008ABCEE7
:100E50000E940C08A8CE112349F0CF718C2F0E945C
:100E6000190863E08C2F0E94ED0C9DCE81E00E945A
:100E70000B0D023008F497CE82E00E940B0D93CE4A
:100E8000002359F0D93309F010CFEFEFF7EE23E04C
:100E9000E150F0402040E1F706CF8C2F8F719DCFBD
:100EA0000F931F93CF93DF93EC01688179818D813C
:100EB0000E9410098C010E9450080E94EB07B801A3
:100EC000CE010E946305DF91CF911F910F9108958C
:100ED000CF93DF93EC018C81882399F0CE010E949F
:100EE000BA03811111C00E94200C882351F08D811A
:100EF000882339F08091FC0282FF03C082E00E94C7
:100F00000B0DDF91CF910895CE010E945007CE01C5
:100F10000E948B03F6CF90E080E00E94692590E06C
:100F200080E00E948E250E94470C0E94DB0C0E94EC
:100F30007A200E945E2008950E948C260E948B07D2
:100F400008950E94370C0E949C07089592959F7007
:100F5000963091F058F4925F9F70923058F4803F31
:100F600019F030F4883E30F481E008959A5FF4CFB0
:100F7000843FD1F380E00895883EB0F3813FD1F7FC
:100F8000F3CFFC012481222339F0808191810E94DA
:100F900005090E94A607089580E00895A6E0B0E044
:100FA000E4EDF7E00C94B22F2696E2E00C94CE2FFD
:100FB000A7E0B0E0EEEDF7E00C94B22F2796E2E068
:100FC0000C94CE2F08950E94E20708950E94E30733
:100FD00080930602089508950E94E607089590916F
:100FE0000602892B0E94E607089590910602892344
:100FF0000E94E60708959091060289270E94E6075D
:1010000008950E94E20708950E94010808950E9431
:10101000040880930502089580E00E94070808955F
:1010200091E001C0990F8A95EAF7892F0E9407087D
:10103000089521E030E001C0220F8A95EAF78091FF
:101040000502822B0E940708089521E030E001C0CC
:10105000220F8A95EAF720958091050282230E944B
:101060000708089521E030E001C0220F8A95EAF7D1
:101070008091050282270E94070808959091050239
:10108000892B0E94070808959091050289230E94E8
:10109000070808959091050289270E94070808957E
:1010A0000895262F277091E001C0990F2A95EAF73D
:1010B00023E0769567952A95E1F7FB01EE0FFF1F78
:1010C000E60FF71FE40FF51F50E040E0682F70E0D7
:1010D0008191DF0111979B01042E02C0369527955F
:1010E0000A94E2F7217021952827292328272C9399
:1010F0004F5F5F4F4330510559F70895A82FA770F0
:1011000023E0969587952A95E1F7FC01EE0FFF1FE6
:10111000E80FF91FE60FF71F50E040E080E0219153
:1011200030E00A2E02C0369527950A94E2F7217026
:101130003327042E01C0220F0A94EAF7822B4F5F57
:101140005F4F4330510559F70895282F862F93306C
:1011500070F4233058F4622F70E023E0929F600D0A
:10116000711D11244FEF51E00E94510808959C5FBA
:101170009230E0F7622F70E04CEF51E0F5CF292F6D
:10118000933068F4833090F490E06FEF71E033E0D7
:10119000239F800D911D11240E947E0808952C5FCD
:1011A000223020F46CEF71E090E0F6CF80E00895FB
:1011B000CF92DF92FF920F931F93CF93DF936C0137
:1011C0000091050280910602082BC3E0D0E010E0F8
:1011D000FC2EC8010C2E02C0959587950A94E2F763
:1011E00080FD0CC02197A0F7F12C8F2DDF91CF91BE
:1011F0001F910F91FF90DF90CF900895B6018C2F33
:101200000E942710019771F3F0CFCF93DF93EC0189
:101210000E94D808BE010E942710DF91CF91089547
:101220001F93CF93DF93EB019091FB01992339F04A
:10123000CB010E940509DF91CF911F91089588236A
:1012400069F0CB010E94D808182F682FCE010E94A8
:10125000A508BE01812F0E942710EDCFCB010E946F
:10126000BF08182FF6CFE1E0F0E0DF0102C0AA0FBF
:10127000BB1F6A95E2F7BD01DF0102C0AA0FBB1FC9
:101280004A95E2F76A2B01C0EE0F2A95EAF7962FEE
:101290009823961302C08E2B0895E0958E2308950F
:1012A000242F462F682F809105020E9433090E9447
:1012B000070808951F93CF93DF93C091070217E0AB
:1012C000809108028C1304C0DF91CF911F91089583
:1012D000D0E01C9FF0011D9FF00D1124E75FFD4F32
:1012E00020813181428153816481758186810E9490
:1012F000D8072196C770E4CF209141023091420275
:10130000409143025091440260914502709146021F
:10131000809147020E94D8070895CF93DF93809170
:101320004702807F09F04DC080914602882309F46E
:1013300048C0E091070250910802C0914202D0914A
:101340004102609143027091440247E05E17C9F187
:101350008E2F90E0E49FF0011124E75FFD4F248180
:10136000222391F1489FF001499FF00D1124DF01E4
:10137000A75FBD4F11962C9111972C1325C02C916E
:101380002D1322C015962C91159721111DC0129670
:101390002D913C91261B370B283C3105A8F48091F8
:1013A00047028F70806180934702E15FFD4F80812B
:1013B0008F708061808381E492E00E9468070E94C0
:1013C0005A09DF91CF910895FC013196E770BECFA5
:1013D000482F209107029091080257E0291302C07C
:1013E00080E0089530E0529FF001539FF00D1124EA
:1013F000E75FFD4F8181681306C08081481303C0F9
:1014000085818111EECF2F5F3F4F2770E7CFA4E199
:10141000B0E0EDE0FAE00C94A82F8C0186E0F80132
:10142000DE011F9601900D928A95E1F7F801848103
:10143000E58091E4A92E92E0B92E90914502911198
:101440001FC08823D1F0EE20A9F0C8010E94C10777
:10145000F82E882379F087E0F801D50101900D92EC
:101460008A95E1F7C5010E94A5040E948D090E949A
:101470007C095FC0C8010E946807FF24F39459C02B
:10148000C080D18082809380F090460220914302F8
:1014900030914402A401421B530BFF2009F4F9C010
:1014A000483C510508F0A7C0882309F442C0909138
:1014B000420280914702282F207F09F05CC09D11D5
:1014C00016C090914102C91212C0E1104EC08F7037
:1014D0008061809347020E947C0981E492E00E942F
:1014E000680780914702F8018683F12C22C0E11041
:1014F0003CC06D2D8C2D0E94E8096D2D8C2D0E9415
:10150000E809E82E8111F1CFCF86D88A8F85988996
:101510000E940509292F22952F70243078F49F709E
:101520002230A8F09923B9F0F8019681907F99F4C0
:10153000FE2C8F2D6496ECE00C94C42F2A5F2F7044
:10154000223068F0C8010E946807EF2CF1CF992380
:1015500011F0882369F3805E883050F3F3CF803F29
:1015600038F3815F833070F7E3CF80914702816069
:1015700080934702BACF9D1113C090914102C912C6
:101580000FC0E1100DC08683C8010E94680787E084
:10159000F801A1E4B2E001900D928A95E1F767CFDE
:1015A000C8010E94C107882309F464CFEE2009F422
:1015B00061CF80914702803288F0209141023091C2
:1015C0004202398728879B868A86909145029C87AC
:1015D0001D868E87CE0108960E94680787E0F80175
:1015E000A1E4B2E001900D928A95E1F70E948D0985
:1015F0000E947C0942CF90914702292F207FA1F4BD
:10160000682D9A8A898AA6017A899E2D0E94CE0722
:1016100081E492E00E94680787E0F50111928A95C3
:10162000E9F70E947C0961CF882309F482CF809179
:1016300042028D1110C080914102C8120CC0E1100D
:101640000AC09683C8010E94680787E0F5011192DD
:101650008A95E9F76ECFC8010E94C107882309F473
:1016600009CFEE2009F406CF80914702803208F4BA
:10167000B5CF20914102309142023A8329839C8266
:101680008B82909145029D831E828F83CE010196AD
:10169000A3CF483C5105B8F5882309F4EECEFE2CC3
:1016A000EE2009F4E7CE809142028D111EC0809198
:1016B0004102C8121AC08091470280FD0DC0982FC8
:1016C000907F51F08683903F09F45ECF982F907FF2
:1016D000905F8F70892B57CF87E0F801A1E4B2E0CB
:1016E00001900D928A95E1F724CFC8010E94C107AD
:1016F000811174CF80914702816080934702C801B5
:101700000E94680716CF682D9A8A898AA6017A896D
:101710009E2D0E94CE0787E0F50111928A95E9F788
:10172000A6CEAEE0B0E0E7E9FBE00C94B12F28874D
:1017300039874A875B876C877D878E87CE010896BD
:101740000E94070A8823B1F06C85662341F0288542
:1017500039854A855B857D858E850E94D80717E08F
:10176000809107029091080289133DC02E96E3E014
:101770000C94CD2F87E0FE013896DE011196019082
:101780000D928A95E1F78C85882349F32091080210
:1017900030E0C901019687709927409107024817E8
:1017A000190699F097E0929FD001939FB00D1124F4
:1017B000A75FBD4FFE01319601900D929A95E1F71A
:1017C000809308020E945A09CACF0E94A107109272
:1017D00008021092070287E0E1E4F2E0DF011D92C7
:1017E0008A95E9F7BCCF819FC0011124875F9D4F87
:1017F0000E94070A882309F4B9CFE09107021E9FCF
:10180000F0011124E75FFD4F208131814281538136
:101810006481758186810E94D8078091070290E0DB
:10182000019687709927809307029ACF8091700262
:1018300086958695869508958091700287700895A3
:1018400090917002977081E009F480E00895809192
:101850009C02089590919C02892B80939C0208958C
:10186000809590919C02982390939C0208951092E9
:101870009C02089590919B02892B80939B0208956E
:10188000809590919B02982390939B0208951092CB
:101890009B02089508950E944A0C08959091710248
:1018A000292F282331F080958923809371020E948B
:1018B0004B0C089508950E945A0C0895909172025D
:1018C000292F2823281729F0982B909372020E9421
:1018D0005B0C089590917202292F282331F0809596
:1018E0008923809372020E945B0C0895809172029A
:1018F000882329F01092720280E00E945B0C089508
:10190000CF93C0919C0280919B02C82B8091720260
:10191000882331F0C82B0E94B32581110E94760CD8
:101920008C2FCF910895CF93DF93C0910601D09172
:1019300007010E94800C8883C0910601D0910701A5
:1019400048E050E068E672E0CE010E947830892BD2
:1019500059F088E0FE01A8E6B2E001900D928A9568
:10196000E1F7CE010E944225DF91CF910895CF93F8
:10197000DF93C0910401D09105010E94800C8983FE
:10198000C0910401D091050140E250E068E472E0AA
:10199000CE010E947830892B59F080E2FE01A8E444
:1019A000B2E001900D928A95E1F7CE010E944D259B
:1019B000DF91CF91089580913001882339F0809193
:1019C000FB0287FF03C00E94B70C08950E94930C8E
:1019D000089508950E94E90C08959091FC0292FFE9
:1019E00011C098E0899F90011124622B60937002CE
:1019F0000E941908809170028695869586950E94AE
:101A0000EA0C08950E94190808951092700280E06F
:101A10000E94EA0C0895909170028095892380932A
:101A20007002282F277069F4891759F09091FC02F1
:101A300092FF07C08695869586950E9425080E948C
:101A4000050D08959091FC0292FB222720F928179A
:101A500069F080FB92F99093FC028091FB029091D7
:101A6000FC020E946B0D82E00E940B0D0895809194
:101A7000FC0282FB882780F991E089270E94220DD1
:101A8000089581E00E94220D089580E00E94220DB9
:101A900008956FEF7FEF90E080E00E94D0300895CE
:101AA00090E080E00E949C30863E9E4F19F40E9498
:101AB0003E23089580E0089582E090E00E948E30F9
:101AC000089583E090E00E948E30089584E090E0D5
:101AD0000E949C300895BC0184E090E00E94D030C8
:101AE0000895AB01BC018FE090E00E94C4300895DE
:101AF000AB01BC0183E190E00E94C430089560E036
:101B000070E0CB010E94780D089560E070E0CB0199
:101B10000E94710D0E947F0D0895A8E0B0E0E3E9F6
:101B2000FDE00C94B22F66EE7EEF90E080E00E9424
:101B3000D03060E082E090E00E94B23081E080939B
:101B4000060261E083E090E00E94B23060E074E160
:101B500084E090E00E94D03060E086E090E00E9457
:101B6000B2306FEF87E090E00E94B23040E050E08A
:101B7000BA0188E090E00E94C43060E084E290E026
:101B80000E94B23060E087E190E00E94B23060E0F5
:101B90008CE090E00E94B23060E08DE090E00E9426
:101BA000B23019821A821B821C821D821E821F8201
:101BB000188648E050E068E170E0CE0101960E948E
:101BC000A23040E050E0BA0180E290E00E94C430D0
:101BD00080E00E9457230E9486230E94850D28964C
:101BE000E2E00C94CE2F0E948D0D0895682F8EE0B8
:101BF00090E00E94B2300895A6E0B0E0E2E0FEE09E
:101C00000C94B02F0E9478278C0180919D029091B6
:101C10009E028017910781F019821A820E9478270C
:101C2000682F49815A81792F80E090E00E947504E5
:101C300010939E0200939D022696E4E00C94CC2F14
:101C40000E9484276093AA027093AB028093AC0237
:101C50009093AD026093A6027093A7028093A802AE
:101C60009093A90208950E9484276093AA0270931A
:101C7000AB028093AC029093AD026093A20270938A
:101C8000A3028093A4029093A50208950895089555
:101C90000E94460E089508950E944B0E08958DE10E
:101CA00091E10E94A0120E94470E0E94480E0895E2
:101CB00081E008950E94580E08950E94580E0895DC
:101CC000089508950E94600E0E94610E08950E947A
:101CD0003C110E94490408950E946F270E94962398
:101CE0000E94E61A0E94F9110E94670E0E944D1987
:101CF0000E944C0E0895A6E0B0E0E1E8FEE00C94EE
:101D0000A92F0E945A0E811111C00E94FC0D0E9441
:101D10004F1A0E94031B81110E94330E0E949C20C7
:101D20000E945C042696EBE00C94C52F0E940F12D3
:101D300010919F0280E00E945F1118130EC0109155
:101D4000A00281E00E945F11811307C01091A102DF
:101D500082E00E945F111817C1F28091AE0281FDEE
:101D60000E9465110E945D0EC82E8FE9A82E82E0A8
:101D7000B82E10E099249394812F0E945F11082FB0
:101D8000F50181915F01081729F1D02ED826F12C99
:101D9000EE24E3948D2D8E21A9F0CC2099F0F982C8
:101DA0001A830E9478279C838B839D8291E0802FE9
:101DB0008E2109F490E049815A816B817C818D816B
:101DC0000E947504F394EE0CF3E0FF12E3CFF501EB
:101DD000319700831F5F133079F60E94200E97CF52
:101DE0001F93CF93DF930E942C10EC01C11580E567
:101DF000D807F0F5C11580E4D80708F09CC0C03EB4
:101E0000D10520F5CD3CD10508F082C0C83AD105F6
:101E100078F4C53AD10508F073C0C130D10519F185
:101E2000209709F1C430D105F0F4D0E0C0E01BC028
:101E3000C33CD105D0F7C85AD0E0CC0FDD1FC6593E
:101E4000DE4F0990D881C02DD4640DC0C11580E249
:101E5000D80708F0D1C0C11581E0D80708F05AC0F2
:101E6000C83ED10510F7CE01DF91CF911F910895A3
:101E7000C03682E5D80718F5C03482E5D80708F0E7
:101E80006BC0C03282E5D80708F05FC0C11582E59B
:101E9000D80708F497C02C2F2695269580E2289F16
:101EA000900111248C2F8370C1E0D0E002C0CC0FD0
:101EB000DD1F8A95E2F7C22BD32BDD68D4CFC03A61
:101EC00082E5D80760F4C03882E5D80708F459C025
:101ED000CF71D0E0DC2FCC27C46FD06AC4CFC03C18
:101EE00082E5D80708F462C0C03E82E5D80708F052
:101EF0009CCFDC2FCC27CC27DF71C06FD06AB3CF4B
:101F0000C55AD0E0C056DE4FC881D0E0D064ABCF18
:101F1000D065A9CF8D2F0E94CE10182FCE01992702
:101F20000E942C10C12FD0E0DC2FCC27CC27DF71F2
:101F3000C82BD92B98CFCE0199270E942C10CC27E3
:101F4000DF70C82BD92BD06A8ECFCF71D0E0DC2FB9
:101F5000CC27C16FD06A87CF2C2F26952695277066
:101F600080E2289F900111248C2F8370C1E0D0E083
:101F700002C0CC0FDD1F8A95E2F7C22BD32BDC68A1
:101F800072CF2C2F26952695277080E2289F9001EE
:101F900011248C2F8370C1E0D0E002C0CC0FDD1F74
:101FA0008A95E2F7C22BD32BDA685DCF8C2F8F7125
:101FB0000E94CE10C82FD0E0DC2FCC27CC27DF71B9
:101FC000D06251CF8C2F8F710E94CE1055E0D695E4
:101FD000C7955A95E1F7CF70D0E0DC2FCC27282F9A
:101FE00030E084FF05C044E0220F331F4A95E1F73B
:101FF000C22BD32BD06937CF8D2F8F710E94CE107B
:10200000182FCE0199270E942C10C12FD0E0DC2F71
:10201000CC27CC27DF71C82BD92BD2CF462F672FE7
:10202000733028F4433080F40E94FC1C08957D3FF7
:1020300039F4411109C041E060E00E94081D089593
:102040007C3F11F44423C1F390E080E008950E94A6
:102050000E100E94F00E089582389105B9F1B0F487
:102060008133910509F47DC048F48932910509F462
:102070006DC08A32910509F47BC0089585339105BE
:1020800009F45FC08933910509F10895833E9105F4
:10209000D9F138F4803E910529F1823E910579F11C
:1020A0000895863E9105D9F1873E910509F43EC019
:1020B000843E910541F52091FC0221FF24C08091CE
:1020C000FB0284FD19C087EE90E008952091FB0289
:1020D000237009F05AC02091FC0223FF14C089E24A
:1020E00090E008952091FB0220FD38C03091FC0261
:1020F00030FF09C024FF43C090E080E008952091A4
:10210000FB0222FDF7CF08952091FB0222FD3AC089
:102110003091FC0230FD39C024FFF5CFEDCF209186
:10212000FB0223FFF0CF24FDE7CFCDCF2091FB02B0
:1021300023FD2EC03091FC0231FFEECF84EE90E003
:1021400008952091FB0225FFDECFC9CF2091FB022D
:1021500025FD21C02091FC0223FFD5CF89E390E02B
:10216000D2CF2091FB0226FFCECF8AE290E00895E5
:102170002091FB0226FFC7CF81E390E0089583EE14
:1021800090E0089582EE90E0089580EE90E008954A
:1021900086EE90E0089585E390E008959091FB022B
:1021A00092FF10C041E0282F2471243009F040E054
:1021B00031E0282F2871283009F030E0431711F062
:1021C0002CE0822793FF10C041E0282F2471243196
:1021D00009F040E031E0282F2871283109F030E083
:1021E000431711F02CE082273091FC0230FF10C021
:1021F00051E0282F2171213009F050E041E0282FD3
:102200002871283009F040E0541711F029E08227A6
:1022100031FF10C041E0282F2171213109F040E049
:1022200031E0282F2871283109F030E0431711F0F0
:1022300029E0822794FD877E089580E008950E941A
:10224000490D08950E940F122FEF86E791E021506B
:1022500080409040E1F700C000000E940F1280E033
:102260000E945F1180FF04C00E941F110E94C327BB
:1022700008950E94221108950E94500D811102C0FC
:102280000E94F30D0E945C0D8093AE020E94660DC9
:102290009093FC028093FB020E9439110E94610D11
:1022A0000E94EC07809105020E9404080895089599
:1022B0000E945711089508950E945B110895E82F18
:1022C000F0E0E050FD4F80810895089580EA8A95FE
:1022D000F1F7089500C008950E9466110895F894DA
:1022E000E82FE295EF70F0E031A1282F2F7081E008
:1022F00090E001C0880F2A95EAF7982F90959323D4
:1023000091A392A1892B82A37894089584E30E94DB
:102310006F1185E30E946F1186E30E946F1184E9BB
:102320000E946F1186E90E946F1187E90E946F1168
:102330000895B0E0A0E0EFE9F1E10C94AC2F7C014E
:10234000162F042FC62FD0E0CE018D559E4F6C0165
:10235000EC0128812F3F09F444C0F894E22FE29564
:10236000EF70F0E031A12F7081E090E001C0880FA4
:102370002A95EAF7932F982B91A392A18095892310
:1023800082A378940E946A11A6EAB1E0F70149EAB3
:1023900051E0F12C602F60959D9180819F3F31F13C
:1023A000292F22952F7030E0E90128A130E09F709D
:1023B00002C0359527959A95E2F720FD17C0802B2E
:1023C0008083FF24F39431964A175B0729F7F601BF
:1023D00080818F3F11F00E946F116F2D812F0E941D
:1023E0006C11CDB7DEB7E8E00C94C82F862380834C
:1023F000EACF0E94861183E0E0E0F3E0DF01982F4E
:102400001D929A95E9F7EDEFF2E0DF011D928A95B2
:10241000E9F783E00E944B120E9458110895A3E04F
:10242000B0E0E5E1F2E10C94B02F19821A821B8230
:1024300010E001E0402F612FCE0101960E9499111A
:102440001F5F000F1330B1F743E050E0BE016F5F34
:102450007F4F8DEF92E00E94783021E0009709F4E1
:1024600020E0892B49F089819A81AB818093FD021C
:102470009093FE02A093FF0243E060E073E08DEFD3
:1024800092E00E944C12182F0E945C11812F23961B
:10249000E4E00C94CC2F0895B0E0A0E0E2E5F2E196
:1024A0000C94AC2F6C017B01042FC22F222379F0F6
:1024B00081E08093B1020E9478279093B0028093CC
:1024C000AF0280E0CDB7DEB7E8E00C94C82FD09122
:1024D000B102DD23B1F38091AF029091B0020E946E
:1024E0009027059770F310E0A801B601C7010E947C
:1024F0007830892B31F0A801B601C7010E948530E0
:10250000CD2F1092B1028C2FDDCF0E9468290E943E
:102510006C0E0E94752908950E947A290E947B0EF4
:102520000E94942908950E9411270E944E290E941A
:102530004F0E0E9485120E948C120E94620EFBCFE9
:102540009093F5018093F4010895EF92FF920F9319
:102550001F93CF93DF93EB01E82FD1110EC04423DB
:1025600021F0F0E0E25EFD4FE4916E2F7E2F8E2F82
:10257000CDB7DEB7E6E00C94CA2F0D2F10E0282F60
:1025800030E0442329F0225E3D4FF901249130E0F0
:10259000F6E0CF9FC0011124EFEFF0E0BF010E94F1
:1025A0001A2FAB018C2F90E0880F991FA5E5A49FEF
:1025B000B001A59F700D1124861B970B982F990FC2
:1025C000980FBF01601B710B629FD001639FB00D1C
:1025D000729FB00D11248B2F9D9FB0011124672F86
:1025E0007727EF01C61BD70BBE01629FE001639FF7
:1025F000D00D729FD00D11247F01E91AF108E09EE1
:10260000B001E19E700DF09E700D1124672F7727A9
:10261000E61BF70BE29F8001E39F100DF29F100D68
:102620001124E12F722F4230510599F048F44115E1
:10263000510569F04130510581F0EB2F8D2F07C016
:102640004430510569F080F046305105B1F76E2FE6
:102650008FCFE22F7B2F812FFACFE22F7D2FF7CF65
:10266000EB2F822F712FF3CF7B2F822FED2FEFCF08
:1026700041E00E94A512089508950E94381308951C
:10268000CF93DF93762FE901682F842F0E943D13AB
:10269000798368838A83DF91CF91089580910303C2
:1026A000982F9C7F29F4837084608093030308959E
:1026B0008C3AE8F38370886AF8CFB0E0A0E0E3E6F4
:1026C000F3E10C94AC2F88E090E00E9496306B010F
:1026D0007C0184E290E00E948E30282F30E040E0C0
:1026E00050E060E070E080E090E000E20E94D92FCE
:1026F000B22FA32FF42FE52FD62FC72F97018601D6
:10270000BC29A12BFE295E2F532B2B2F3A2F4F2FA5
:102710006D2F7C2FCDB7DEB7E8E00C94C82FB0E06A
:10272000A0E0E5E9F3E10C94A82F49015A016B01FF
:102730007C010E944E138401A4016A2D7B2D88E048
:1027400090E00E94C43094014A2D5B2DB601C70170
:1027500000E20E94F42F622F84E290E00E94B230E7
:10276000CDB7DEB7ECE00C94C42FE3E0F3E02081BA
:1027700031814281538164817581868197810E9474
:102780008F130895E3E0F3E089E3808311828FEFF4
:10279000828383831482758129E330E04FEF5FEFFA
:1027A00060E0868197810E948F13089580910303D2
:1027B00080FF03C086958695089580E008958091F6
:1027C00003038170089590910703933018F49F5F7D
:1027D00090930703882391F0209103033091040321
:1027E000409105035091060360910703709108031F
:1027F0008091090390910A030E948F13089581E04C
:102800000E94E313089590910703992319F09150C2
:1028100090930703882391F02091030330910403E0
:1028200040910503509106036091070370910803DE
:102830008091090390910A030E948F13089581E00B
:102840000E9403140895809107030895809307035D
:10285000662389F02091030330910403409105031E
:102860005091060370910803682F8091090390919D
:102870000A030E948F13089560E00E9426140895B1
:1028800080910403089580910503089580910603C3
:10289000089570E00E94A61B089560910C0180913C
:1028A000030380FF0BC080910B0123E0829FC001D6
:1028B0001124855F9C4F0E944914089580910D0159
:1028C00090910E0123E0829FF0011124E55FFC4FFF
:1028D000891748F71182108212828F5F3396F8CFE2
:1028E0009091030390FF0EC090910D0120910E0175
:1028F00033E0939FF0011124E55FFC4F921718F02D
:102900000E944D1408958183608342839F5F3396B4
:10291000F5CFA3E0B0E0EFE8F4E10C94B22F909192
:10292000030390FF0AC09E012F5F3F4F0E94401398
:102930004B8169818A810E9470142396E2E00C9495
:10294000CE2FCF93DF93EC01EC81F0E0E75EFE4FFA
:102950004491E3E0F3E0628181810E9489148C81DB
:102960008F5F8C83DF91CF910895CF93DF93EC013C
:10297000E3E0F3E0438162818C810E9489148C81C1
:102980008F5F8C83DF91CF910895A3E0B0E0EBECF3
:10299000F4E10C94B02F8C018091B20281110AC035
:1029A0009E012F5F3F4F4FEF6FEF0E9440138A81D0
:1029B0008093B202F8016481613069F08091B202C3
:1029C00040E0662361F040E0623011F44091B202D1
:1029D00080E060E004C06091B20240E080E00E94CC
:1029E0007014F801848190E0019663E070E00E9429
:1029F0002E2F84832396E4E00C94CC2FA3E0B0E048
:102A0000E4E0F5E10C94AB2F082FD62EF42EC22E65
:102A10009091030390FF2FC0E92FE695E695AE2F26
:102A2000B0E0A755BE4F8C918093D2029C7F94302A
:102A300031F59E012F5F3F4F802F0E9440134B8145
:102A400069818A810E94701400930403D092050367
:102A5000F0920603CC2079F02091030360910703E4
:102A600070910803302F4D2D5F2D809109039091B7
:102A70000A030E948F132396E9E00C94C72F82303B
:102A800019F4F0900603E0CF863019F400910403A6
:102A9000DBCF8930D9F38931B9F6E9516E2F6170F6
:102AA000B62EE695F0E0E75EFD4F1491E12C6091C3
:102AB0000F01E61618F00E944D14C6CFE19EC0012A
:102AC000112470E00E941A2F802FB11014C0860FBD
:102AD00020910D01622F6E0D7727771F9B01220F2A
:102AE000331F260F371F255F3C4F4F2D6D2D0E9442
:102AF0004013E394DCCF861BEBCFE3E0F3E091815E
:102B0000282F438162818AE0890F0E94FE14089574
:102B100081E00E947D150895E3E0F3E09181282F84
:102B20004381628186EF890F0E94FE14089581E03F
:102B30000E948C150895E3E0F3E0628121E1620FC9
:102B400008F46FEF282F438181810E94FE140895BD
:102B500081E00E949B150895E3E0F3E0628121E1AA
:102B6000621B08F460E0282F438181810E94FE14DB
:102B7000089581E00E94AC150895E3E0F3E04381FD
:102B800021E1420F08F44FEF282F628181810E94DA
:102B9000FE14089581E00E94BD150895E3E0F3E07E
:102BA000438121E1421B08F440E0282F62818181AA
:102BB0000E94FE14089581E00E94CE15089520E041
:102BC0000E94FE140895EF92FF921F93CF93DF931C
:102BD000EC0110E0EE24EA94F12C60910F0116173D
:102BE00070F00E944D149A818C8190FF27C08F5FF6
:102BF0008C83DF91CF911F91FF90EF9008952091EA
:102C00000D01422F410F5527551FCA019A01220F6E
:102C1000331F280F391F255F3C4F70E0C7010E940A
:102C20002E2F962F8C814091060360910503199FEA
:102C3000800D11240E9440131F5FCFCF8150D8CF49
:102C4000B0E0A0E0E6E2F6E10C94AB2FFC0182815B
:102C50000FEF80FF01E010E080910F01181798F04E
:102C60000E944D148091B402013009F04CC08111D2
:102C700002C080910F0181508093B402CDB7DEB7BE
:102C8000E9E00C94C72FC0910D01C12ED12CCC0DC1
:102C9000DD2DD11DCE01880F991FC80FD91FC55F2B
:102CA000DC4F198218821A8234E0E32EF12CB12C09
:102CB0008091B4028B0D853004F18370082E000CD6
:102CC000990BC816D90691F4809106038E9DA00138
:102CD0008F9D500D112455954795559547959E010B
:102CE00060910503809104030E944013B00EF1E04F
:102CF000EF1AF108E9F61F5FAFCF87FFDFCF9091A2
:102D00000F01890FDBCF90E0019660910F0170E019
:102D10000E942E2FB1CF0F931F93CF93DF938091FB
:102D20000D0190910E0123E0829FF0011124E55FD7
:102D3000FC4F891740F1C0E0D3E060910F01C61746
:102D400040F10E944D14209109018091B302820F3D
:102D50008093B30290910A01920F90930A01191681
:102D600054F4082E000C990B40910F014150550B63
:102D7000841795071CF0219520930901DF91CF91CD
:102D80001F910F9108951182108212828F5F3396E6
:102D9000D0CF0C2F10E070E0C8010E942E2F2091A0
:102DA0000D01820F482F50E02091B302022E000C3B
:102DB000330B02171307BCF020910A01022E000CFE
:102DC000330B201731077CF08D9F90011124255F74
:102DD0003C4F4091060360910503809104030E94DB
:102DE0004013CF5FAACFFA01EE0FFF1FE40FF51FCC
:102DF000E55FFC4F118210821282F3CFB0E0A0E0B9
:102E0000E4E0F7E10C94A82FEC014C81042F10E0D2
:102E10009801D8010E94792F9B01AC010E948F2F4D
:102E20004B015C01E0E2F0E0E01BF10BA5E5B0E056
:102E3000AC019B010E948F2F6B017C019F01DF0180
:102E40000E94712F9B01AC010E949A2F9B01AC0143
:102E5000280D391D4A1D5B1DC701B6010E94422F76
:102E6000F22E822F90E039E23F1520F143E0249FBB
:102E70009001112435952795122F109500E085E5D6
:102E8000E82EEF1880910F01081718F10E944D14D9
:102E90009C8181E0992319F0903219F48FEF80938F
:102EA000080180910801890F8C83CDB7DEB7ECE073
:102EB0000C94C42F25E530E0B901681B790B9B0108
:102EC000220F331F260F371F37FFD4CF2F5F3F4FFF
:102ED000D1CF8E2D01FD8F2D20910D01622F600F1E
:102EE0007727771F9B01220F331F260F371F255F80
:102EF0003C4F412F609105030E9440130F5FC2CFEA
:102F00000F931F93CF93DF93EC0110E000E09091BB
:102F10000F019017110609F06CF40E944D148C817A
:102F200090E00196817099278C83DF91CF911F915A
:102F30000F91089520910D01A801420F511D9A0192
:102F4000220F331F240F351F255F3C4F4C816091AA
:102F500005038091040396959017110651F04CF0EB
:102F6000442349F0409106030E9440130F5F1F4F16
:102F7000CECF4423B9F340E0F7CFB0E0A0E0E3ECDC
:102F8000F7E10C94A42FFC016280448081E08483EB
:102F9000E9E1F1E07490E8E9F1E0E491C091060321
:102FA000C695C158D0E0CC0FDD1FCD2FDD27812C79
:102FB00075E0972EAA24AA94B12C55245A94E719A7
:102FC000EE2EF12C80910F01881638F00E944D14DE
:102FD000CDB7DEB7E0E10C94C02FC82CD12C82E035
:102FE000861568F09C9CF0019D9CF00D1124EB541B
:102FF000FD4F8091040380838091050381834110FC
:1030000023C09C9CF0019D9CF00D1124EB54FD4FBE
:103010001382128220910D01C601820F911D9C0125
:10302000220F331F280F391F255F3C4F9C9CF00156
:103030009D9CF00D1124EB54FD4F428161818081F4
:103040000E9440138394BECF9C9C80019D9C100DD8
:1030500011240B541D4FF80183818823F1F0815016
:103060008383859DC0011124648170E00E941A2F22
:10307000FB01FF27E75EFE4F8491E82FE719E59DEE
:10308000C0011124B7010E941A2F80910603689F86
:10309000B0011124F8017283BDCF0E945B30B501ED
:1030A0000E942E2F8C179D070CF0B4CFF2E0F6157E
:1030B00098F40E945B30B5010E942E2FF8018083A6
:1030C0000E945B30209105032695622F70E00E94DC
:1030D0002E2F280FF80121839C9CF0019D9CF00D60
:1030E0001124EB54FD4F128280910603893C58F065
:1030F00088EC9C9CF0019D9CF00D1124EB54FD4F3D
:103100008483838387CF8431A0F784E1F2CFE3E027
:10311000F3E020812E7F20833181428153816481BD
:103120007581868197810E948F131092D3020E942D
:103130004D140895E3E0F3E080818E7F8083109248
:10314000D3020E944D1408951092D3028091D002B0
:1031500081110AC081E08093D002809103038170C5
:103160008093CF020E949A18089560910303669598
:10317000669570E04BE050E080E191E00E946B309A
:10318000892B19F481E08093D3020E9478279093D1
:10319000CA028093C90208959091030390FF34C03E
:1031A0009370811132C0946090930303662391F071
:1031B00020910303309104034091050350910603CD
:1031C00060910703709108038091090390910A03AD
:1031D0000E948F13609103036695669570E04BE043
:1031E00050E080E191E00E946B30892BB1F01092A9
:1031F000D30281E08093CC024091060360910503E5
:10320000809104030E94DF1508958B3210F0986AB4
:10321000CBCF880F880F982BC7CF0E94B518E9CF66
:10322000682F909103039695969581E0890F8B32D4
:1032300008F081E00E94CC18089581E00E941019E6
:103240000895682F90910303969596958FEF890FB7
:1032500009F48AE20E94CC18089581E00E942119A5
:10326000089561E00E94CC180895E3E0F3E08081C6
:1032700081608083869586950E943119089580919A
:10328000030380FF03C00E94871808950E94351928
:10329000089560E00E94CC1808958091D1028111B8
:1032A0003FC00E94500D811104C00E94F30D0E9486
:1032B000C2130E945D1320930303309304034093D1
:1032C00005035093060360930703709308038093EC
:1032D000090390930A032C7FA1F40E94C2130E9459
:1032E0005D1320930303309304034093050350932D
:1032F0000603609307037093080380930903909378
:103300000A030E944E131092D3028091030380FFA0
:1033100004C0869586950E94491981E08093D10268
:103320000895E3E0F3E0808181608083869586954F
:103330000E94491908958091030380FF03C00E94F1
:103340009A1808950E94911908951092D0028091C0
:10335000CF0281110E9491190E94B51808950F9310
:103360001F93CF93DF938091D3028823C1F1809183
:10337000D202E0910303E695E695E81BE093CB02C9
:10338000823091F5F0E0EB5EFE4FE491CE2FD0E07D
:1033900001EA14E18091CC02882361F01092CC0202
:1033A0000E9478279093CA028093C9021092CE029D
:1033B0001092CD020E947827E091C902F091CA02D2
:1033C0008E1B9F0B8F3F9F4750F4EC0FFD1FF09318
:1033D000CA02E093C90289EC92E0F8010995DF91F5
:1033E000CF911F910F910895863049F4F0E0EE5E81
:1033F000FE4FE491CE2FD0E005EB14E1CBCF893026
:1034000051F4E695F0E0E15FFE4FE491CE2FD0E07D
:1034100003EE15E1BFCF8F3051F4E695F0E0E45FA5
:10342000FE4FE491CE2FD0E000E216E1B3CF85311C
:1034300049F4F0E0E75FFE4FE491CE2FD0E00BE8D7
:1034400016E1A8CFC8E2D0E00EEF16E1883109F40A
:10345000A1CF833239F4E7E0F1E0C591D49105ECD6
:1034600014E198CFC4EFD1E000E817E1843209F409
:1034700091CFC0EDD7E00CE313E1853209F08ACF9C
:103480008E2F63E00E940E2FE92FF0E0EC5FFE4FDD
:10349000E491CE2FD0E00DEB17E17CCF08950E9490
:1034A000AF190895FA01811101C0FB010995089532
:1034B000CF93DF93C82FD62F0E94D6138C1748F0D6
:1034C0000E94D6138D1728F40E941D19DF91CF9109
:1034D00008958C2F0E943119F9CF1F93CF93DF935A
:1034E000EC01FB011581111110C00E94270C8272A2
:1034F000FE01E052F847E531F10508F05EC0ED5EEF
:10350000FE4C0C94642F0E943F19812FDF91CF91C4
:103510001F9108954DE259E16DE179E10E94521A3F
:10352000F4CF4DE159E16DE279E1F8CF47E955E19A
:1035300068E875E1F3CF48E855E167E975E1EECF5A
:1035400049EB55E168EA75E1E9CF48EA55E169EBF5
:1035500075E1E4CF4BED55E16AEC75E1DFCF4AEC64
:1035600055E16BED75E1DACF4FE154E16FEF73E1B7
:10357000D5CF4FEF53E16FE174E1D0CF81E00E94EE
:103580003119C3CF65E082E00E94581ABECF68E0CF
:1035900086E0FACF6EE089E0F7CF64E18FE0F4CF08
:1035A00067E185E1F1CF88E1EACF62E289E1ECCF22
:1035B00083E2E5CF6AE285E2E7CF11E0A6CF8FE8AC
:1035C00091E00197F1F700C00000089581E0809339
:1035D000D5025098589A5198599A0E94DF1A209112
:1035E000D50247ED52E0FA018E2F841B821708F0B6
:1035F000089589B18170499904C090E0892B819325
:10360000F3CF92E0FBCFA8E1B0E0E9E0FBE10C945E
:10361000A52F10E000E082E0982E94E0A92EB12CB6
:103620002DEF822E772473943CEF632E43E0542ECB
:103630008091D502181728F0802F6896EFE00C943F
:10364000C12FE12EF12CE9B1E17049997DC080E0F4
:103650008E2BD701A952BD4FEC919E2F93709817D6
:1036600009F470C0EE0FEE0FE82BEC93EF70F0E072
:10367000EC52FE4FC7018A529D4F6C018081F601CA
:103680009081890F808320E084303CF1F701EC5277
:10369000FD4F80818F5F80830E9478271D876E8613
:1036A000682F8F87988B598A7A8A412F5CEF792F00
:1036B00083E091E00E9475040E9478271B8B6C8A3E
:1036C000682F8D8B9E8B5F8A188E412F5CEF792F30
:1036D00083E090E00E94750421E0F60180818D3F37
:1036E0003CF5F701EC52FD4F8081815080830E94B0
:1036F000782719838A82682F8B839C839D827E82A0
:10370000412F5DEF792F82E091E00E9475040E94C5
:1037100078271F838886682F89879A879B861C86CF
:10372000412F5DEF792F82E090E00E94750421E047
:10373000F6018081082E000C990BB5010E942E2FF6
:103740008083022B1F5F74CF82E082CF279A45B11E
:103750004F7755B15068EFB7F8949B01220F331F94
:10376000260F371F280F391F2817390741F4EFBFDD
:103770008FE594E00197F1F700C000000895DC01A7
:103780006D91CD0178E055B9000000C067FF45B9E3
:10379000660F000000C000C000C045B900C07A95A7
:1037A00091F7E2CF84E0089550E0440F551F96E072
:1037B000699F400D511D112492E1899F400D511DBB
:1037C0001124CA01899608950F931F93CF93DF9315
:1037D0008430C8F46330B8F44330A8F40E94D41B9A
:1037E0008C010E948E30C82FD0E0DC2FCC27C8017E
:1037F00001960E948E309E01282BC901DF91CF9146
:103800001F910F91089590E080E0F8CF0F931F93E0
:10381000CF93DF93122F032F843078F4633068F452
:10382000433058F40E94D41BEC01602F0E94B23048
:10383000612FCE0101960E94B230DF91CF911F918E
:103840000F910895FF920F931F93CF93DF93F42E60
:10385000843040F5611126C024E0829F800111244C
:103860000F581F4F82E090E0442311F090E080E079
:10387000800F911F0E948E30C82FD0E0DC2FCC2704
:1038800083E090E0FF2011F081E090E0800F911F35
:103890000E948E309E01282BC901CDB7DEB7E5E02E
:1038A0000C94CB2F90E080E0F8CF0F931F93CF9331
:1038B000DF93142F022F8430F0F461111CC094E0C8
:1038C000899FE0011124CF58DF4F82E090E044232C
:1038D00011F090E080E0632F8C0F9D1F0E94B230AA
:1038E00083E090E0112311F081E090E0602F8C0FD5
:1038F0009D1F0E94B230DF91CF911F910F910895CB
:103900001F93CF93DF93C0E0D0E011C0412F6D2F04
:103910008C2F0E9403039C01412F6D2F8C2F0E943E
:10392000061C1F5F133091F7DF5FD33011F010E0FA
:10393000EDCF41E060E08C2F0E941F039C0141E02D
:1039400060E08C2F0E94551C40E060E08C2F0E94AC
:103950001F039C0140E060E08C2F0E94551CCF5F4C
:10396000C43091F6DF91CF911F910895EF92FF92AD
:103970000F931F93CF93DF93EC018A017C01E60E36
:10398000F71ECE018996CE15DF0529F4CDB7DEB737
:10399000E6E00C94CA2FC834D10540F40E948E3062
:1039A000F80180830F5F1F4F2196EBCFF801108243
:1039B000F9CFB0E0A0E0EFEDFCE10C94AC2F7C017E
:1039C0006A018C01060F171FEC01CE018996C01702
:1039D000D10729F4CDB7DEB7E8E00C94C82FC8347E
:1039E000D10540F4FE01EE19FF09EC0DFD1D6081CB
:1039F0000E94B2302196E9CF843038F4633028F445
:103A0000433018F40E94E41B089590E080E008958C
:103A1000843028F4611103C00E94221C089590E0B4
:103A200080E0089580E108958FE793E00895EF9294
:103A3000FF920F931F93CF93DF93EC018A017C01D8
:103A4000E60EF71ECE018F579F4FCE15DF0529F4E6
:103A5000CDB7DEB7E6E00C94CA2FCF3723E0D2070C
:103A600040F40E948E30F80180830F5F1F4F219633
:103A7000E9CFF8011082F9CFB0E0A0E0E2E4FDE187
:103A80000C94AC2F7C016A018C01060F171FEC010E
:103A9000CE018F579F4FC017D10729F4CDB7DEB79E
:103AA000E8E00C94C82FCF3723E0D20740F4FE01A2
:103AB000EE19FF09EC0DFD1D60810E94B2302196C8
:103AC000E7CFCF93DF93C1E8D0E060E0CE010E9462
:103AD000B2302196C11584E0D807B9F7DF91CF91B4
:103AE0000895A8E0B0E0E7E7FDE10C94AA2FF82ED6
:103AF0008FE08F1508F46EC08FEF93E00E948E3038
:103B0000811168C001E810E0F11035C0FE01319666
:103B10006F0188E011928A95E9F77801FFEFEF1ABB
:103B2000FF0AC8010E948E3089831A82882309F413
:103B300051C08130D1F4580182E0A80EB11CC701F8
:103B40000E948E308A83882309F444C09FEF980F27
:103B50009330F0F4780193E0E90EF11CC5010E9466
:103B60008E308B838823B1F11C8260E0C6010E94F5
:103B7000E7218701D2CF011594E0190759F1C80157
:103B80000E948E30811101C0FA940F5F1F4FBCCF8D
:103B90007501843051F702E010E07501EFEFEE1A85
:103BA000FE0AC5010E948E30F601E00FF11F8083EE
:103BB000882381F08C3741F4E2E0F0E0EC0FFD1F48
:103BC000E00FF11F1082D1CF0F5F1F4F5701073059
:103BD000110519F72896EAE00C94C62FCF93DF93CE
:103BE000EB0186319C4711F50E94270C9D8199239A
:103BF00099F08A7A91E009F490E09093D8028111CB
:103C000009C089E20E945E260E94DB0C80E0DF9101
:103C1000CF91089585E3F6CF8091D802811104C039
:103C200089E20E947526F0CF85E3FBCF81E0EFCFDC
:103C3000CF93DF93EC01FB018581882309F4D2C087
:103C40009E0130572332310508F0B2C00E94660D44
:103C50009093FC028093FB02FE01E150F047E232B8
:103C6000F10520F4E85DFE4C0C94642F8091FB027A
:103C700081608093FB0293C08091FC0288608093F6
:103C8000FC028DC08091FB028260F3CF8091FB0229
:103C90008460EFCF8091FB028860EBCF8091FC02C3
:103CA0008160EDCF8091FC028260E9CF8091FB02C0
:103CB0008061DFCF8091FB028062DBCF8091FB02CD
:103CC0008064D7CF0E94A1078091FB028068D1CF8A
:103CD0008091FB028C60CDCF8091FC028360CFCFBE
:103CE0008091FB028E7FC5CF8091FC02877FC7CF7A
:103CF0008091FB028D7FBDCF8091FB028B7FB9CF7E
:103D00008091FB02877FB5CF8091FC028E7FB7CF79
:103D10008091FC028D7FB3CF8091FB028F7EA9CF73
:103D20008091FB028F7DA5CF8091FB028F7BA1CF7D
:103D30000E94A1078091FB028F779BCF8091FB02AD
:103D4000837F97CF8091FC028C7F99CF8091FB027B
:103D500082FB992790F921E0922790FB82F990FB52
:103D600083F987CF8091FC02982F909591708E7F78
:103D7000892B90FB81F983CF9091FB02892F8F7B58
:103D800096FF806476CF0E94A1079091FB02892F55
:103D900097FB87F980586DCF81E00E94F60D8091E6
:103DA000FB029091FC020E946B0D0E94A10780E033
:103DB000DF91CF91089580E0F0CF9091FB02892FA1
:103DC0008F7E94FF806155CF9091FB02892F8E7F6B
:103DD00090FF81604ECF9091FC02892F877F93FFE7
:103DE00088604DCF81E0E4CF282F35EB2303C0015D
:103DF000112497FF04C080589109892F0895805895
:103E00009F4FFBCF8091DF0280FF0DC060912001AA
:103E100070E0660F771F6038710570F561157105E8
:103E200069F1862F089581FF07C06091200184E029
:103E3000689FB0011124EFCF6091200182FD0AC07C
:103E40008091DE028823A9F020911F01609120015A
:103E5000821710F088E0ECCF869FC001112433E078
:103E6000880F991F3A95E1F7622F70E00E942E2F7C
:103E7000D2CF68E070E0D5CF8FE7089581E0089554
:103E80008091DF0280FF0CC060911C0170E075958D
:103E90006795759567956115710549F1862F0895A8
:103EA00081FF06C060911C0170E075956795F3CFA6
:103EB00060911C0182FD0BC09091DD029923A1F05D
:103EC00060911B0180911C01961738F0682F70E0FB
:103ED0006038710500F38FE70895899FC0011124B0
:103EE00070E00E942E2FF4CF61E070E0D7CF81E028
:103EF00008959091E2022091E302922B2091E50235
:103F0000922B2091E402922B31F098E09093DE0204
:103F100091E09093DD028D3C31F40E94021F819567
:103F20008093E30208958E3C19F40E94021FF8CF9B
:103F30008F3C31F40E94021F81958093E202089524
:103F4000803D19F40E94021FF8CF893D29F40E9498
:103F5000401F8093E40208958A3D21F40E94401F8F
:103F60008195F7CF8B3D31F40E94401F819580935E
:103F7000E50208958C3D19F40E94401FF8CF9FE29E
:103F8000980F983070F4815D990B21E030E001C00A
:103F9000220F8A95EAF78091E102822B8093E10259
:103FA00008958D3D31F48091DF0281608093DF02BE
:103FB00008958E3D21F48091DF028260F7CF8F3D1E
:103FC000B9F78091DF028460F1CF4091E2028D3C2D
:103FD00059F48091E30287FF0DC01092E302411172
:103FE0000BC01092DE0208C08E3C81F48091E30287
:103FF00018169CF3442381F08091E4029091E5022D
:10400000892B09F05AC01092DD0208958F3C49F4C3
:1040100047FFF0CF1092E2028091E3028111ECCFD2
:10402000E0CF803D19F41416ACF3E4CF9091E40294
:10403000893D29F41916F4F61092E402DBCF8A3D8B
:1040400019F497FFD7CFF8CF9091E5028B3D29F473
:1040500097FFD0CF1092E502CDCF8C3D19F4191601
:10406000CCF3C8CF9FE2980F983090F4815D990B04
:1040700021E030E0B90102C0660F771F8A95E2F7B0
:10408000CB0180959091E10289238093E102B2CF28
:104090008D3D31F48091DF028E7F8093DF02AACFC5
:1040A0008E3D21F48091DF028D7FF7CF8F3D09F0A7
:1040B000A1CF8091DF028B7FF0CF08950E947827F7
:1040C0009C019091E2028091E302982B21F03093C1
:1040D000DC022093DB029091E4028091E502982BB0
:1040E00021F03093DA022093D90280EE92E00E9410
:1040F0005B25089586E0E0EEF2E0DF011D928A95EF
:10410000E9F71092DE021092DD021092DF020895AC
:10411000FC01828181110EC0838181110BC08481D9
:10412000811108C091E08581811101C090E0892F43
:104130008170089581E0FCCFA6E0B0E0E2EAF0E211
:104140000C94B12F86E0E0EEF2E0DE0111960190D2
:104150000D928A95E1F71092E2021092E30210921A
:10416000E4021092E5028B819C81892B89F0809179
:10417000DB029091DC020E949027AC019091DE025C
:104180009923C9F1809121018417150608F440C0D4
:104190008D819E81892B91F08091D9029091DA02D4
:1041A0000E949027AC019091DD02992309F46AC026
:1041B00080911D018417150608F472C0BE016F5F5F
:1041C0007F4F80EE92E00E94A626811105C080EE0E
:1041D00092E00E94882081110E945E2086E0FE010C
:1041E0003196A0EEB2E001900D928A95E1F7269605
:1041F000E3E00C94CD2F209122018AE0289F9001CA
:1042000011242417350720F69F5F9093DE0202C029
:104210009F3FD1F71B81112359F00E94021F9FEF8E
:1042200011160CF491E0899F802D11248093E202F5
:104230001C81112359F00E94021F9FEF11160CF4EC
:1042400091E0899F802D11248093E3028091E20206
:10425000882309F49DCF1091E302112309F498CF2C
:104260000E94F41E882351F08093E202812F0E9465
:10427000F41E882329F08093E3028ACF81E0F4CFF3
:1042800081E0F9CF20911E018AE0289F900111243E
:104290002417350708F092CF9F5F9093DD0202C08C
:1042A0009F3FD1F71D81112359F00E94401F9FEFBE
:1042B00011160CF491E0899F802D11248093E40263
:1042C0001E81112359F00E94401F9FEF11160CF41C
:1042D00091E0899F802D11248093E5028091E40272
:1042E000882309F46BCF1091E502112309F466CFFE
:1042F0000E94F41E882351F08093E402812F0E94D3
:10430000F41E882329F08093E50258CF81E0F4CF92
:1043100081E0F9CFB0E0A0E0E0E9F1E20C94AD2F4C
:10432000E82FF0E0E25EFC4FD490282F26952695EA
:10433000269530E0F901E254FC4F0491877010E0BB
:10434000082E02C0159507950A94E2F7017011270F
:10435000F901E255FC4FE490F12C082E02C0F594CF
:10436000E7940A94E2F791E0E922FF24F901E2568A
:10437000FC4FC491D0E002C0D595C7958A95E2F76D
:10438000C170DD270115110519F081EE0E94B804F6
:10439000E114F10419F086EE0E94B8048D2D0E94FC
:1043A0004C05E114F10419F086EE0E940105011597
:1043B000110519F081EE0E940105CD2B19F08CE258
:1043C0000E944C05CDB7DEB7E7E00C94C92FEF9201
:1043D000FF920F931F93CF93DF93EC01162F0AE008
:1043E0008881882309F454C0813009F04EC0898146
:1043F000813099F47E0122E0E20EF11C8A810E9454
:104400004C05E7012196812F815050F3EFE9FFE041
:104410003197F1F700C00000F7CF823041F47E0100
:1044200082E0E80EF11C8A810E94B804EACF833052
:1044300041F47E01E2E0EE0EF11C8A810E9401054A
:10444000E0CF843011F02196DDCF2A81229690E0D2
:1044500080E0AE014F5F5F4F2053330B2A303105B0
:1044600048F0019778F2EFE9FFE03197F1F700C0EB
:104470000000F7CF089FB001099F700D1124C901FA
:10448000860F971F2981EA01E4CF0E948A21BACFC3
:10449000CDB7DEB7E6E00C94CA2F0F931F93CF93EE
:1044A000DF93C42FD22FFC0185818823C9F040936C
:1044B000E8020E9478279093E7028093E60280E268
:1044C0008C0F883040F4C77081E001C0880FCA9516
:1044D000EAF70E945505DF91CF911F910F91089542
:1044E0001091E802141332C08091E6029091E70225
:1044F0000E949027883C910548F5C0E2CD0F1D171A
:10450000B9F080E2810F883040F4177081E001C07B
:10451000880F1A95EAF70E945C05C83048F481E0DC
:104520009D2F977001C0880F9A95EAF70E94550554
:10453000802F0E944C05C83070F6D77081E001C012
:10454000880FDA95EAF70E945C05C5CF80E28C0FF0
:10455000883008F6C77081E001C0880FCA95EAF775
:10456000F2CF0F93DB0188519C4787309105A0F56E
:10457000FC01E65BFE4C0C94642F06E221EE41EE5A
:104580006AE17CE7CD010E944D2280E00F91089501
:1045900007E225EE45EE6BE17CE7F4CF06E221EE83
:1045A00040EE68E17CE7EECF07E225EE44EE69E1FC
:1045B0007CE7E8CF06E221EE42EE6CE17CE7E2CF59
:1045C00007E225EE46EE6DE17CE7DCCF08E221E074
:1045D00045EE6EE17CE7D6CF15968C91882319F0D5
:1045E0001092E802D3CF81E0D1CF1F93CF93DF9316
:1045F00087372CE7920759F0C1E088379C47E1F4F0
:10460000FB01C581CC2371F10E94382306C0FB0158
:10461000C581CC23B1F00E9435230E9419080E9465
:104620003B23D82F0E943823C82F0E9435234D2FBB
:104630006C2F0E945009C0E08C2FDF91CF911F9109
:1046400008950E9435230E9425080E943B23182FBD
:104650000E943823D82F0E943523412F6D2F0E94AE
:104660005009EACF0E943823EECF809125010895AA
:1046700080912401089580912301089585E290E0BE
:104680000E948E30843289F486E290E00E948E305F
:10469000813059F487E290E00E948E3091E08930B9
:1046A00009F090E0892F8170089580E0FCCFCF93CE
:1046B000C82F6FEF811164E285E290E00E94B23072
:1046C0006FEFC11161E086E290E00E94B2306FEFBF
:1046D000C11169E087E290E00E94B230CF91089565
:1046E000089588E290E00E948E30682F70E090E09C
:1046F00080E008950895CF93C62F0E947A236C2FEF
:1047000088E290E00E94B230CF91089580E00E944C
:10471000572360E070E0CB010E947B230E94801C45
:104720000E94611D81E00E94572308950E9470231A
:104730000E9471230E947A230E943E23811102C0AD
:104740000E94862308950E949B1908959C01FB01F5
:104750008581882351F0A90157574038510530F41D
:10476000822F0E94711D80E0089581E008952FEF4F
:10477000FC012083089580E00895CF93DF93EC013E
:1047800088818230E9F028F4813071F0DF91CF9197
:1047900008958330F9F08430C9F70E94401489836A
:1047A0000E9443148A83F2CF0E9446142FEF829F07
:1047B000C00111246FEF70E00E941A2F6983E6CFC9
:1047C0000E94DF13882321F00E94D6138983DECF55
:1047D00080E0FCCF0E942314F9CFCF93DF93EC014C
:1047E0008881823021F128F4813069F0DF91CF9106
:1047F0000895833041F18430C9F70E944614482F50
:104800006A81898111C089812FEF829FC0011124A3
:104810006FEF70E00E941A2FD62F0E944314C82F0A
:104820000E9440144D2F6C2F0E94DF15DFCF89812D
:10483000811103C00E949A18D9CF0E9491198981D1
:104840000E944919D3CF89810E943C14CFCFFC012B
:104850009C012E5F3F4F9081983041F0993051F08C
:10486000973059F4C9010E94ED230895C9010E94AF
:10487000BD2308950E94B51308958FEF8083089596
:10488000FC012181223019F40E94272408950E94FE
:10489000B7230895B0E0A0E0E0E5F4E20C94AC2F7B
:1048A000EC01E62E0E94BB23811110C0E881E1508B
:1048B000E531B8F4F0E0EF5AFE4C0C94642F198205
:1048C0008CE08A836E2DCE010E944228CDB7DEB7E0
:1048D000E8E00C94C82F89818230C1F028F481303F
:1048E00061F08FEF8883EECF833099F08430C9F781
:1048F0001A821B821C821D82E5CF0E9484270E949F
:104900006A2F6A837B838C839D83DCCF0E94712313
:10491000F6CF8A81082F10E06E0193E0C90ED11CFA
:104920009CE1F92EF80E0330110560F6802F0E94ED
:104930005F11F60181936F010F5F1F4FF012F3CFEC
:10494000C1CF8981823031F0853059F68A810E9449
:10495000A323B8CF6A817B818C819D810E946A2FBD
:104960000E947B23AFCF4B816A8189810E94E41B27
:104970009827892798279D838C83A4CF2C813D81FC
:104980003227232732274B816A8189810E94061CA6
:1049900099CF0E94801C96CF6E2DCE010E9440249C
:1049A00091CF0E94121D89838DCF0E94141D9827DC
:1049B000892798279A83898385CF6B8170E08981C5
:1049C0009A81AE014C5F5F4F9827892798270E94F4
:1049D000171D78CF6B8170E089819A81AE014C5FA1
:1049E0005F4F9827892798270E943C1D6BCF0E9414
:1049F000611D68CF0E94D21BD6CF6B8170E0898188
:104A00009A81AE014C5F5F4F9827892798270E94B3
:104A1000B61C58CF6B8170E089819A81AE014C5FE2
:104A20005F4F9827892798270E94D91C4BCF41E0D8
:104A30008B81811101C040E06A8189810E94221C22
:104A400097CF2C813D8132272327322741E08B816C
:104A5000811101C040E06A8189810E94551C32CFDA
:104A60009093EE028093ED020895E091ED02F091B3
:104A7000EE02309729F00190F081E02D099508951C
:104A800080E00895E091ED02F091EE02309721F080
:104A90000280F381E02D09950895E091ED02F091F7
:104AA000EE02309739F026E0DC012C930480F5818A
:104AB000E02D09950895E091ED02F091EE02309716
:104AC00039F022E0DC012C930680F781E02D099576
:104AD0000895A3E0B0E0EFE6F5E20C94B22F209148
:104AE000EB023091EC0228173907A1F09093EC0209
:104AF0008093EB02E091ED02F091EE02309751F0DD
:104B000023E029839B838A830084F185E02DCE01F5
:104B1000019609952396E2E00C94CE2FA3E0B0E035
:104B2000E4E9F5E20C94B22F2091E9023091EA0217
:104B300028173907A1F09093EA028093E902E091E7
:104B4000ED02F091EE02309751F024E029839B832F
:104B50008A830084F185E02DCE0101960995239684
:104B6000E2E00C94CE2F20910601309107012E5FD8
:104B70003F4F80913001882379F08091FB0287FFBD
:104B80000BC020910401309105012E5F3F4F9EE143
:104B900080E0915018F4089596E0FACFF901419120
:104BA0009F014423B1F38F5FF4CF882321F19091CB
:104BB0003001992311F19091FB0297FF1EC0E82F5D
:104BC000E695E695E695EE31B0F42091040130913A
:104BD0000501E20FF32FF11D228130E0877041E0E3
:104BE00050E002C0440F551F8A95E2F72423352375
:104BF00081E0232B91F480E008952091060130910B
:104C00000701F9013296285F3F4F9191981721F0E3
:104C1000E217F307D1F7EFCF81E008959C01FC0183
:104C200032969FEF80E04191461751F09F3F19F473
:104C3000411101C0982F8F5F8630A9F79F3F09F47B
:104C40000895290F311D97FD3A95F9016283089562
:104C5000FC01329608962191261303C0DF011197BB
:104C60001C92E817F907B9F70895E62FE695E6953F
:104C7000E695EE3168F4E80FF92FF11D677021E039
:104C800030E001C0220F6A95EAF78281822B82838D
:104C90000895E62FE695E695E695EE3170F4E80F77
:104CA000F92FF11D677021E030E001C0220F6A95F5
:104CB000EAF720958281282322830895682F809126
:104CC0003001882359F08091FB0287FF07C0809153
:104CD0000401909105010E943526089580910601F6
:104CE000909107010E940E260895682F809130014F
:104CF000882359F08091FB0287FF07C0809104014F
:104D0000909105010E944926089580910601909195
:104D100007010E942826089580913001882379F0A8
:104D20008091FB0287FF0BC0E0910401F091050127
:104D300032968EE1DF011D928A95E9F70895E091A0
:104D40000601F0910701329686E0F4CFDC01FB0109
:104D500011969C9111978181981322C012968C9183
:104D60001297882319F0928189131AC013968C9197
:104D70001397882319F09381891312C015968C918B
:104D80001597882319F0958189130AC014969C9170
:104D9000992321F081E02481291303C080E001C020
:104DA00081E08170089508950E94D32608958111AD
:104DB00006C081E08093EF020E94D426089582E02D
:104DC000F9CF83E08093EF020E94D42608950E94D9
:104DD000D726089581E08093EF020E94D42608959B
:104DE0000E94EA260895089508950E94F4260895E1
:104DF000089508950E94F3260895CF930E94F826FF
:104E00000E940F120E94F926C0E08C2F0E945F11B1
:104E1000811105C0CF5FC330C1F7CF91089581E004
:104E2000FCCF85B7806885BF85B7806885BF08954A
:104E30001F921FB61F9211248F939F93AF93BF931E
:104E40008091F002811113C0809117039091180393
:104E5000A0911903B0911A034196A11DB11D809331
:104E6000170390931803A0931903B0931A03BF91EB
:104E7000AF919F918F911F901FBE1F9018958091A9
:104E80001F03843031F10E9428041092F00288E15F
:104E900090E020E40FB6F894A895809360000FBED0
:104EA0002093600083B7817F846083BF83B7816074
:104EB00083BF7894889583B78E7F83BF0FB6F894AD
:104EC000A8958091600088618093600010926000D6
:104ED0000FBE08950E94A1070E942F04089582E04A
:104EE00084BD93E095BD9AEF97BD80936E000895C1
:104EF0002FB7F8948091170390911803A09119038C
:104F0000B0911A032FBF08952FB7F894609117033B
:104F1000709118038091190390911A032FBF08957F
:104F20009C014FB7F8948091170390911803A091BA
:104F30001903B0911A034FBF821B930B0895789405
:104F40001F921FB61F9211248F939F93AF93BF930D
:104F50008091170390911803A0911903B0911A033F
:104F60000196A11DB11D8093170390931803A09380
:104F70001903B0931A03BF91AF919F918F911F9026
:104F80001FBE1F90189581E08093E00080E280931F
:104F9000D8001092C9008FE19EE40197F1F700C09C
:104FA000000087E090EBDC018093280390932903B5
:104FB000A0932A03B0932B0388E19CE00FB6F894EA
:104FC000A895809360000FBE90936000FFCF88E1AA
:104FD0009CE00FB6F894A895809360000FBE909364
:104FE0006000FFCF8091F90208959B01BA01909172
:104FF0001F039430E9F48F708093E9009FEF809154
:10500000E800915085FD06C085ED8A95F1F7000016
:105010009111F5CF8091E80085FF0AC050E040E093
:10502000C9010E94382A8091E8008E778093E800B9
:10503000089543E050E0BC0184E00E94F527089504
:1050400046E050E0BC0184E00E94F527089540E26C
:1050500050E0BC0184E00E94F5270895CF93DF93D0
:10506000EC0148E050E0BC0181E00E94F52788E0B7
:10507000FE01A1EFB2E001900D928A95E1F7DF9178
:10508000CF910895603231F440E250E0BC0182E0FB
:105090000E94F527089580911E03811109C00E9486
:1050A000172C0E94742C8091E20084608093E200AF
:1050B000089510921E0308950E94EA2608956091B3
:1050C0001B0381E0611101C080E00E94E126089588
:1050D00090911F0381E0943009F080E060911B0300
:1050E0000E94E726089542E061EC81E00E94932B44
:1050F00042E261EC84E00E94932B42E261EC82E0A8
:105100000E94932B42E260EC83E00E94932B9091EB
:105110001F0381E0943009F080E060911B030E943E
:10512000D726089580912103833009F463C030F4B9
:105130008130E1F1823009F4A0C008958A3009F489
:105140008CC08B3009F471C0893009F052C0809155
:105150002003813209F04DC08091240390912503F2
:10516000009719F0029709F044C08091E800877F0A
:105170008093E8008091E80082FF37C09091F300AF
:105180008091F200029731F48091F100813011F0AA
:10519000863021F48091F1008093F9028091E8003B
:1051A0008B778093E8000E94C72B23C08091200357
:1051B000813AF9F48091E800877F8093E80080913C
:1051C000240390912503892B61F468E081EF92E03C
:1051D00070E00E94D62A8091E8008B778093E800E7
:1051E000089560E090E080E0F3CF80911F0381118B
:1051F000C1CF089580912003813AD9F7809124038B
:1052000090912503892BA9F78091E800877F8093EF
:10521000E8008091E80080FFFCCF8091300180930E
:10522000F1008091E8008E77BCCF8091200381321D
:1052300001F78091240390912503892BD1F6809169
:10524000E800877F8093E8000E94C72B80912203AB
:10525000809330010E94A10708958091200381323C
:1052600041F68091E800877F8093E8000E94C72B79
:10527000809123038093FA02089580912003813A5C
:1052800009F0B7CF8091E800877F8093E800809194
:10529000E80080FFFCCF8091FA02C1CF84B7877FFE
:1052A00084BF0FB6F894A8958091600088618093C0
:1052B0006000109260000FBE80E890E00FB6F89496
:1052C00080936100909361000FBE0E94F0260895C4
:1052D0000E94172C0E94742CE2EEF0E08081846022
:1052E000808378940E94F32E089586E291E00E94D4
:1052F0003025089580911F03853031F480911F037C
:10530000853019F00E946A2708950E943F278091F6
:105310001D03882399F30E94FD26882379F30E94B8
:10532000222A0E94A107EACFA0E2B0E0EAE9F9E26E
:105330000C94B22F80911F03843009F583E0809391
:10534000E9008091E80082FF1AC08091E80090E0B7
:1053500085FF09C050E040E060E270E0CE010196B8
:105360000E94872A91E08091E8008B778093E80083
:10537000992329F060E2CE0101960E944A24A0966A
:10538000E2E00C94CE2F9A0140912603509127031E
:105390000E94CB290895492F55274330510521F10B
:1053A00068F44130510509F443C04230510509F415
:1053B00044C090E080E050E040E026C0413251051A
:1053C00051F142325105A9F76330710590F7FB01A5
:1053D000EE0FFF1FE951FE4F408151816C517E4F0E
:1053E000FB01808190E010C099278130910581F008
:1053F000009729F00297E9F6EEECF3E002C0E4E052
:10540000F4E0849190E0AF01F90151834083089565
:10541000E4EEF3E0F6CF6330710558F6660F771FC0
:10542000FB01E351FE4F4081518189E090E0ECCFD8
:1054300082E190E043E654E0E7CF8BE590E048E07E
:1054400054E0E2CF80E189BD82E189BD09B400FE6C
:10545000FDCF8091D8008F7D8093D8008091E000AF
:1054600082608093E0008091E00081FDFCCF089590
:10547000AF92BF92CF92DF92FF920F931F93CF9381
:10548000DF936C01EB018A010E94E62BF82E81115B
:1054900023C00115110539F0F80180819181C81BE5
:1054A000D90BC80ED91EB12CA12C2097A9F0809140
:1054B000E80085FD22C08091E8008E778093E800A7
:1054C00001151105A1F0F80180819181A80EB91E86
:1054D000B182A08285E0F82E8F2DDF91CF911F91B0
:1054E0000F91FF90DF90CF90BF90AF9008950E94F2
:1054F000E62B8823D1F2F82EEFCFF60181916F01D0
:105500008093F1002197FFEFAF1ABF0ACECFAF9281
:10551000BF92CF92DF92FF920F931F93CF93DF93AF
:105520006C01EB018A010E94E62BF82E811123C049
:105530000115110539F0F80180819181C81BD90B43
:10554000C80ED91EB12CA12C2097A9F08091E8009B
:1055500085FD22C08091E8008B778093E8000115DB
:105560001105A1F0F80180819181A80EB91EB182C8
:10557000A08285E0F82E8F2DDF91CF911F910F91A2
:10558000FF90DF90CF90BF90AF9008950E94E62BE0
:105590008823D1F2F82EEFCF8091F100F6018193AC
:1055A0006F012197FFEFAF1ABF0ACECFFC018091A8
:1055B00026039091270386179707A0F061157105C0
:1055C00029F49091E8009E779093E80090E06115AF
:1055D000710551F4911108C08091E80082FF34C038
:1055E00080E00895BC01F2CF80911F038823C1F1B0
:1055F0008530C1F18091E80083FD30C08091E800E2
:1056000082FDEACF8091E80080FFE1CF8091F30036
:105610002091F200382F6115710519F028303105FD
:1056200058F091E02830310509F090E02091E80031
:105630002E772093E800CBCF81918093F1006150C9
:1056400071092F5F3F4FE7CF80911F03882341F0FF
:10565000853041F08091E80083FFBECF81E008955E
:1056600082E0089583E00895FC01809126039091E3
:10567000270386179707A0F06115710529F480911B
:10568000E8008E778093E80090E06115710551F491
:10569000911108C08091E80082FF35C080E0089534
:1056A000BC01F2CF80911F038823C9F18530C9F175
:1056B0008091E80083FD31C08091E80082FDEACF4F
:1056C0008091E80080FFE1CF8091F3002091F2000B
:1056D000382F6115710519F02830310558F091E027
:1056E0002830310509F090E08091E8008E778093B2
:1056F000E800CBCF84918093F1003196615071091D
:105700002F5F3F4FE6CF80911F03882341F0853004
:1057100041F08091E80083FFBDCF81E0089582E0F1
:10572000089583E00895982F973028F08F70809324
:10573000E90081E008959093E900242F762F50E04E
:10574000981731F07091EC002091ED005091F0002D
:1057500021FD02C09F5FE8CF3091EB003E7F309388
:10576000EB003091ED003D7F3093ED003091EB0088
:1057700031603093EB007093EC002093ED00509378
:10578000F0002091EE0027FDE5CF80E008958091A4
:10579000200387FF13C08091E80082FF06C080913C
:1057A000E8008B778093E80004C080911F0381118B
:1057B000F2CF089580911F038823D9F38091E800E8
:1057C00080FFF8CF8091E8008E77ECCF2091E40045
:1057D0003091E50095E6A9012091EC00822F8170BF
:1057E00020FF06C08091E80080FF06C080E0089599
:1057F0002091E80022FD1AC080911F03882389F0C0
:10580000853089F08091EB0085FD0FC02091E40088
:105810003091E50042175307F9F29150E1F684E028
:10582000089582E0089583E0089581E008950E943C
:10583000862C0E948E2CE0EEF0E0808181608083D7
:10584000E8EDF0E080818F77808319BCA7EDB0E0B0
:105850008C918E7F8C9380818F7E808310921E032B
:1058600008950F931F93CF93DF930E94862C0E947D
:105870008E2CC8EDD0E088818F77888388818068FE
:10588000888388818F7D888319BC10921F031092B2
:105890001B0310921D0310921C0300EE10E0F80190
:1058A00080818B7F808388818160888342E060E093
:1058B00080E00E94932BE1EEF0E080818E7F808378
:1058C000E2EEF0E080818160808380818860808367
:1058D000F80180818E7F8083888180618883DF9159
:1058E000CF911F910F910895E8EDF0E080818F7EB8
:1058F0008083E7EDF0E080818160808384E082BF77
:1059000081E080931E030E94312C0895E8EDF0E0C1
:1059100080818E7F80831092E20008951092DA00D9
:105920001092E10008951F920F920FB60F9211246A
:105930002F933F934F935F936F937F938F939F9397
:10594000AF93BF93EF93FF938091E10082FF0BC071
:105950008091E20082FF07C08091E1008B7F8093FD
:10596000E1000E94F22E8091DA0080FF19C0809140
:10597000D80080FF15C08091DA008E7F8093DA0016
:105980008091D90080FF96C080E189BD82E189BD08
:1059900009B400FEFDCF81E080931F030E944B28D5
:1059A0008091E10080FF19C08091E20080FF15C066
:1059B0008091E2008E7F8093E2008091E20080611E
:1059C0008093E2008091D80080628093D80019BC57
:1059D00085E080931F030E945F288091E10084FF8F
:1059E0002BC08091E20084FF27C080E189BD82E165
:1059F00089BD89B5982F917080FFFBCF8091D80029
:105A00008F7D8093D8008091E1008F7E8093E100AC
:105A10008091E2008F7E8093E2008091E2008160BD
:105A20008093E20080911B03882309F449C084E03D
:105A300080931F030E9468288091E10083FF29C0A2
:105A40008091E20083FF25C08091E100877F8093F1
:105A5000E10082E080931F0310921B038091E1001C
:105A60008E7F8093E1008091E2008E7F8093E20040
:105A70008091E20080618093E20042E060E080E09B
:105A80000E94932B8091F00088608093F0000E9428
:105A90005C28FF91EF91BF91AF919F918F917F9182
:105AA0006F915F914F913F912F910F900FBE0F908B
:105AB0001F90189519BC10921F030E94592870CF8F
:105AC0008091E30087FD93E090931F03B3CF1F9273
:105AD0000F920FB60F9211242F933F934F935F9322
