:100000000C9404060C943C060C943C060C943C06A0
:100010000C943C060C943C060C943C060C943C0658
:100020000C943C060C943C060C9473170C94A11B86
:100030000C94B0270C943C060C943C060C943C06A3
:100040000C943C060C943C060C943C060C943C0628
:100050000C943C060C944C180C943C060C943C06F6
:100060000C943C060C943C060C943C060C943C0608
:100070000C943C060C943C060C943C060C943C06F8
:100080000C943C060C943C060C943C060C943C06E8
:100090000C943C060C943C060C943C060C943C06D8
:1000A0000C943C060C943C060C943C060501090299
:1000B000A10185020901A1000509190129081500FE
:1000C0002501950875018102050109300931158165
:1000D000257F95027508810609381581257F9501D0
:1000E00075088106050C0A38021581257F95017572
:1000F000088106C0C005010980A101850319012AF4
:10010000B700150126B700950175108100C0050CD8
:100110000901A101850419012AA002150126A002E6
:10012000950175108100C005010906A1018506052C
:100130000719E029E71500250195087501810205D9
:1001400007190029EF1500250195F07501810205B9
:10015000081901290595057501910295017503910D
:1001600001C00660FF0961A1010962150026FF00B8
:100170009520750881020963150026FF00952075FA
:10018000089102C005010906A101050719E029E748
:1001900015002501950875018102950175088101F9
:1001A0000507190029FF150026FF0095067508812F
:1001B000000508190129051500250195057501910E
:1001C00002950175039101C00000000000000000CD
:1001D000000000000000000000000000000000001F
:1001E0000000000000000000000000007E0F00D4AE
:1001F000FFFFFFC7000000780000000000000000C3
:100200002A2B280000000000000000000000000071
:1002100000000029000000002C1E3420212224347C
:100220002627252E362D3738271E1F20212223244E
:1002300025263333362E37381F0405060708090AEA
:100240000B0C0D0E0F101112131415161718191A86
:100250001B1C1D2F3130232D350405060708090A04
:100260000B0C0D0E0F101112131415161718191A66
:100270001B1C1D2F3130354C00DA0281FFD9F1DB18
:1002800020A4A62EAF00A0C0D30000A1C8D30000B8
:10029000AED580A81F408D1420001E0F0500047FDE
:1002A0003F1F643214643214783C1E1E140A050089
:1002B0000101010101010101010202020202020227
:1002C00002020303030303030303040404040404FA
:1002D00004050505050506060606060707070707C0
:1002E00008080808090909090A0A0A0B0B0B0C0C73
:1002F0000C0D0D0D0E0E0E0F0F0F1010111111120F
:100300001213131414151516161717181819191A8D
:100310001A1B1B1C1D1D1E1E1F20202122222324F0
:1003200024252626272829292A2B2C2D2D2E2F302F
:10033000313232333435363738393A3B3C3D3E3F43
:10034000404142434445464748494A4C4D4E4F5030
:10035000515354555658595A5B5D5E5F61626465EE
:100360006668696B6C6D6F7072737577787A7B7D78
:100370007E8082838587888A8C8E8F9193959698CC
:100380009A9C9EA0A2A3A5A7A9ABADAFB1B3B5B7E8
:10039000BABCBEC0C2C4C6C9CBCDCFD1D4D6D8DBBF
:1003A000DDDFE2E4E7E9EBEEF0F3F5F8FAFDFFFF5D
:1003B000AA7F55402223252628292A2C2D2F30328A
:1003C000333536383A3B3D3E4042434547494A4C37
:1003D0004E5051535557595A5C5E60626466686965
:1003E0006B6D6F71737577797B7D7F81838587896D
:1003F0008A8C8E90929496989A9C9E9FA1A3A5A772
:10040000A8AAACAEAFB1B3B4B6B8B9BBBCBEBFC19D
:10041000C2C3C5C6C7C9CACBCCCDCED0D1D2D2D328
:10042000D4D5D6D7D7D8D9D9DADADBDBDBDCDCDC3C
:10043000DCDCDDDDDDDDDCDCDCDCDCDBDBDBDADAFF
:10044000D9D9D8D7D7D6D5D4D3D2D2D1D0CECDCC76
:10045000CBCAC9C7C6C5C3C2C1BFBEBCBBB9B8B68B
:10046000B4B3B1AFAEACAAA8A7A5A3A19F9E9C9A16
:1004700098969492908E8C8A89878583817F7D7BE4
:1004800079777573716F6D6B6968666462605E5CC5
:100490005A5957555351504E4C4A4947454342408B
:1004A0003E3D3B3A3836353332302F2D2C2A292821
:1004B0002625232200AF00AE00000103060C1831F0
:1004C00023664444C4C484848484C4C444466623E8
:1004D00011180C06030000001F78C10F38E0C0009F
:1004E00000020E0E8EC6C04040C0C68E0E0E020028
:1004F00080C060380FC07C0FF81EC3F85C767B6D3F
:10050000755555756D7B765E7E775B6D755555754A
:100510004D7B665CF0C33EF0000080C06030180C7C
:10052000040682C34361A1A1A1A16143C382060461
:100530000C183060C080000020202000534352205F
:1005400000202020004341502000202020004E5554
:100550004D20005374617475733A20004E2F412072
:100560002020005468726565200054776F20202099
:10057000004F6E65202020005A65726F2020004CCD
:10058000617965723A2000546865204D6164204E9F
:100590006F6F646C6500000000000000A800AE00F2
:1005A000AC00AB00AF007A00B200B100B3007C0039
:1005B0007B007D00035200000000000020782678B8
:1005C000257824782378217822782B782C782E7837
:1005D0002A78297800520000000000000000000086
:1005E000000000000000000000000000000000000B
:1005F0000000000000520000000000000000015256
:100600000252000000000000000000000000000096
:10061000000000000052A900AA00277828784F00A7
:1006200050005200510009025B00030100A0FA09CA
:10063000040000010301010009211101000122440D
:1006400000070581030800010904010002030000FE
:100650000009211101000122220007058203200068
:100660000107050303200001090402000103000043
:100670000009211101000122B600070584032000B2
:100680000112010002000000086C6A120000010162
:100690000200010E03550064006F006E003100334C
:1006A0000000001E0354006800650020004D00613A
:1006B00000640020004E006F006F0064006C006555
:1006C0000000000403090407087F0807003E5B4F91
:1006D0005B3E003E6B4F6B3E001C3E7C3E1C001898
:1006E0003C7E3C18001C577D571C001C5E7F5E1C26
:1006F0000000183C180000FFE7C3E7FF00001824C3
:10070000180000FFE7DBE7FF0030483A060E00263E
:100710002979292600407F05050700407F05253FF0
:10072000005A3CE73C5A007F3E1C1C0800081C1C79
:100730003E7F0014227F2214005F5F005F5F00068F
:10074000097F017F00006689956A006060606060D3
:100750000094A2FFA2940008047E04080010207EEA
:1007600020100008082A1C0800081C2A0808001E7F
:1007700010101010000C1E0C1E0C0030383E3830CB
:1007800000060E3E0E060000000000000000005FA4
:10079000000000000700070000147F147F140024ED
:1007A0002A7F2A120023130864620036495620501B
:1007B00000000807030000001C2241000000412245
:1007C0001C00002A1C7F1C2A0008083E08080000A4
:1007D0008070300000080808080800000060600011
:1007E000002010080402003E5149453E0000427FAF
:1007F0004000007249494946002141494D330018E3
:1008000014127F10002745454539003C4A494931BB
:100810000041211109070036494949360046494936
:10082000291E0000001400000000403400000000F9
:100830000814224100141414141400004122140856
:10084000000201590906003E415D594E007C12111B
:10085000127C007F49494936003E41414122007FD8
:100860004141413E007F49494941007F0909090151
:10087000003E41415173007F0808087F0000417F1E
:100880004100002040413F01007F08142241007FC9
:1008900040404040007F021C027F007F0408107F20
:1008A000003E4141413E007F09090906003E415199
:1008B000215E007F09192946002649494932000373
:1008C000017F0103003F4040403F001F2040201FA8
:1008D000003F4038403F006314081463000304786D
:1008E0000403006159494D4300007F41414100022A
:1008F0000408102000004141417F0004020102046D
:1009000000404040404000000307080000205454CD
:100910007840007F28444438003844444428003854
:100920004444287F0038545454180000087E0902BB
:100930000018A4A49C78007F080404780000447D7B
:100940004000002040403D00007F1028440000008F
:10095000417F4000007C04780478007C080404781F
:1009600000384444443800FC182424180018242477
:1009700018FC007C08040408004854545424000463
:10098000043F4424003C4040207C001C2040201CAC
:10099000003C4030403C004428102844004C9090DB
:1009A000907C004464544C44000008364100000030
:1009B0000077000000004136080000020102040236
:1009C000003C2623263C0000000000000040404080
:1009D000F0F8F8FF38FFF8F83FF8F8FF38FFF8F8BC
:1009E000F040404000000000000080C0C0C0800017
:1009F00000C0C08000000080C0C000C0C0000080F7
:100A0000C0C00000000000C0C0C0C0C000C0C00026
:100A100000000000000000000000000000000000D6
:100A200000000000000000000000000000000000C6
:100A300000000000000000000000000000000000B6
:100A4000000000000000C0F0F8FC3E1E060100009F
:100A5000007F4141417F007F4141417F000080C0D4
:100A6000E07E5B4F5BFEC00000C000DCD7DEDEDE58
:100A7000D7DC00C000000000000000000000000003
:100A8000000000000000000000000000004949498B
:100A9000FFFFFFFFE0DFBFBF00BFBFDFE0FFFFFFE3
:100AA000FF49494900000000001F3F6060E0BF1F90
:100AB000007F7F071E381E077F7F007F7F0E1F3B52
:100AC000716000000000007F7F0C0C0C007E7E0037
:100AD0007F7E0303007F7E03037E7E03037F7E0011
:100AE0000F3E703C063C703E0F00327B49493F7E12
:100AF000007F7E0303001E3F69696F26000000002F
:100B0000000000000000030F1F3F3C7870600000F1
:100B1000007F4141417F007F4141417F00307B7F29
:100B20007830202030787F3B0003000F7F0F0F0FBD
:100B30007F0F000300000000000000000000000024
:100B400000000000000000000000000000010101A2
:100B5000070F0F7F0F7F0F0F7E0F0F7F0F7F0F0F7E
:100B60000701010100000000000000000000010179
:100B70000000000000000000000000000000000075
:100B80000000000000000000000000000000000065
:100B90000000000000000000000000000000000055
:100BA0000000000000000000000000000000000045
:100BB0000000000000000000000000000000000035
:100BC0000000000000000000000000000000000025
:100BD0000000000000000000000000000000000015
:100BE0000000000000000000000000000000000005
:100BF00000000000000000000000000000000000F5
:100C0000000000000000000011241FBECFEFDAE05A
:100C1000DEBFCDBF04B603FE18C0809120059091C1
:100C20002105A0912205B09123058730904BA74064
:100C3000B04B59F410922005109221051092220514
:100C400010922305E0E0F8E3099525E0A8EBB1E078
:100C500001C01D92A032B207E1F711E0A0E0B1E0BF
:100C6000EAECF3E602C005900D92A83BB107D9F774
:100C70000E94D7270C947A310C940000CF93DF9315
:100C800040911E0550911F054E5153409A01205E20
:100C90003F4F21303240C0F020E032E0241B350BC2
:100CA00060911C0370911D03FC01CA01240F351FC4
:100CB000C1E0D0E08217930750F070931D0360935A
:100CC0001C03DF91CF91089520E230E0E9CF4491F9
:100CD000DC01A25EBC4F5C91451781F04C93AC01E6
:100CE000A5E056954795AA95E1F7DE0102C0AA0F47
:100CF000BB1F4A95E2F7AD016A2B752B0196319621
:100D0000D9CF482F209111039091D80257E0291391
:100D100002C080E0089530E0529FF001539FF00D33
:100D20001124E752FD4F8181681306C0808148136A
:100D300003C085818111EECF2F5F3F4F2770E7CF32
:100D4000E8EDF0E080818E7F80831092E2001092C7
:100D5000DA001092E100A0EEB0E08C9181608C93FB
:100D600080818F77808319BCA7EDB0E08C918E7F56
:100D70008C9380818F7E80831092C1020895209190
:100D8000E4003091E50095E6A9012091EC00822F66
:100D9000817020FF06C08091E80080FF06C080E0DF
:100DA00008952091E80022FD1AC08091CE02882388
:100DB00089F0853089F08091EB0085FD0FC020918E
:100DC000E4003091E50042175307F9F29150E1F643
:100DD00084E0089582E0089583E0089581E0089515
:100DE0008091D00287FF13C08091E80082FF06C087
:100DF0008091E8008B778093E80004C08091CE0258
:100E00008111F2CF08958091CE028823D9F3809189
:100E1000E80080FFF8CF8091E8008E77ECCF982F24
:100E20009093E900242F762F50E0891731F07091CC
:100E3000EC002091ED005091F00021FD07C09F5F74
:100E4000973071F78093E90081E008953091EB00CD
:100E50003E7F3093EB003091ED003D7F3093ED000D
:100E60003091EB0031603093EB007093EC002093F5
:100E7000ED005093F0002091EE0027FDE0CF80E0E0
:100E80000895B0E0A0E0E7E4F7E00C94932FC8EDFC
:100E9000D0E088818F7E8883E7EDF0E080818160FB
:100EA000808384E082BF81E08093C10288818E7F4D
:100EB000888302EE10E0F80110821092DA0081EED1
:100EC000C82ED12CF601108288818F778883888183
:100ED0008068888388818F7D888319BC1092CE02B8
:100EE0001092CF021092CD021092CC0290EEE92E19
:100EF000F12CF70180818B7F8083888181608883DA
:100F000042E060E080E00E940F07F60180818E7F62
:100F10008083F80180818160808380818860808304
:100F2000F70180818E7F8083888180618883CDB73F
:100F3000DEB7E8E00C94AF2FFC018091D6029091CF
:100F4000D70286179707A0F06115710529F49091D3
:100F5000E8009E779093E80090E06115710551F4E8
:100F6000911108C08091E80082FF34C080E00895AC
:100F7000BC01F2CF8091CE028823C1F18530C1F14E
:100F80008091E80083FD30C08091E80082FDEACFC7
:100F90008091E80080FFE1CF8091F3002091F20082
:100FA000382F6115710519F02830310558F091E09E
:100FB0002830310509F090E02091E8002E77209349
:100FC000E800CBCF81918093F100615071092F5FD0
:100FD0003F4FE7CF8091CE02882341F0853041F02A
:100FE0008091E80083FFBECF81E0089582E00895FC
:100FF00083E008958091C30208952FB7F89460911B
:10100000BD027091BE028091BF029091C0022FBFBD
:101010000895909123019923D1F09091BA0297FFFE
:1010200016C0E82FE695E695E695EE31E0F4F0E09F
:10103000EE53FE4F282F277081E090E001C0880F0B
:101040002A95EAF780959281892382830895ECEBB3
:10105000F1E09191891303C0DF0111971C9291E097
:10106000E23CF907B1F70895909123019923C1F06B
:101070009091BA0297FF14C0E82FE695E695E695A1
:10108000EE31F8F4F0E0EE53FE4F877021E030E0EF
:1010900001C0220F8A95EAF78281822B828308950C
:1010A000ACEBB1E0EFEF90E02D91821751F0EF3F04
:1010B00019F4211101C0E92F9F5F9630A9F7EF3F86
:1010C00009F408950E2E000CFF0BE654FE4FE6CFF8
:1010D000A3E0B0E0EEE6F8E00C94992F2091B8027E
:1010E0003091B90228173907A1F09093B902809383
:1010F000B802E091B602F091B702309751F024E0C7
:1011000029839B838A830084F185E02DCE0101969B
:1011100009952396E2E00C94B52FA3E0B0E0E3E953
:10112000F8E00C94992F2091B4023091B502281761
:101130003907A1F09093B5028093B402E091B60212
:10114000F091B702309751F023E029839B838A8383
:101150000084F185E02DCE01019609952396E2E009
:101160000C94B52FE091B602F091B702309729F0B8
:101170000190F081E02D0995089580E00895809117
:10118000A90280FD16C081FD16C082FD16C08091A7
:10119000A8028823A1F0883280F428E0829FC00151
:1011A000112468E270E00E94DA2F862F672B39F055
:1011B000089582E0089584E0089588E0089581E02C
:1011C00008958091A90280FD14C081FD14C082FDA4
:1011D00016C08091A702882381F08E3180F420E52B
:1011E000829FC00111246EE170E00E94DA2F862FE9
:1011F000089584E1089588E2089588E0089580E5DF
:101200000895282F35EB2303C001112497FF04C054
:1012100080589109892F089580589F4FFBCF2091C6
:10122000150336E0839FC0011124629F800D911D3C
:101230001124811522E0920714F090E080E0825E94
:101240009C4F90931F0580931E050895FA0181110C
:1012500001C0FB0109950895089580917602982FA9
:101260009C7F29F4837084608093760208958C3A81
:10127000E8F38370886AF8CFAF92BF92DF92EF9263
:10128000FF920F931F93CF93DF93082F162FE9013F
:10129000E42FF0E0E155FD4F611110C0E4915E2FA5
:1012A0004E2F4983E8835A83DF91CF911F910F918D
:1012B000FF90EF90DF90BF90AF900895E62EF12C55
:1012C0004491D42EE42FF0E026E0829FC001112447
:1012D0002FEF30E0B9010E94752F802F90E0880F2A
:1012E000991F55E5569FD001579FB00D11248A1BB9
:1012F0009B0B982F990F890F5901AE18BF08AE9E0E
:10130000D001AF9EB00DBE9EB00D11245B2F189F73
:1013100080011124012F11275901A01AB10AAE9E94
:101320008001AF9E100DBE9E100D11245901A81A08
:10133000B108AE9CC001AF9C900DBE9C900D1124D5
:10134000892F9927281B390B2E9FC0012F9F900DA5
:101350003E9F900D1124E92F62307105A1F050F4E9
:101360006115710509F49DCF6130710581F0EB2F96
:10137000512F97CF6430710569F080F066307105A8
:1013800009F48FCFF4CFE42F4B2F592F8ACFE42FBE
:10139000412F87CFEB2F542F492F83CF4B2F5D2D1C
:1013A000E12F7FCF80E00895F894E82FE295EF7069
:1013B000F0E031A1282F2F7081E090E001C0880F6C
:1013C0002A95EAF7982F9095932391A392A1892BC0
:1013D00082A3789408959091BA0292FF10C041E0E0
:1013E000282F2471243009F040E031E0282F2871A3
:1013F000283009F030E0431711F02CE0822793FFEA
:1014000010C041E0282F2471243109F040E031E080
:10141000282F2871283109F030E0431711F02CE013
:1014200082273091BB0230FF10C051E0282F21717C
:10143000213009F050E041E0282F2871283009F0D0
:1014400040E0541711F029E0822731FF10C041E03D
:10145000282F2171213109F040E031E0282F287137
:10146000283109F030E0431711F029E0822794FD7C
:10147000877E089582389105B9F1B0F481339105E2
:1014800009F47DC048F48932910509F46DC08A32AF
:10149000910509F47BC008958533910509F45FC077
:1014A0008933910509F10895833E9105D9F138F406
:1014B000803E910529F1823E910579F10895863E9D
:1014C0009105D9F1873E910509F43EC0843E91050E
:1014D00041F52091BB0221FF24C08091BA0284FD16
:1014E00019C087EE90E008952091BA02237009F0A8
:1014F0005AC02091BB0223FF14C089E290E00895F6
:101500002091BA0220FD38C03091BB0230FF09C0E3
:1015100024FF43C090E080E008952091BA0222FDAC
:10152000F7CF08952091BA0222FD3AC03091BB0254
:1015300030FD39C024FFF5CFEDCF2091BA0223FF53
:10154000F0CF24FDE7CFCDCF2091BA0223FD2EC0EE
:101550003091BB0231FFEECF84EE90E008952091F0
:10156000BA0225FFDECFC9CF2091BA0225FD21C0E6
:101570002091BB0223FFD5CF89E390E0D2CF209109
:10158000BA0226FFCECF8AE290E008952091BA02F7
:1015900026FFC7CF81E390E0089583EE90E00895A1
:1015A00082EE90E0089580EE90E0089586EE90E05F
:1015B000089585E390E008951F93CF93DF930E94F1
:1015C0003A0AEC01C11580E5D807F0F5C11580E4B1
:1015D000D80708F09CC0C03ED10520F5CD3CD10510
:1015E00008F082C0C83AD10578F4C53AD10508F0B0
:1015F00073C0C130D10519F1209709F1C430D1056C
:10160000F0F4D0E0C0E01BC0C33CD105D0F7C85A0D
:10161000D0E0CC0FDD1FC95DDE4F0990D881C02D11
:10162000D4640DC0C11580E2D80708F0D1C0C1153F
:1016300081E0D80708F05AC0C83ED10510F7CE01A6
:10164000DF91CF911F910895C03682E5D80718F534
:10165000C03482E5D80708F06BC0C03282E5D807F5
:1016600008F05FC0C11582E5D80708F497C02C2F99
:101670002695269580E2289F900111248C2F837057
:10168000C1E0D0E002C0CC0FDD1F8A95E2F7C22B8B
:10169000D32BDD68D4CFC03A82E5D80760F4C038D8
:1016A00082E5D80708F459C0CF71D0E0DC2FCC27F1
:1016B000C46FD06AC4CFC03C82E5D80708F462C0CA
:1016C000C03E82E5D80708F09CCFDC2FCC27CC2782
:1016D000DF71C06FD06AB3CFC55AD0E0CC5DDE4FAA
:1016E000C881D0E0D064ABCFD065A9CF8D2F0E9448
:1016F000EB09182FCE0199270E943A0AC12FD0E09A
:10170000DC2FCC27CC27DF71C82BD92B98CFCE016B
:1017100099270E943A0ACC27DF70C82BD92BD06AB0
:101720008ECFCF71D0E0DC2FCC27C16FD06A87CFAE
:101730002C2F26952695277080E2289F9001112452
:101740008C2F8370C1E0D0E002C0CC0FDD1F8A95E2
:10175000E2F7C22BD32BDC6872CF2C2F269526956F
:10176000277080E2289F900111248C2F8370C1E0A4
:10177000D0E002C0CC0FDD1F8A95E2F7C22BD32B3D
:10178000DA685DCF8C2F8F710E94EB09C82FD0E0F3
:10179000DC2FCC27CC27DF71D06251CF8C2F8F71FB
:1017A0000E94EB0955E0D695C7955A95E1F7CF70A1
:1017B000D0E0DC2FCC27282F30E084FF05C044E0A8
:1017C000220F331F4A95E1F7C22BD32BD06937CFB5
:1017D0008D2F8F710E94EB09182FCE0199270E943F
:1017E0003A0AC12FD0E0DC2FCC27CC27DF71C82BE1
:1017F000D92BD2CF809590911F02982390931F02EE
:10180000089580911F029091F601892B9091F50126
:10181000992391F0892B90912301992371F0909154
:10182000BA0297FF0AC09EE124EC31E040E09150FB
:1018300040F441111092F501089596E02CEB31E04F
:10184000F5CFF90151919F01552389F34F5FEFCFF8
:10185000809111039091D802981301C008958F5F71
:101860008770FACFA82FA77023E0969587952A95C1
:10187000E1F7FC01EE0FFF1FE80FF91FE60FF71F5E
:1018800050E040E080E0219130E00A2E02C0369521
:1018900027950A94E2F721703327042E01C0220F06
:1018A0000A94EAF7822B4F5F5F4F4330510559F797
:1018B0000895943070F4843098F444E0949F90013B
:1018C000112467EE71E0820F932F911D0E94320C5C
:1018D00008959C5F923020F464EE71E090E0F6CFC2
:1018E00080E00895262F277091E001C0990F2A9576
:1018F000EAF723E0769567952A95E1F7FB01EE0F6D
:10190000FF1FE60FF71FE40FF51F50E040E0682FC0
:1019100070E08191DF0111979B01042E02C0369582
:1019200027950A94E2F72170219528272923282753
:101930002C934F5F5F4F4330510559F70895282F7F
:10194000862F943068F4243050F434E0939FB00133
:101950001124620F711D47EE51E00E94720C089530
:101960009C5F9230E0F7622F70E044EE51E0F5CFDB
:1019700080937E02089590917E0221E030E0F9018B
:1019800001C0EE0F8A95EAF7D90102C0AA0FBB1F6A
:101990006A95E2F7EA2B01C0220F4A95EAF7892FF0
:1019A0008E23E81305C0292B822F0E94B80C0895BE
:1019B00020952923F9CF21E030E001C0220F8A953C
:1019C000EAF7209580917E0282230E94B80C089548
:1019D0009091F401809589238093F401282F27703A
:1019E00069F4891759F09091BB0292FF07C0869560
:1019F000869586950E94DB0C1092F401089521E0F3
:101A000030E001C0220F8A95EAF780917E02822B96
:101A10000E94B80C0895809320020895982F929503
:101A20009F7011F0892F94E0282F2695269511F0AC
:101A30009E5F822F869509F09F5F892F0895CF932F
:101A4000DF93C0911E05D0911F058A30C1F420910B
:101A50001503CE018E519340622F70E00E94752FC6
:101A6000281B822F66E00E94C02FC82FC15018F497
:101A7000DF91CF91089580E20E941F0DF7CF8D3046
:101A8000E9F4CE51D34020911503622F70E0CE01CE
:101A90000E94752F281B822F9E01280F311D2115B2
:101AA000324018F080E0D0E0C0E0C80FD11DC25E27
:101AB000DC4FD0931F05C0931E05DACF96E0FE01E0
:101AC000A6E1B3E001900D929A95E1F7803E08F40B
:101AD00058C086E0FE0111928A95E9F7C0911E0573
:101AE000D0911F0546E050E0BE0186E193E00E94E0
:101AF000B2309E012E513340892B41F1C90145E09E
:101B0000969587954A95E1F741E050E0BA0102C009
:101B1000660F771F8A95E2F7CB0160911C037091E5
:101B20001D03862B972BB9016B5F7F4FE5E0769500
:101B30006795EA95E1F702C0440F551F6A95E2F7F1
:101B4000842B952B90931D0380931C032A5F3F4F9A
:101B500040911503642F70E0C9010E94752F481B46
:101B6000463010F4240F311D211572E0370710F0B4
:101B700030E020E0225E3C4F30931F0520931E058D
:101B800077CFF6E08F9FB00111246953794F46E07B
:101B900050E0CE010E949C30A1CFCF93DF93EC01A7
:101BA000FE018491811103C0DF91CF9108950E94BD
:101BB0001F0D2196F5CF80912301882359F1809143
:101BC000BA0287FF27C00E94010C8093C30140E244
:101BD00050E067EF71E082EC91E00E94B230892B17
:101BE000C1F080E2E2ECF1E0A7EFB1E001900D92EC
:101BF0008A95E1F7E091B602F091B702309749F08B
:101C000086E08093C2010480F581E02D82EC91E0B2
:101C1000099508950E94010C8093BA0148E050E0B4
:101C200067E172E08AEB91E00E94B230892B89F380
:101C300088E0EAEBF1E0A7E1B2E001900D928A952D
:101C4000E1F7E091B602F091B702309711F302800C
:101C5000F381E02D8AEB91E0DBCF882321F00E9415
:101C6000FA0B0E94DB0D0895882339F090911F0232
:101C7000982B90931F020E94DB0D08950F931F93E2
:101C8000CF93DF938B01EA019091CE02943061F5FE
:101C90008093E9008FEF9091E800815095FD06C098
:101CA00095ED9A95F1F700008111F5CF8091E8004C
:101CB00085FF1AC00E94BF06811111C08091E80003
:101CC00085FD06C08091E8008E778093E800F2CF12
:101CD000F80181918F018093F100219779F780912C
:101CE000E8008E778093E800DF91CF911F910F91EC
:101CF000089543E050E0BC0184E00E943E0E089548
:101D000046E050E0BC0184E00E943E0E089540E2AF
:101D100050E0BC0184E00E943E0E0895CF93DF9313
:101D2000EC0148E050E0BC0181E00E943E0E88E0FA
:101D3000FE01A4ECB2E001900D928A95E1F7DF91EB
:101D4000CF91089581E08093E00080E28093D800F5
:101D50001092C9008FE19EE40197F1F700C00000E6
:101D600087E090EBDC018093200590932105A09300
:101D70002205B093230588E19CE00FB6F894A8955E
:101D8000809360000FBE90936000FFCF8091760239
:101D900080FD0AC0E6E4F2E01182108212823396DE
:101DA00052E0E835F507C1F7279A35B13F7725B1FD
:101DB00020684FB7F89486E492E0FC015191CF017E
:101DC00068E025B9000000C057FF35B9550F000085
:101DD00000C000C000C035B900C06A9591F7F2E0BC
:101DE00088359F0751F74FBF8FE594E00197F1F7D2
:101DF00000C000000895EF92FF920F931F93CF93BE
:101E0000DF938C01C6E4D2E0F12CE12CF80194813F
:101E10006091780280917702F3E0EF16F104ECF420
:101E20009923E9F09E01409179020E943C092FEF2D
:101E3000E21AF20A239686E0E816F10439F70E94C6
:101E4000C60EF801848190E0019681709927848301
:101E5000CDB7DEB7E6E00C94B12F992319F39E01BC
:101E600040E0E3CFB0E0A0E0E8E3FFE00C948F2F88
:101E7000EC014C81042F10E09801D8010E946B31D5
:101E80009B01AC010E9436314B015C01E0E2F0E0C5
:101E9000E01BF10BA5E5B0E0AC019B010E943631DF
:101EA0006B017C019F01DF010E94FB2F9B01AC01B4
:101EB0000E9441319B01AC01280D391D4A1D5B1D5B
:101EC000C701B6010E944931F22E822F90E039E21B
:101ED0003F1598F143E0249F9001112435952795F3
:101EE000122F109596E4C92E92E0D92E00E085E5D8
:101EF000E82EEF188E2D01FD8F2D9601412F609158
:101F000078020E943C090F5F53E0C50ED11C0630D9
:101F100089F70E94C60E9C8181E0992319F09032C6
:101F200019F48FEF80931B0180911B01890F8C8323
:101F3000CDB7DEB7ECE00C94AB2F25E530E0A9017E
:101F4000481B590BCA019A01220F331F280F391F52
:101F500037FFC4CF2F5F3F4FC1CF0F931F93CF9356
:101F6000DF93C6E4D2E0FE01118210821282339622
:101F700082E0E835F807C1F710E000E08091440204
:101F8000082E000C990B081719078CF180911A0183
:101F9000082E000C990B801791074CF19E0140917F
:101FA000790260917802809177020E943C090F5F6C
:101FB0001F4F23960630110509F70E94C60E809127
:101FC000190190914402980F9093440220911A01B4
:101FD000280F20931A01121614F495301CF08195E5
:101FE00080931901DF91CF911F910F91089519826C
:101FF00018821A82DCCFB0E0A0E0E1E0F0E10C94BE
:10200000922FFC018281DD24DA9480FD02C0DD2460
:10201000D39406E412E0D0E0C0E026E0B22EF8014E
:1020200011821082128294E0E92EF12CC12C809151
:1020300043028C0D8730C4F16B2D0E94CC2F892F69
:10204000082E000C990B8C179D0791F48091790252
:102050008E9DA0018F9D500D112455954795559546
:102060004795980160917802809177020E943C091F
:10207000CD0CF1E0EF1AF108D1F621960D5F1F4F5C
:10208000C630D10561F60E94C60E8091430291E0F0
:10209000D91210C081110CC085E080934302CDB7E6
:1020A000DEB7E9E00C94AE2F87FFCACF8A5FC8CFB6
:1020B0008150F3CF90E00196BE010E94DA2FEDCF60
:1020C000EF92FF921F93CF93DF93EC0186E4E82E0B
:1020D00082E0F82E10E08C819701409179026091A6
:1020E0007802810F0E943C09165D83E0E80EF11C26
:1020F0001C3F89F70E94C60E9A818C8190FF08C010
:102100008F5F8C83DF91CF911F91FF90EF900895A7
:102110008150F7CF9091760290FF0CC0E6E4F2E098
:10212000818360834283339692E0E835F907C1F7F3
:102130000E94C60E0895A3E0B0E0E1EAF0E10C943D
:10214000972F8C018091450281110AC09E012F5F5B
:102150003F4F4FEF6FEF0E943C098A818093450209
:10216000F8016481613069F08091450240E06623A6
:1021700061F040E0623011F44091450280E060E09F
:1021800004C06091450240E080E00E948A10F8019E
:10219000848190E0019663E070E00E94DA2F8483EE
:1021A0002396E4E00C94B32FA3E0B0E0EAEDF0E175
:1021B0000C94992F9091760290FF0AC09E012F5F98
:1021C0003F4F0E943C094B8169818A810E948A109D
:1021D0002396E2E00C94B52FCF93DF93EC01E6E772
:1021E000F2E0438162818C810E94D4108C818F5FE8
:1021F0008C83DF91CF910895CF93DF93EC01EC8135
:10220000F0E0EC54FC4F4491E6E7F2E0628181811A
:102210000E94D4108C818F5F8C83DF91CF910895C1
:10222000CF93C82F6FEF811164E285E290E00E94A6
:10223000E330C1110DC0CFEF6C2F86E290E00E9419
:10224000E3306C2F87E290E00E94E330CF91089555
:10225000C2E0F2CFCF93DF93C9EBD0E060E0CE01D4
:102260000E94E3302196C11584E0D807B9F7DF91C9
:10227000CF9108950F931F93CF93DF93142F022FC5
:102280008430F0F461111CC094E0899FE0011124B6
:10229000C755DF4F82E090E0442311F090E080E0EA
:1022A000632F8C0F9D1F0E94E33083E090E0112389
:1022B00011F081E090E0602F8C0F9D1F0E94E330B1
:1022C000DF91CF911F910F9108951F93CF93DF93CB
:1022D000122F8430E8F46430D8F44430C8F428E095
:1022E000629FE001112450E0440F551FC40FD51F19
:1022F00020E2829FC0011124C80FD91F632FCE0195
:1023000089960E94E330612FCE018A960E94E330C5
:10231000DF91CF911F9108958F929F92AF92BF92BC
:10232000CF92DF92FF920F931F93CF93DF9306E13B
:1023300016E086E9C82E85E0D82EC0E05601D0E030
:1023400015C0F401259134914F2D6D2F8C2F0E94D3
:10235000651182E0880E911CF39484E0F812F1CFAD
:1023600088E0A80EB11CDF5FD43019F04501F12CD4
:10237000E8CFF8012591349141E060E08C2F0E9474
:102380003A11F80132962591349140E060E08C2FAB
:102390000E943A110C5F1F4FCF5F80E2C80ED11C24
:1023A000C43009F0CBCFDF91CF911F910F91FF90F7
:1023B000DF90CF90BF90AF909F908F90089580E076
:1023C0000E94101160E088E290E00E94E3300E94D9
:1023D0008C110E942A1181E00E941011089585E25B
:1023E00090E00E94BF30843289F486E290E00E943F
:1023F000BF30823059F487E290E00E94BF3091E014
:10240000823009F090E0892F8170089580E0FCCF40
:10241000FF920F931F93CF93DF93F42E843040F5F8
:10242000611126C024E0829F8001112407551F4FAF
:1024300082E090E0442311F090E080E0800F911F53
:102440000E94BF30C82FD0E0DC2FCC2783E090E083
:10245000FF2011F081E090E0800F911F0E94BF30BB
:102460009E01282BC901CDB7DEB7E5E00C94B22F51
:1024700090E080E0F8CF0F931F93CF93DF938430E9
:1024800038F5643028F5443018F528E0629F800163
:10249000112450E0440F551F040F151F30E2839F95
:1024A000C0011124080F191FC80189960E94BF306E
:1024B000C82FD0E0DC2FCC27C8018A960E94BF30FD
:1024C0009E01282BC901DF91CF911F910F91089593
:1024D00090E080E0F8CF462F672F743038F4443016
:1024E00060F4843050F40E943B1208957D3F41F423
:1024F000411103C041E0843048F090E080E008954D
:102500007C3FD9F74111F9CF8430B8F760E00E94E1
:1025100008120895CF92DF92FF920F931F93CF93EB
:10252000DF936C0100917E0280912002082BC3E0B2
:10253000D0E010E0FC2EC8010C2E02C095958795C6
:102540000A94E2F780FD0CC02197A0F7F12C8F2DA3
:10255000DF91CF911F910F91FF90DF90CF90089561
:10256000B6018C2F0E946B120E94DC0A019761F366
:10257000EECFCF93DF93EC010E948A12BE010E943E
:102580006B120E94DC0ADF91CF910895FC01248137
:102590002223C1F0808191810E94B91292959F708F
:1025A000963091F058F4925F9F70923058F4803FCB
:1025B00019F030F4883E30F481E008959A5FF4CF4A
:1025C000843FD1F380E00895883EB0F3813FD1F796
:1025D000F3CFA6E0B0E0EFEEF2E10C94982F498340
:1025E0005A8349815A819923A1F0222391F0CA018B
:1025F0000E948A12182F682F89819A810E949F0C4D
:1026000069817A81812F0E946B122696E3E00C94F7
:10261000B42FCA010E94590C182FF2CFB0E0A0E0ED
:10262000E4E1F3E10C94932F6C017B0164E670E02C
:1026300088E70E948F2E8C01E601EC0CFD1C17FD33
:102640000BC0FE01849164E670E00E94FB2E8C01B9
:102650002196CE15DF0599F70E94712F81E00115B3
:10266000110509F080E0CDB7DEB7E8E00C94AF2F9C
:102670008091A5029091A602911103C091E0892753
:102680000895882369F062E070E086EB94E00E9490
:102690000E13811103C08091A50208951092A50226
:1026A0008091A502EBCFCF93C091A5028091A602A5
:1026B0008823D1F00E94FD07605A75418F4F9F4FCC
:1026C0006093A1027093A2028093A3029093A4024C
:1026D000C11108C062E070E084EB94E00E940E1328
:1026E000811105C0C091A5028C2FCF91089581E082
:1026F0008093A502F7CF2F923F925F926F927F92C5
:102700008F929F92AF92BF92CF92DF92EF92FF9201
:102710000F931F93CF93DF938091A602882309F430
:1027200090C060E080E00E940F0960E080E00E94BD
:102730000F0988E195E00E943E0661E080E00E947A
:102740000F0988EF94E00E943E0662E080E00E945C
:102750000F0988ED94E00E943E0663E080E00E944D
:102760000F0988EB94E00E943E0660E087E00E943B
:102770000F0987E895E00E94CD0D61E087E00E9497
:102780000F098FE795E00E94CD0D80917E020E9497
:102790000E0D813009F467C0882349F0823009F4B6
:1027A00065C0833009F465C08CE595E002C088E718
:1027B00095E00E94CD0D62E087E00E940F0983E55D
:1027C00095E00E94CD0D63E087E00E940F090E9412
:1027D000B208C82F8AE495E0C0FF02C08EE495E0FD
:1027E0000E94CD0D81E495E0C1FF02C085E495E033
:1027F0000E94CD0D88E395E0C2FF02C08CE395E016
:102800000E94CD0D80911C0390911D03892BA1F591
:102810008091A5028823A9F00E94FD070091A102E2
:102820001091A2022091A3023091A402601B710BAF
:10283000820B930B6F3F7F4F8F4F9F4710F40E9487
:102840003813DF91CF911F910F91FF90EF90DF90A0
:10285000CF90BF90AF909F908F907F906F905F9040
:102860003F902F90089581E795E0A3CF8AE695E009
:10287000A0CF83E695E09DCF8091A602882341F208
:102880008091A0028111C4CF0E94531320911C0398
:1028900030911D032115310509F4BACF80E041E0E4
:1028A00050E0082F10E01A01082E02C0220C331C41
:1028B0000A94E2F7B10162237323672B11F48F5F4F
:1028C000F0CF90919F0290FF95C0880F880F880FDE
:1028D00080931E0110922101895F80931F0183E084
:1028E0008093220124E630E047E050E06CE171E0A3
:1028F00088E70E94292F892B09F08ACFA80125E0BB
:10290000440F551F2A95E1F780919F0280FF84C0F4
:10291000EFE7F2E080E2DF011D928A95E9F7A4EA91
:10292000B1E000EA11E088EAC82E81E0D82E97E0F5
:10293000592E772473948D91E80129918E01240FEB
:10294000352F311D225E3C4FE82FF0E0E158FD4F5E
:1029500090E080E0652C681A872C082E01C0880C56
:102960000A94EAF77901A12CE701B9907E01B82019
:10297000662D6A196770962E062E000C770BDB2DDC
:1029800001C0DD0F9A94EAF771956195710967703E
:10299000772701C0B6946A95EAF7BD2A6081962E22
:1029A0009B289082A39468E0A612DECF0196319610
:1029B0008830910579F6CA16DB0609F0BCCF04E62B
:1029C00010E020E230E04FE752E060E488E70E9448
:1029D0004A2F892B09F01CCFE101C095D095809139
:1029E0001C0390911D03C823D923D0931D03C093CA
:1029F0001C030ECF8295880F807680931E0198016C
:102A0000369527953695279520932101815E8093F1
:102A10001F012093220166CF425E5C4F04E610E066
:102A200020E230E0D2CFB0E0A0E0E9E1F5E10C94A3
:102A30008B2FFC016280448081E08483E4EBF3E02F
:102A40007490E3E3F4E0E491009179020695015873
:102A500010E0000F111F012F1127C8E5D2E026E476
:102A6000C22E22E0D22E36E7832E32E0932EAA2405
:102A7000AA94B12C55245A94E719EE2EF12C82E039
:102A8000861530F08091770288838091780289835F
:102A9000411016C01B821A8296014A816981888181
:102AA0000E943C09259683E0C80ED11C8C169D0619
:102AB00031F70E94C60ECDB7DEB7E0E10C94A72F28
:102AC0008B818823E9F081508B83859DC00111247F
:102AD0006C8170E00E94752FFB01FF27EC54FC4FC6
:102AE0008491E82FE719E59DC0011124B7010E94E8
:102AF000752F80917902689FB00111247A83CCCF21
:102B00000E948C30B5010E94DA2F8017910724F6BD
:102B100082E0861588F40E948C30B5010E94DA2F7D
:102B200088830E948C30209178022695622F70E075
:102B30000E94DA2F280F29831A8280917902893C1A
:102B400020F088EC8C838B83A7CF8431D8F784E185
:102B5000F9CFB0E0A0E0EFEAF5E10C948F2F490146
:102B60005A016B017C010E942D098401A4016A2D88
:102B70007B2D88E090E00E94F53094014A2D5B2D7A
:102B8000B601C70100E20E942530622F84E290E086
:102B90000E94E330CDB7DEB7ECE00C94AB2FA3E09E
:102BA000B0E0E5EDF5E10C948C2FF82E762EE42EB6
:102BB000622E9091760290FF2FC0E92FE695E69560
:102BC000AE2FB0E0AB58BE4F8C91809341029C7FFA
:102BD000943031F59E012F5F3F4F8F2D0E943C09AD
:102BE0004B8169818A810E948A10F09277027092EB
:102BF0007802E0927902662079F020917602609165
:102C00007A0270917B023F2D472D5E2D80917C02D0
:102C100090917D020E94A9152396EFE00C94A82FB5
:102C2000823019F4E0907902E0CF863019F4F09008
:102C30007702DBCF8930D9F38931B9F6E9518E2F8C
:102C40008170582EE695F0E0E155FC4FE4910E2F8F
:102C500010E086E4C82E82E0D82EB12CA12C96E09C
:102C6000892E912CC501B4010E94752F8F2D511012
:102C700013C0860F96014E2D672D0E943C09A00EB1
:102C8000B11E83E0C80ED11C88E5C81682E0D806C4
:102C900049F70E94C60EA9CF861BECCFE6E7F2E00B
:102CA000438121E1421B08F440E021E062818181FF
:102CB0000E94CF150895E6E7F2E0438121E1420F3B
:102CC00008F44FEF21E0628181810E94CF150895C1
:102CD000E6E7F2E0628121E1621B08F460E021E0B6
:102CE000438181810E94CF150895E6E7F2E0628179
:102CF00021E1620F08F46FEF21E0438181810E949E
:102D0000CF150895E6E7F2E0818121E043816281F9
:102D10008A500E94CF150895E6E7F2E0818121E014
:102D200043816281865F0E94CF15089580917A0267
:102D3000882319F0815080937A0220917602309195
:102D40007702409178025091790260917A027091F5
:102D50007B0280917C0290917D020E94A9150895CA
:102D600080917A02833018F48F5F80937A022091E9
:102D70007602309177024091780250917902609109
:102D80007A0270917B0280917C0290917D020E9478
:102D9000A9150895E6E7F2E089E3808311828FEFB9
:102DA000828383831482758129E330E04FEF5FEFE4
:102DB00060E0868197810E94A91508959091BB02D9
:102DC00092FB222720F9281779F080FB92F9909343
:102DD000BB026091BA027091BB0284E090E00E9455
:102DE000013182E00E94E80C089590E080E00E94AA
:102DF000CD30863E9E4F19F40E94EF11089580E079
:102E00000895A8E0B0E0E7E0F7E10C94992F66EEB2
:102E10007EEF90E080E00E94013160E082E090E08F
:102E20000E94E33081E08093200261E083E090E043
:102E30000E94E33060E074E184E090E00E940131A0
:102E400060E086E090E00E94E3306FEF87E090E082
:102E50000E94E33040E050E0BA0188E090E00E9438
:102E6000F53060E084E290E00E94E33060E087E1CA
:102E700090E00E94E33060E08CE090E00E94E3305C
:102E800060E08DE090E00E94E33019821A821B829C
:102E90001C821D821E821F82188648E050E068E175
:102EA00070E0CE0101960E94D33040E050E0BA01BC
:102EB00080E290E00E94F53080E00E9410110E94B4
:102EC000DF1140E050E0BA018FE090E00E94F53061
:102ED00040E050E0BA0183E190E00E94F53028968E
:102EE000E2E00C94B52F1F920F920FB60F921124AF
:102EF0002F933F934F935F936F937F938F939F9302
:102F0000AF93BF93EF93FF938091E10082FF09C0DD
:102F10008091E20082FF05C08091E1008B7F809369
:102F2000E1008091DA0080FF24C08091D80080FF0A
:102F300020C08091DA008E7F8093DA008091D900E2
:102F400080FF9DC080E189BD82E189BD09B400FE9A
:102F5000FDCF81E08093CE028091C102811109C032
:102F60000E94A0060E9441078091E2008460809345
:102F7000E2008091E10080FF17C08091E20080FFB5
:102F800013C08091E2008E7F8093E2008091E20086
:102F900080618093E2008091D80080628093D800A5
:102FA00019BC85E08093CE028091E10084FF2BC0A4
:102FB0008091E20084FF27C080E189BD82E189BD64
:102FC00089B5982F917080FFFBCF8091D8008F7DBD
:102FD0008093D8008091E1008F7E8093E100809102
:102FE000E2008F7E8093E2008091E2008160809316
:102FF000E2008091CF02882309F447C084E08093E7
:10300000CE028091CE028091E10083FF27C08091A3
:10301000E20083FF23C08091E100877F8093E1007D
:1030200082E08093CE021092CF028091E1008E7FE9
:103030008093E1008091E2008E7F8093E200809196
:10304000E20080618093E20042E060E080E00E9464
:103050000F078091F00088608093F000FF91EF915E
:10306000BF91AF919F918F917F916F915F914F91A0
:103070003F912F910F900FBE0F901F90189519BC84
:103080001092CE021092C10274CF8091E30087FDAE
:1030900093E09093CE02B5CF78941F921FB61F9203
:1030A00011248F939F93AF93BF938091BD02909112
:1030B000BE02A091BF02B091C0020196A11DB11D38
:1030C0008093BD029093BE02A093BF02B093C00252
:1030D000BF91AF919F918F911F901FBE1F90189528
:1030E0009C014FB7F8948091BD029091BE02A091CF
:1030F000BF02B091C0024FBF821B930B08952FB740
:10310000F8948091BD029091BE02A091BF02B0914F
:10311000C0022FBF08950E947F189C019091B002B9
:103120008091B102982B21F03093AD022093AC0234
:103130009091B2028091B302982B21F03093AB02B0
:103140002093AA02E091B602F091B702309749F0BD
:1031500082E08093AE020680F781E02D8EEA92E055
:103160000995089510921F0280912301882339F157
:103170008091BA0287FF23C0E4ECF1E08EE1DF0129
:103180001D928A95E9F790E080E00E948D0890E01A
:1031900080E00E9468081092F6010E94DB0D86E034
:1031A000EEEAF2E0DF011D928A95E9F71092A7029C
:1031B0001092A8021092A9020E948B180895ECEBBD
:1031C000F1E086E0DCCFAAE2B0E0E9EEF8E10C94B1
:1031D000982F80ED92E02091F100DC012D93CD013C
:1031E000B2E0883D9B07B9F78091D102833009F4A2
:1031F00072C0B8F4813009F449C0823009F4B3C018
:103200008091E80083FF8BC28091D0029091D1021F
:103210009A3008F084C2E92FF0E0E458FE4C0C9498
:10322000EE2F8A3009F48EC08B3009F471C08930DA
:1032300039F78091D002813219F78091D4029091B0
:10324000D502009711F00297D9F68091E800877FA8
:103250008093E8008091E80082FF38C09091F300ED
:103260008091F200029731F48091F100813011F0E9
:10327000863021F48091F1008093C3028091E800B0
:103280008B778093E8000E94F006BACF8091D0023D
:10329000813A09F0B5CF8091E800877F8093E800FC
:1032A0008091D4029091D502892B61F468E084EC7E
:1032B00092E070E00E949C078091E8008B778093F9
:1032C000E8009ECF60E090E080E0F3CF8091CE02F6
:1032D0008111C0CF95CF8091D002813A09F090CF73
:1032E0008091D4029091D502892B09F089CF8091E9
:1032F000E800877F8093E8008091E80080FFFCCFA2
:10330000809123018093F1008091E8008E77B9CFFE
:103310008091D002813209F073CF8091D4029091D4
:10332000D502892B09F06CCF8091E800877F8093CC
:10333000E8000E94F0068091D202809323010E944F
:10334000B2185ECF8091D002813209F059CF8091BE
:10335000E800877F8093E8000E94F0068091D30206
:103360008093C2024DCF8091D002813A09F048CFBC
:103370008091E800877F8093E8008091E80080FFDB
:10338000FCCF8091C202BECF803899F0823809F01C
:10339000C6C18091D4028F70873008F0C0C180937D
:1033A000E9008091EB0085FB882780F91092E90005
:1033B00006C08091CC029091CD02911182609091D3
:1033C000E800977F9093E8008093F1001092F1005D
:1033D0008091E8008E779FC1882309F48DC18230E7
:1033E00009F09DC18091D202811190C18091D402D7
:1033F0008F702FEF280F263008F091C18093E900DD
:103400002091EB0020FF82C1933031F48091EB00DA
:1034100080628093EB007AC19091EB009061909371
:10342000EB0021E030E001C0220F8A95EAF72093FB
:10343000EA001092EA008091EB008860EACF8111E7
:103440006EC11091D2021F778091E3008078812BAA
:103450008093E3008091E800877F8093E8000E94DA
:10346000F0068091E80080FFFCCF8091E300806847
:103470008093E30082E0111183E08093CE024FC17C
:103480008058823008F04BC12091D2023091D30293
:103490002C3DE3E03E07A1F583E08A838AE289833D
:1034A0004FB7F894DE01139620E03EE051E2E32F9F
:1034B000F0E050935700E49120FF03C0E295EF70D5
:1034C0003F5FEF708E2F90E0EA30C0F0C7968D938B
:1034D0009D932F5F243159F74FBF8091E800877F7C
:1034E0008093E8006AE270E0CE0101960E949C079A
:1034F0008091E8008B778093E80011C1C096E7CFF8
:103500008091D4029091D502432F55274330510525
:1035100009F44AC078F54130510509F47AC08BE5C9
:1035200090E0E6E2F6E04230510509F0F8C0209163
:10353000E800277F2093E8002091D6023091D7023F
:103540008217930708F49C0140E02115310509F02A
:1035500065C0411163C08091E80082FDC9CF8091B0
:10356000CE02882329F2853019F28091E80083FF8A
:10357000F2CFBECF4132510509F43CC04232510571
:1035800009F0CDC08330910508F0C9C0FC01EE0FF1
:10359000FF1FE555FE4F0190F081E02D88559E4FAD
:1035A000DC018C9190E01AC0332721303105D1F035
:1035B0002115310561F02230310509F0B0C0E3E991
:1035C000F6E0E4918E2F90E0E3E9F6E007C0E3EC4B
:1035D000F6E0E4918E2F90E0E3ECF6E0009709F43A
:1035E0009EC0A5CFE3EAF6E0E4918E2F90E0E3EAF7
:1035F000F6E0F4CF8330910508F091C0880F991F51
:10360000FC01EF54FE4F0190F081E02D89E090E045
:103610008ECF82E190E0E1E8F6E089CF8091CE02A2
:10362000882309F465CF853009F462CF8091E800E2
:1036300083FD5ECF8091E80082FD8DCF8091E80010
:1036400080FF83CF9091F3008091F2002115310526
:1036500019F08830910550F041E0089709F040E0FA
:103660008091E8008E778093E8006FCF449140937B
:10367000F1003196215031090196E8CF803809F0E8
:103680004EC08091E800877F8093E8008091CF0250
:103690008093F1009DCE811142C01091D202123070
:1036A000F0F58091E800877F8093E8001093CF02C7
:1036B0000E94F006112311F084E005C08091E30020
:1036C00087FDFACF81E08093CE0242E061EC81E099
:1036D0000E940F0742E261EC84E00E940F0742E281
:1036E00061EC82E00E940F0742E260EC83E00E94FE
:1036F0000F078091CE0213C08091D202813079F4FD
:1037000081E0933009F080E08093CD021092E900CF
:103710008091E800877F8093E8000E94F006809106
:10372000E80083FF0AC08091E800877F8093E8006B
:103730008091EB0080628093EB00AA96E3E00C940A
:10374000B42F1F920F920FB60F9211242F933F9315
:103750004F935F936F937F938F939F93AF93BF9399
:10376000CF93DF93EF93FF93D091E900DF708091C7
:10377000EC00C82FC17080FDC0E81092E900809174
:10378000F000877F8093F00078940E94E3181092F5
:10379000E9008091F00088608093F000CD2BCF701D
:1037A000C093E900FF91EF91DF91CF91BF91AF916D
:1037B0009F918F917F916F915F914F913F912F9149
:1037C0000F900FBE0F901F9018950E94B2182FEF08
:1037D00084E39CE0215080409040E1F700C000006D
:1037E00088E19CE00FB6F894A895809360000FBE26
:1037F00090936000FFCF4091B0029091B20220916F
:10380000B302662309F469C0942B922B2091B10274
:10381000922B31F098E09093A70291E09093A80248
:103820008D3C41F40E94E10881958093B1020E9491
:103830008B1808958E3C19F40E94E108F6CF8F3C56
:1038400031F40E94E10881958093B002F0CF803D71
:1038500019F40E94E108F8CF893D29F40E94BF08BD
:103860008093B202E4CF8A3D21F40E94BF08819583
:10387000F7CF8B3D31F40E94BF0881958093B3024E
:10388000D6CF8C3D19F40E94BF08F8CF9FE2980F65
:10389000983070F4815D990B21E030E001C0220F77
:1038A0008A95EAF78091AF02822B8093AF02BFCF57
:1038B0008D3D31F48091A90281608093A902B7CF38
:1038C0008E3D21F48091A9028260F7CF8F3D09F0EF
:1038D000AECF8091A9028460F0CF8D3C59F48091E5
:1038E000B10287FF0DC01092B10241110BC01092BE
:1038F000A70208C08E3C81F48091B10218169CF397
:10390000442381F08091B2029091B302892B09F097
:103910008ECF1092A8028BCF8F3C49F447FFF0CF97
:103920001092B0028091B1028111ECCFE0CF803DC6
:1039300019F41416ACF3E4CF893D29F4191604F7F1
:103940001092B202DDCF8A3D19F497FFD9CFF8CF9C
:103950008B3D29F427FFD4CF1092B302D1CF8C3DF9
:1039600019F41216CCF3CCCF9FE2980F983090F454
:10397000815D990B21E030E0B90102C0660F771F2D
:103980008A95E2F7CB0180959091AF0289238093CD
:10399000AF02B6CF8D3D31F48091A9028E7F809326
:1039A000A902AECF8E3D21F48091A9028D7FF7CF81
:1039B0008F3D09F0A5CF8091A9028B7FF0CF88239E
:1039C00081F19CEF980F913A28F40E9409080E9417
:1039D000DB0D089590E2980F983050F4877091E0D5
:1039E00001C0990F8A95EAF7892F0E94FA0BEFCF51
:1039F0009BE5980F933028F490E080E00E948D08BA
:103A0000089598E5980F9B3128F490E080E00E949B
:103A10006808089593E3980F933118F460E00E94CA
:103A2000FB1B0895CF93C82F8823B1F18CEF8C0F27
:103A3000813AA0F580912301882301F18091BA0297
:103A400087FF1CC0EC2FE695E695E695F0E0EE5377
:103A5000FE4F828190E04C2F477021E030E002C0A1
:103A6000220F331F4A95E2F782239323892B79F0A3
:103A70008C2F0E9409080E94DB0D09C0ECEBF1E0DD
:103A80008191C817A9F381E0E23CF807C9F78C2FB0
:103A90000E9434080E94DB0DCF91089580E28C0FC4
:103AA000883068F4C77021E030E001C0220FCA9569
:103AB000EAF780911F02822B80931F02EBCFEBE588
:103AC000EC0FE33040F4F0E0EC5DFE4F808190E0DD
:103AD0000E948D08E1CFE8E5EC0FEB3150F4F0E007
:103AE000EE0FFF1FE95DFE4F808191810E94680803
:103AF000D3CF83E38C0F833178F661E08C2F0E9463
:103B0000FB1BCACF1F93CF93DF93182FD0E0C0E0E9
:103B1000893311F4C0E5D0E0812F0E94121D209757
:103B200039F4812F0E94DF1CDF91CF911F910895FE
:103B30008FE99FE00197F1F700C000002197EFCFD8
:103B40000F931F93CF93DF93C62FD42F022FFC0127
:103B500085818823A9F0609314030E947F189093B5
:103B6000130380931203C77081E001C0880FCA95C8
:103B7000EAF70E94340EDF91CF911F910F910895C3
:103B800080911403681332C0809112039091130343
:103B90000E947018883C910548F510E21D0FCD1762
:103BA000B9F080E28C0F883040F4C77081E001C02A
:103BB000880FCA95EAF70E942D0E183048F481E06C
:103BC0009D2F977001C0880F9A95EAF70E94340ED6
:103BD000802F0E94821D183070F6D77081E001C0DE
:103BE000880FDA95EAF70E942D0EC5CFC77081E0E5
:103BF00001C0880FCA95EAF7F6CF60917602669504
:103C0000669570E04BE050E08EE091E00E94A530B8
:103C1000892B19F481E0809342020E947F189093CF
:103C20003C0280933B0208959091760290FF35C04C
:103C30009370811133C0946090937602662391F063
:103C4000209176023091770240917802509179026A
:103C500060917A0270917B0280917C0290917D024A
:103C60000E94A915609176026695669570E04BE01A
:103C700050E08EE091E00E94A530892BB9F01092BF
:103C8000420281E080933E0220E0409179026091FF
:103C90007802809177020E94CF1508958B3210F040
:103CA000986ACACF880F880F982BC6CF0E94FD1D37
:103CB000E8CFE6E7F2E080818160808360E086956E
:103CC00086950E94141E08958091760286958695A9
:103CD000815009F48AE261E00E94141E08958091E7
:103CE0007602869586958F5F8B3208F081E061E0E1
:103CF0000E94141E08959091760290FF09C0969537
:103D00009695981728F0961718F40E946F1E08953C
:103D100061E00E94141E0895A8E0B0E0E2E9FEE12F
:103D20000C948B2F8C01DC0114968C9114978823B2
:103D300009F4B7C021E04C9111965C91119712964D
:103D40006C91129713967C91139715969C910E94F3
:103D5000E9127C01F8018581882309F43BC1C70180
:103D600097578038910508F0BEC5FFE0FE1508F4AE
:103D700088C08FEF93E00E94BF30811182C069EB51
:103D8000A62EB12CE11047C0FE01339686E0DF017C
:103D90001D928A95E9F75AE0452E7501BFEFEB1A9F
:103DA000FB0AC5010E94BF3089831A82882309F467
:103DB00068C0813009F079C06501E2E0CE0ED11C07
:103DC000C7010E94BF308A83882309F45AC09FEF3D
:103DD000980F933070F5F3E0AF0EB11CC6010E944E
:103DE000BF308B83882309F44CC01C82DE011196FE
:103DF0007D01F7012081222381F2213009F095C055
:103E000091818281913009F052C0F2E0EF0EF11CF5
:103E10000E94821D53C0A11424E0B20691F1C50195
:103E20000E94BF30811101C0EA943FEFA31AB30A88
:103E3000A9CF56018430D1F642E0E42EF12C560190
:103E40002FEFA21AB20AC6010E94BF30E1E0F0E0F3
:103E5000EC0FFD1FEE0DFF1D8083882391F08C3742
:103E600041F4E2E0F0E0EC0FFD1FEE0DFF1D1082CB
:103E7000BDCF3FEFE31AF30A650187E0E816F104CE
:103E8000F1F68091F401877061F0D80115968C915C
:103E9000882339F08091BB0282FF03C082E00E9438
:103EA000E80C2896E0E10C94A72F57019FCF9230A1
:103EB00049F422E0E20EF11C0E94121DEFEFEE1A0F
:103EC000FE0A97CF933031F432E0E30EF11C0E94EA
:103ED000DF1CF4CF943021F08FEFE81AF80AEECF10
:103EE00092E0E90EF11C30E020E0B7016F5F7F4FF8
:103EF000D70111964C918053990B8A30910550F05F
:103F000021503109D8F2EFE9FFE03197F1F700C015
:103F10000000F6CF429EF001439EF00D11249C015B
:103F20002E0F3F1F842F7B01E0CFE22FF0E0E850FF
:103F3000FE4F5490822F86958695869590E0FC01E1
:103F4000E851FE4F64902770712C022E02C07594C8
:103F500067940A94E2F731E063227724FC01E85287
:103F6000FE4F8490912C022E02C0959487940A945F
:103F7000E2F7A1E08A229924FC01E853FE4FC490A5
:103F8000D12C02C0D594C7942A95E2F7B1E0CB2298
:103F9000DD246114710419F081EE0E94121D811458
:103FA000910419F086EE0E94121D852D0E94821D3B
:103FB0008114910419F086EE0E94DF1C61147104D3
:103FC00019F081EE0E94DF1CC114D10409F476CFF0
:103FD0008CE21ECFE114FEE7FF0609F452CFF70191
:103FE000E851FC47E730F10508F489C426E1E21600
:103FF0002CE7F20609F418C180911F028272F701C2
:10400000E052F847E531F10508F092C1EA57FE4C5D
:104010000C94EE2F80917E020E940E0D843008F0E9
:1040200030CF8F5F843009F480E091E001C0990FB8
:104030008A95EAF7892F0E94B80C23CF26E241EE39
:1040400061EEC8010E94A01D1CCF27E245EE65EE7F
:10405000F8CF26E241EE60EEF4CF27E245EE64EEC3
:10406000F0CF26E241EE62EEECCF27E245EE66EEBF
:10407000E8CF28E241E0EBCF10921403C70190573C
:10408000839708F01BC484E090E00E94CD309093A9
:10409000BB028093BA02F701E150F047E232F1052A
:1040A00020F4E556FE4C0C94EE2F8091BA0281600C
:1040B0008093BA0295C08091BB0288608093BB0256
:1040C0008FC08091BA028260F3CF8091BA0284607F
:1040D000EFCF8091BA028860EBCF8091BB02816004
:1040E000EDCF8091BB028260E9CF8091BA028061FE
:1040F000DFCF8091BA028062DBCF8091BA02806408
:10410000D7CF0E94B2188091BA028068D1CF809137
:10411000BA028C60CDCF8091BB028360CFCF8091FB
:10412000BA028E7FC5CF8091BB02877FC7CF8091B7
:10413000BA028D7FBDCF8091BA028B7FB9CF8091BB
:10414000BA02877FB5CF8091BB028E7FB7CF8091B7
:10415000BB028D7FB3CF8091BA028F7EA9CF8091B1
:10416000BA028F7DA5CF8091BA028F7BA1CF0E942A
:10417000B2188091BA028F779BCF8091BA02837F69
:1041800097CF8091BB028C7F99CF8091BA0282FB3E
:10419000992790F921E0922790FB82F990FB83F90F
:1041A00087CF8091BB02982F909591708E7F892B3D
:1041B00090FB81F983CF9091BA02892F8F7B96FF74
:1041C000806476CF0E94B2189091BA02892F97FB33
:1041D00087F980586DCF61E08EE090E00E94E33077
:1041E0006091BA027091BB0284E090E00E940131BC
:1041F0000E94B21846CE60E0EFCF9091BA02892FAC
:104200008F7E94FF806154CF9091BA02892F8E7F68
:1042100090FF81604DCF9091BB02892F877F93FFE4
:1042200088604CCF85E35AC38091E201811104C0BC
:1042300089E20E94090854C385E3FBCF809176028E
:1042400080FF19C0282F2E7F2093760230917702AD
:10425000409178025091790260917A0270917B02CC
:1042600080917C0290917D020E94A91510924202D9
:104270000E94C60E06CE81608093760261E086952C
:1042800086950E94141EFDCD44E65EE16FE67EE158
:104290000E942609F6CD4FE65EE164E67EE1F8CFA6
:1042A00042E856E16CE876E1F3CF4CE856E162E88B
:1042B00076E1EECF48E656E165E776E1E9CF45E7FE
:1042C00056E168E676E1E4CF4EE456E16BE576E14F
:1042D000DFCF4BE556E16EE476E1DACF46E956E111
:1042E00060EB76E1D5CF40EB56E166E976E1D0CFE1
:1042F00061E081E0C6CF65E082E00E947B1EC1CD17
:1043000068E086E0FACF6EE089E0F7CF64E18FE005
:10431000F4CF67E185E1F1CF61E088E1B2CF62E2FD
:1043200089E1EBCF61E083E2ACCF6AE285E2E5CFE1
:1043300027E7E2162CE7F20609F463C038E7E31634
:104340003CE7F30609F461C0F8018581E080F18063
:10435000882309F48EC0C7010E948A12D82E682FC4
:10436000C7010E949F0CB7018D2D0E946B120E9405
:10437000DC0A7C01882ED8011596AC90159716960C
:104380009C9092943FE093228091F401877009F110
:10439000CA2CAA20F9F08F2D807F803469F080E24A
:1043A0008E0D8830B0F08F2D807E803229F4B1E000
:1043B000BE1578F4992069F08091BB0282FF09C094
:1043C00082E00E94E80C8091F4018770CC24C394B1
:1043D0008111C12CBF2CB2942FE0B222EBE0EB157F
:1043E00008F4AFC0EB2DF0E0E354FE4C0C94EE2F3C
:1043F00081E00E94FF0C43E062E081E00E94BB0C80
:1044000040CD81E00E94DB0CF6CF82E0FBCFEBE5F4
:10441000EE16ECE7FE0659F1FCE5EF16FCE7FF06A9
:10442000E1F02AE5E2162CE7F20609F08DCF81E0F3
:104430001BC00E94B2183FEF84E39CE031508040E3
:104440009040E1F700C000000E94A20E6FEF7FEFE6
:1044500090E080E00E9401312FC28091BB0282FB7C
:10446000882780F991E089270E94DE166DCF80E0D1
:10447000FBCFC7010E94590CD82E75CFFF2DFF70BE
:10448000DF2E8F2D807F19F0D29490EFD922AA20B1
:10449000B9F0DD2069F080E28E0D883010F08110D7
:1044A00009C080911F02D82AD0921F020E94DB0D02
:1044B0008E2D45C08091F601D82AD092F601F6CF14
:1044C0008E2D0E94DF1CDD20E1F180E28E0D883010
:1044D00010F0811004C08D2D0E94FA0B06C0D094FC
:1044E0008091F601D822D092F6010E94DB0D29C0FE
:1044F0002F2D2F70D22E8F2D807F803219F0D294E5
:1045000080EFD822882059F031E0831609F481C069
:10451000AA2009F48DC0992009F44FC0C9CF809119
:10452000BB0282FD46C0AA20F1F1DD2039F0809166
:104530001F02D82AD0921F020E94DB0D80E00E9449
:10454000121DAB2DA850BB0B149710F40E94B2089B
:10455000CC20A9F08091F40180FD11C0F8011582F2
:104560008695869586950E94FF0CC8010E948C1E38
:104570008091F4018695869586950E94DB0C20E05B
:10458000D8014C9111965C91119712966C911297EB
:1045900013967C91139714968C91149715969C9171
:1045A0000E94E9127ECC80E00E94DF1CDD2049F2EF
:1045B00092CFAA20A1F0911004C08D2D0E94340E3C
:1045C000C0CF81E09812BDCF8091F5019D2D982339
:1045D000D91609F4B6CFD82AD092F501B2CF9110EE
:1045E000B0CF8D2D0E942D0E9091F5018D2D892338
:1045F00029F08D2D809589238093F5018091E30129
:104600009D2D982309F49DCFD094D822D092E30118
:1046100098CFAA2029F095E0991508F492CFCDCF34
:10462000A4E0A91508F48DCF8D2D0E942D0E89CF01
:104630009920D1F3B9E38B1218C1EFEFF7EE23E025
:10464000E150F0402040E1F700C000000EC18F2D86
:1046500086958695837061F0813009F072CFC7012D
:104660009370A11002C080E090E00E94680869CFBA
:10467000C7019370A11002C080E090E00E948D08F5
:1046800060CF6A2D8E2D0E94FB1B5BCF8F2D837018
:1046900091F5A11056CF4E2D429546954770440F87
:1046A000440F8E2D8F70042E01C0880F0A94EAF7F4
:1046B0002E2D2071E4FE07C02FE030E001C0220F54
:1046C0004A95EAF720953F2D36953695337032306E
:1046D00069F050F440912002313029F0822B84237C
:1046E0000E940B0D2ECF842B822BFACF282B80918A
:1046F00020028227F5CF8695AA2011F08F2D817098
:10470000882309F41ECF4E2D429546954770440FDD
:10471000440F8E2D8F70042E01C0880F0A94EAF783
:104720002E2D2071E4FE07C02FE030E001C0220FE3
:104730004A95EAF720953F2D3695369533703230FD
:1047400069F050F440917E02313029F0822B8423AD
:104750000E94B80CF6CE842B822BFACF282B8091A6
:104760007E028227F5CF3F2D3F70F32EAA2029F03D
:10477000832F0E94FF0C8E2D21CF8E2D0E942D0E97
:104780008F2D0E94DB0CDDCE8E2D92EF8916B1F1BC
:10479000981570F0A0EF8A16D1F0B1EF8B1691F05A
:1047A000AA2009F45DC0911083CE8F2D8F712AC08D
:1047B000E3EF8E1651F1F4EF8F12F2CF8091BB022E
:1047C00082FD2FC08F2D8F71AA20D9F21BC0AA2085
:1047D00081F024E0291508F4B4CE2F2D2F7181E04B
:1047E00090E001C0880F2A95EAF790917E02892710
:1047F000AFCF35E0391508F4A4CEEFCF8F2D8F71F0
:10480000A110BFCF0E94FF0C9CCE80E0AA2009F42B
:104810009FCF9F2D9F7181E001C0880F9A95EAF785
:1048200097CFAA2091F08F2D8F71F82E0E94FF0C48
:104830008091BB0282FF07C0A8E0FA9EC00111244C
:1048400083608093F4018F2DDDCF81E00E94E80C1E
:10485000B1E0B91508F075CE82E00E94E80C71CE87
:10486000992039F0893309F4E8CE8E2D0E94DF1C9F
:1048700068CE8F2D8F7185CFB7E7EB16BCE7FB06AF
:1048800009F4B6CD82E0E8E7EE16ECE7FE0609F49F
:10489000B0CD83E0E8168CE7F80609F4D7CD08F030
:1048A000B6CDE114ACE7FA0609F4C3CDB1E0EB16DE
:1048B000BCE7FB0609F048CD0E94E51BF6E1EF16C8
:1048C000FCE7FF06C9F680911F028A7A91E009F49D
:1048D00090E09093E2018111A5CC89E20E94340816
:1048E0000E94DB0DCECAE1143EE7F30609F492CB39
:1048F000F701E851FC47E730F10508F0BDCBE7537D
:10490000FE4C0C94EE2FCF93DF938091F301807FC8
:1049100009F04DC08091F201882309F448C0E0916C
:1049200011035091D802C091EE01D091ED01609138
:10493000EF017091F00147E05E17C9F18E2F90E012
:10494000E49FF0011124E752FD4F2481222391F1CD
:10495000489FF001499FF00D1124DF01A752BD4F80
:1049600011962C9111972C1325C02C912D1322C038
:1049700015962C91159721111DC012962D913C91E1
:10498000261B370B283C3105A8F48091F3018F706A
:1049900080618093F301E152FD4F80818F708061CF
:1049A00080838DEE91E00E948C1E0E94280CDF9186
:1049B000CF910895FC013196E770BECFA4E1B0E03D
:1049C000E4EEF4E20C948F2F8C0186E0F801DE0116
:1049D0001F9601900D928A95E1F7F8018481E58098
:1049E0009DEEA92E91E0B92E9091F101911128C070
:1049F000882319F1EE20F1F0C8010E94C612F82EAA
:104A00008823C1F087E0F801D50101900D928A95C5
:104A1000E1F78091F101813031F48091ED019091C5
:104A2000EE010E94B9120E9483248F2D6496ECE05F
:104A30000C94AB2FC8010E948C1EFF24F394F5CF79
:104A4000D080C18082809380F090F2012091EF01AC
:104A50003091F001A401421B530BFF2009F4D9C08F
:104A6000483C510508F092C08823F9F29091EE017C
:104A70008091F301282F207F09F056C0C91214C07D
:104A80009091ED01D91210C0E11048C08F70806183
:104A90008093F3018DEE91E00E948C1E8091F301D2
:104AA000F8018683F12CC1CFE11038C06C2D8D2D1B
:104AB0000E9481066C2D8D2D0E948106E82E8111A9
:104AC000F1CFDF86C88A8F8598890E94B912292F75
:104AD00022952F70243058F49F70223088F099234B
:104AE00099F0F8019681907F79F4FE2C9ECF2A5F91
:104AF0002F70223068F0C8010E948C1EEF2CF5CF79
:104B0000992311F0882389F3805E883070F3F3CF06
:104B1000803F58F3815F833070F7E7CF8091F301D6
:104B200081608093F301BECFC91207C09091ED015F
:104B3000D91203C0EE2009F48DC0C8010E94C6122C
:104B4000882309F477CFEE2009F474CF8091F30124
:104B5000803288F02091ED013091EE01398728876D
:104B60009B868A869091F1019C871D868E87CE0157
:104B700008960E948C1E87E0F801ADEEB1E001902E
:104B80000D928A95E1F70E94832457CF9091F3010B
:104B9000292F207F51F48DEE91E00E948C1E87E03A
:104BA000F50111928A95E9F77DCF882309F43DCF6D
:104BB0008091EE018C1110C08091ED01D8120CC0D3
:104BC000E1100AC09683C8010E948C1E87E0F5019F
:104BD00011928A95E9F729CFC8010E94C61288234D
:104BE00009F428CFEE2009F425CF8091F30180321B
:104BF00010F22091ED013091EE013A8329839C82DD
:104C00008B829091F1019D831E828F83CE0101964C
:104C1000B0CF483C5105D0F6882309F40ECFFE2CC6
:104C2000EE2009F407CF8091EE018C1120C0809115
:104C3000ED01D8121CC08091F30180FD0FC0982FA8
:104C4000907F61F08683903F31F0982F907F905F46
:104C50008F70892B8683C8010E948C1E87E0F80123
:104C6000ADEEB1E001900D928A95E1F7DECEC8017C
:104C70000E94C61281117FCF8091F30181608093E1
:104C8000F301C8010E948C1ED0CEABE1B0E0EBE492
:104C9000F6E20C94972F4E8B5F8B688F798F8A8FFB
:104CA0009B8F192F91111092F6011D8A86E0FE014B
:104CB0007696DE011F9601900D928A95E1F70A8D96
:104CC000002341F021E04F85588969897A89C8011C
:104CD0000E94E9120B8B1C8B87E0FE013F96DE01E0
:104CE000189601900D928A95E1F7CE0108960E94E0
:104CF000DE2481110CC087E0FE013896DE0111969A
:104D000001900D928A95E1F78C8581110BC017E017
:104D1000809111039091D802891331C06B96E4E021
:104D20000C94B32F2091D80230E0C901019687700E
:104D30009927409111034817190699F097E0929F1F
:104D4000D001939FB00D1124A752BD4FFE013196A3
:104D500001900D929A95E1F78093D8020E94280C59
:104D6000D6CF0E94B2181092D8021092110387E099
:104D7000EDEEF1E0DF011D928A95E9F7C8CF819F42
:104D8000C001112487529D4F0E94DE24882331F2F6
:104D90008091110390E00196877099278093110309
:104DA000B7CFA4E0B0E0E7EDF6E20C94902F1982C3
:104DB0001A821B821C820DE511E081E6E82E81E05B
:104DC000F82E99249394CC24C394D12C25E6A22EBA
:104DD00021E0B22ED8018D918D018F3F09F444C09E
:104DE000F894E82FE295EF70F0E021A18F70A60112
:104DF00002C0440F551F8A95E2F7CA01922F982BE3
:104E000091A392A18095892382A3789400C061E642
:104E100071E0FE013196492D4095DB019D91BD0168
:104E200080819F3F09F44BC0292F22952F7030E0DD
:104E3000D90190962C9130E09F7002C0359527954E
:104E40009A95E2F720FD3BC0892980833196A6160A
:104E5000B70619F7F801319780818F3F11F00E9452
:104E6000D409B0EABA95F1F7990CE016F10609F009
:104E7000B1CF44E050E0BE016F5F7F4F86E292E029
:104E80000E94B230892BF9F089819A81AB81BC8173
:104E90008093260290932702A0932802B0932902C0
:104EA00081E0809325020E947F18909324028093D2
:104EB000230210E0812F2496EBE00C94AC2F842386
:104EC000C4CF10E026C010912502112391F38091E8
:104ED0002302909124020E947018059750F344E039
:104EE00050E066E272E087E392E00E94B230892BE4
:104EF00041F38091260290912702A0912802B0915F
:104F000029028093370290933802A0933902B0931C
:104F10003A0210922502CECFA6E0B0E0E2E9F7E235
:104F20000C94972F0E947F188C0180912102909100
:104F300022028017910781F019821A820E947F183D
:104F4000682F49815A81792F80E090E00E944526A0
:104F500010932202009321022696E4E00C94B32FD2
:104F60001F921FB61F9211248F939F93AF93BF93ED
:104F70008091BC02811113C08091BD029091BE024C
:104F8000A091BF02B091C0024196A11DB11D8093B6
:104F9000BD029093BE02A093BF02B093C002BF9126
:104FA000AF919F918F911F901FBE1F901895CDB705
:104FB000DEB7EF970FB6F894DEBF0FBECDBF85B753
:104FC000806885BF85B7806885BF84B7877F84BFC9
:104FD0000FB6F894A8958091600088618093600076
:104FE000109260000FBE80E890E00FB6F8948093B6
:104FF0006100909361000FBE82ED99E09093B9013A
:105000008093B8010E94A0060E9441078091E200AF
:1050100084608093E20078948091CE028823A1F08E
:105020001091E9001F709091EC00892F817090FD24
:1050300080E8182B1092E9008091E80083FD0E941F
:10504000E3181F701093E90082E084BD93E095BDE2
:105050009AEF97BD80936E000E94EF11811102C0FC
:105060000E94DF1181E08093340226982E9A2598C1
:105070002D9A8FE891E00197F1F700C00000209190
:10508000340245E352E0FA018E2F841B821708F4A4
:1050900053C080EF0E94D40985EF0E94D40984EFA9
:1050A0000E94D40986EF0E94D40987EF0E94D40998
:1050B00081EF0E94D40986E90E94D40987E90E9401
:1050C000D40984E0E7E3F2E0DF01282F1D922A955E
:1050D000E9F7E6E2F2E0DF011D928A95E9F70E9426
:1050E000F516811102C00E94011782E090E00E9433
:1050F000BF3080932D0284E090E00E94CD309093E9
:10510000BB028093BA020E94D126BFEFE6E7F1E02E
:10511000B150E040F040E1F700C000000E94D1260D
:105120008091370280FF14C06FEF7FEF90E080E046
:105130000E9401310E94A20E83B186FB882780F96C
:105140001D9904C090E0892B81939ECF92E0FBCF04
:1051500083E090E00E94BF300E940B0D10929F02EE
:1051600080E8809315030E94892E6BE070E08FE841
:1051700092E00E940E138823E9F180919F0265E07E
:1051800070E081FD27C18AE892E00E940E13882317
:1051900089F16DE070E088E792E00E940E138823A9
:1051A00049F10E94FD07605A75418F4F9F4F6093F0
:1051B000A1027093A2028093A3029093A402EEE155
:1051C000F3E080E092E0DF019C011D92215030402D
:1051D000E1F7F0931F05E0931E058FEF9FEF90938B
:1051E0001D0380931C0381E08093A6028093A50297
:1051F0001092A00280912A02811174C00E94F516BB
:10520000811104C00E9401170E94CA1688E090E034
:105210000E94C7304B015C0184E290E00E94BF30E5
:10522000282F30E040E050E060E070E080E090E067
:1052300000E20E940A30282939294A295B29209353
:10524000760230937702409378025093790260930C
:105250007A0270937B0280937C0290937D022C7F74
:1052600089F50E94CA1688E090E00E94C7306B0161
:105270007C0184E290E00E94BF30282F30E040E0C3
:1052800050E060E070E080E090E00E940A30B22FD1
:10529000A32FF42FE52F5B0197018601BC29A12BD9
:1052A000FE29E32BB0937602A0937702F093780265
:1052B000E093790260937A02B0927B0280937C0241
:1052C00090937D020E942D091092420280917602F5
:1052D00080FF05C060E0869586950E94141E81E0DF
:1052E00080932A0284E091E09093B7028093B60203
:1052F00058E1A52EB12C87E392E034E0380F3FAFA0
:1053000064E0862E912C8091CE028530C1F440E479
:10531000F42EEE24E39400E112E18091CE02853078
:1053200009F45BC00E94B2180E94B20810922C02CD
:1053300080912B0281110E94591E0E94FD1D0E9426
:10534000D1262EE2E22E22E0F22E37E3C32E32E007
:10535000D32ED601F70191918D9122E0E233F2072D
:1053600009F486C09817B9F310E044244394D60199
:105370000D916D01F70151907F01501619F15026E2
:10538000712C66246394852D8621A1F079AE1AAF25
:105390000E947F189CAF8BAF4DAE91E0802F86218D
:1053A00009F490E09EAF49AD5AAD6BAD7CAD8DADCB
:1053B0000E9445267394660CF4E07F12E4CFF70157
:1053C000319700831F5F143091F60E94FD07772408
:1053D000739453C085E892E0D8CE8091CE02843099
:1053E00009F436C01092420280912C0281110DC046
:1053F000E0922C0280917602982F917090932B026C
:105400008E7F809376020E94C60E0E9438131092FF
:10541000BC020FB6F894A895A09260000FBEF0925F
:10542000600083B7817F846083BF83B7816083BF5F
:105430007894889583B78E7F83BF0FB6F894A8952C
:1054400080916000886180936000109260000FBEC0
:105450008091CD02882309F460CF0E94D126E7E332
:10546000F2E08191811127C48FAD8E13FACF55CF11
:1054700098137ACF0E948C27712C80914202882346
:10548000D9F180914102E0917602E695E695E81B1C
:10549000E0933D02823009F04AC0F0E0E555FD4F4F
:1054A000E4910E2F10E09CEFE92E90E1F92E80910F
:1054B0003E02882361F010923E020E947F18909372
:1054C0003C0280933B021092400210923F020E94E5
:1054D0007F18E0913B02F0913C028E1B9F0B8F3FA7
:1054E0009F4750F4E00FF11FF0933C02E0933B0222
:1054F0008BE392E0F701099510E000E082E0682E6E
:105500009DEF592E442443942CEF322E33E0232E6A
:1055100080913402181708F476C0002309F4FBC008
:105520000E94FD070E947B130E945313F8C086302F
:1055300059F4F0E0E855FD4FE4910E2F10E08CEEA9
:10554000E82E80E1F82EB3CF893061F4E695F0E0E3
:10555000EB55FD4FE4910E2F10E0B0E6EB2EB0E1DD
:10556000FB2EA5CF8F3061F4E695F0E0EE55FD4FB0
:10557000E4910E2F10E0ABEFEA2EAFE0FA2E97CFBA
:10558000853159F4F0E0E156FD4FE4910E2F10E023
:10559000FDEAEF2EFFE0FF2E8ACF08E210E062E383
:1055A000E62E6FE0F62E883109F481CF833249F47C
:1055B000EDE9F2E005911491EBE9EE2EE0E1FE2E2B
:1055C00076CF04EF11E05BEFE52E5EE0F52E84323E
:1055D00009F46DCF00ED17E04CE2E42E49E0F42E23
:1055E000853209F064CF8E2F63E00E94C02FE92F2F
:1055F000F0E0E656FD4FE4910E2F10E073E1E72E48
:1056000075E1F72E54CFE12EF12CE3B1E6FBEE2746
:10561000E0F91D997EC080E08E2BD701AB5CBD4FB9
:10562000EC919E2F9370891709F471C0EE0FEE0F65
:10563000E82BEC93EF70F0E0EB59FE4F97012D5CF7
:105640003D4F69018081D9019C91890F8C9320E0A5
:1056500084303CF1F701EE5CFD4F80818F5F8083E9
:105660000E947F181DA73EA6682F8FA798AB29AA76
:105670004AAA412F5CEF792F83E091E00E944526F2
:105680000E947F181BAB3CAA682F8DAB9EAB2FAA44
:1056900018AE412F5CEF792F83E090E00E94452601
:1056A00021E0F60180818D3F3CF5F701EE5CFD4F76
:1056B0008081815080830E947F1819A35AA2682F8D
:1056C0008BA39CA36DA24EA2412F5DEF792F82E0A8
:1056D00091E00E9445260E947F181FA358A6682FBC
:1056E00089A79AA76BA61CA6412F5DEF792F82E0B0
:1056F00090E00E94452621E0D6018C91082E000CF6
:10570000990BB4010E94DA2FF6018083022B1F5FF0
:10571000FFCE82E081CF0E947B13711005CF86E01F
:10572000EEEAF2E0DE01119601900D928A95E1F722
:10573000D090AF020091B002F090B102E090B202BE
:105740001091B3021092B0021092B1021092B20204
:105750001092B302802F8F2909F445C08091AC02CA
:105760009091AD020E9470189C019091A70299231C
:1057700009F4CAC225313105B0F19F3F19F09F5F8E
:105780009093A702002359F00E94E1089FEF1016A2
:105790000CF491E0899F802D11248093B002FF20AA
:1057A00059F00E94E10891E01F140CF09FEF899FCF
:1057B000802D11248093B1028091B002882399F04A
:1057C000C090B102CC2079F00E940109882309F42D
:1057D000ABC08093B0028C2D0E940109882309F48C
:1057E000A5C08093B102812F8E2909F445C0809114
:1057F000AA029091AB020E9470189C019091A8029D
:10580000992309F47CC221353105B0F19F3F19F08D
:105810009F5F9093A802EE2059F00E94BF089FEF6F
:105820001E140CF491E0899F802D11248093B20204
:10583000112359F00E94BF0891E011160CF09FEF60
:10584000899F802D11248093B3028091B202882316
:1058500099F0E090B302EE2079F00E9401098823CC
:1058600009F466C08093B2028E2D0E94010988233C
:1058700009F460C08093B3028091AF028D1117C00C
:105880008091B002882311F0081311C02091B10259
:10589000222311F02F110BC09091B302992311F024
:1058A000191305C03091B202332309F41AC20E94C1
:1058B0008B1886E0FE013196AEEAB2E001900D92BF
:1058C0008A95E1F70E94B20890913602891721F07B
:1058D000809336020E94FD078091CE02843009F049
:1058E00012CD83E08093E9008091E80082FF0BCD28
:1058F0008091E80090E085FF05C00E94BF068823E4
:10590000D9F091E08091E8008B778093E8009923AB
:1059100009F4F9CC8981EFEFE80FE531A8F5F0E063
:10592000E053FE4C0C94EE2F81E053CF81E059CF31
:1059300081E098CF81E09ECF00E210E09E012F5FD2
:105940003F4F79018091E80085FD0AC08091E80011
:105950008B778093E8000E94BF06882399F3D1CF0C
:105960008091F100D7018D937D010150110951F70C
:10597000C8CF1A828CE08B831BC08A81823009F4E5
:10598000B5C128F4813061F08FEF898311C0833075
:10599000C1F08430C9F71B821C821D821E8208C0A0
:1059A0000E94FD070E94F42F6B837C838D839E836E
:1059B00040E250E0BE016F5F7F4F82E00E943E0EEA
:1059C000A2CC2B81822F90E0FE013496245E84309D
:1059D000910570F7DC01A95CBD4F3C9131930196B4
:1059E0002813F5CFE5CF8A81823081F0853061F6CA
:1059F0008091760280FF15C0809176028E7F809321
:105A00007602109242020E94C60ED2CF6B817C8138
:105A10008D819E810E94F42F88E290E00E94E33005
:105A2000C7CF0E94591EC4CF4C816B818A810E94CE
:105A30003B129827892798279E838D83B9CF2D8184
:105A40003E813227232732274C816B818A810E9435
:105A50006511AECF0E948C11ABCF9A81923009F0C4
:105A600093CF8830B1F1893009F45FC08B818230E7
:105A700009F1A8F4813009F09BCF8C81BFEF8B9F97
:105A8000C00111246FEF70E00E94752F462F20E0B7
:105A900060917802809177020E94CF1589CF833080
:105AA000A1F0843009F084CF20E0409179026D812B
:105AB0008C81F2CF8C81882309F49ECF0E94591EDD
:105AC00060E08C810E94141E73CF8C8180937A02D7
:105AD0006FCF8B818230E1F078F4813009F068CFAC
