:100000000C94FA020C9432030C9432030C943203D5
:100010000C9432030C9432030C9432030C9432038C
:100020000C9432030C9432030C94E02E0C94B42FF5
:100030000C9465290C9432030C9432030C94320313
:100040000C9432030C9432030C9432030C9432035C
:100050000C9432030C94EC290C9432030C9432036C
:100060000C9432030C9432030C9432030C9432033C
:100070000C9432030C9432030C9432030C9432032C
:100080000C9432030C9432030C9432030C9432031C
:100090000C9432030C9432030C9432030C9432030C
:1000A0000C9432030C9432030C9432030401FA00D2
:1000B000F000E600DC00D200C800BE000000030132
:1000C0000000FFFF0000000002010000FFFF000031
:1000D000000001010000FFFF00000000000100001F
:1000E000FFFF000000000004AAFFFFFF0000000067
:1000F000000455FFFFFF00000000000400FFFFFFA9
:100100000000000000040000FFFF00000000A90044
:10011000AA00237824782578267851005200AC0074
:10012000A800AB00AD00AE00AF00B200B300017E8E
:100130002178207822782878007E27782E782C78ED
:10014000017E010001000100010001000100010029
:100150000100017E01000100010001520100025274
:10016000007E0100017E1E0F0500047F3F1F6432E8
:1001700014643214783C1E1E140A052223252628F6
:10018000292A2C2D2F3032333536383A3B3D3E402C
:1001900042434547494A4C4E5051535557595A5C72
:1001A0005E6062646668696B6D6F71737577797B89
:1001B0007D7F81838587898A8C8E90929496989A88
:1001C0009C9E9FA1A3A5A7A8AAACAEAFB1B3B4B69D
:1001D000B8B9BBBCBEBFC1C2C3C5C6C7C9CACBCCF8
:1001E000CDCED0D1D2D2D3D4D5D6D7D7D8D9D9DACB
:1001F000DADBDBDBDCDCDCDCDCDDDDDDDDDCDCDC40
:10020000DCDCDBDBDBDADAD9D9D8D7D7D6D5D4D367
:10021000D2D2D1D0CECDCCCBCAC9C7C6C5C3C2C13C
:10022000BFBEBCBBB9B8B6B4B3B1AFAEACAAA8A799
:10023000A5A3A19F9E9C9A98969492908E8C8A8951
:10024000878583817F7D7B79777573716F6D6B692E
:1002500068666462605E5C5A5957555351504E4C03
:100260004A4947454342403E3D3B3A3836353332B2
:10027000302F2D2C2A292826252322FFAA7F5540FE
:100280000001010101010101010102020202020259
:10029000020202030303030303030304040404042C
:1002A00004040505050505060606060607070707F3
:1002B0000708080808090909090A0A0A0B0B0B0CA8
:1002C0000C0C0D0D0D0E0E0E0F0F0F101011111145
:1002D00012121313141415151616171718181919C6
:1002E0001A1A1B1B1C1D1D1E1E1F2020212222232B
:1002F0002424252626272829292A2B2C2D2D2E2F6C
:1003000030313232333435363738393A3B3C3D3E82
:100310003F404142434445464748494A4C4D4E4F71
:1003200050515354555658595A5B5D5E5F61626433
:10033000656668696B6C6D6F7072737577787A7BC0
:100340007D7E8082838587888A8C8E8F9193959617
:10035000989A9C9EA0A2A3A5A7A9ABADAFB1B3B537
:10036000B7BABCBEC0C2C4C6C9CBCDCFD1D4D6D813
:10037000DBDDDFE2E4E7E9EBEEF0F3F5F8FAFDFFB1
:1003800000000000000000002A2B280000000000F0
:100390000000000000000000000000290000000034
:1003A0002C1E3420212224342627252E362D3738A2
:1003B000271E1F202122232425263333362E3738AB
:1003C0001F0405060708090A0B0C0D0E0F10111269
:1003D000131415161718191A1B1C1D2F3130232D35
:1003E000350405060708090A0B0C0D0E0F10111233
:1003F000131415161718191A1B1C1D2F3130354CE4
:1004000000000000000000000000000000000000EC
:1004100000000000000000000000000000000000DC
:10042000000000007E0F00D4FFFFFFC7000000782F
:1004300014034E006F006F0064006C0065005000F4
:100440006100640000001E03540068006500200085
:100450004D006100640020004E006F006F006400DA
:100460006C00650000000403090409025B0003013D
:1004700000A0FA0904000001030101000921110193
:10048000000122440007058103080001090401005E
:1004900002030000000921110100012222000705CA
:1004A0008203200001070503032000010904020064
:1004B000010300000009211101000122B600070517
:1004C000840320000112010002000000086C6A028F
:1004D000000002010200010660FF0961A10109623A
:1004E000150026FF00952075088102096315002676
:1004F000FF00952075089102C005010902A1018540
:10050000020901A100050919012908150025019515
:1005100008750181020501093009311581257F9592
:10052000027508810609381581257F9501750881B6
:1005300006050C0A38021581257F9501750881068C
:10054000C0C005010980A101850319012AB7001562
:100550000126B700950175108100C0050C0901A1A5
:1005600001850419012AA002150126A00295017532
:10057000108100C005010906A1018506050719E0E3
:1005800029E7150025019508750181020507190065
:1005900029EF1500250195F0750181020508190163
:1005A0002905950575019102950175039101C00515
:1005B000010906A101050719E029E71500250195A4
:1005C0000875018102950175088101050719002947
:1005D000FF150026FF009506750881000508190122
:1005E00029051500250195057501910295017503F1
:1005F0009101C00011241FBECFEFDAE0DEBFCDBFF6
:1006000004B603FE18C08091330390913403A09187
:100610003503B09136038730904BA740B04B59F467
:100620001092330310923403109235031092360364
:10063000E0E0F8E3099511E0A0E0B1E0ECE8F7E6CE
:1006400002C005900D92A43FB107D9F723E0A4EFB3
:10065000B1E001C01D92A333B207E1F70E94BA13C3
:100660000C945B330C9400008CEA90E09093D102E0
:100670008093D0020895CF9381152EE79207B1F0B1
:10068000C1E081309E4709F07DC0FB018581882350
:1006900089F0809105020E943B05843058F48F5FF9
:1006A000843009F480E00E94380904C0FB01858190
:1006B000811102C0C0E066C0C091050381E0C82777
:1006C000C0930503CC2329F180E00E9432098823DE
:1006D00021F061E084E00E94701581E00E943209FF
:1006E000882321F061E085E00E94701582E00E947D
:1006F0003209882321F061E086E00E94701583E0D2
:100700000E9432098823B1F261E087E00E947015EF
:10071000D1CF60E084E00E94701560E085E00E9427
:10072000701560E086E00E94701560E087E00E942E
:10073000701580E00E943209882329F068EE73E08A
:1007400080E00E94C11581E00E943209882329F0CF
:1007500068EE73E081E00E94C11582E00E943209D8
:10076000882329F068EE73E082E00E94C11583E0DF
:100770000E943209882309F49DCF68EE73E083E07C
:100780000E94C1158C2FCF910895CF93C82F8091CF
:100790000503882319F160E08C2F0E942309682F3C
:1007A00084E00E94701561E08C2F0E942309682F5D
:1007B00085E00E94701562E08C2F0E942309682F4B
:1007C00086E00E94701563E08C2F0E942309682F39
:1007D00087E00E9470158C2FCF9108958C2F0E9476
:1007E0003B05813061F0882321F0823061F0833055
:1007F00071F064EF71E080E00E94C115ECCF64EF0E
:1008000071E081E0F9CF64EF71E082E0F5CF64EF51
:1008100071E083E0F1CF8430B8F46330A8F4433062
:1008200098F450E093E0699F400D511D1124FA01A6
:1008300099E0899FE00DF11D1124EE0FFF1FE25E8C
:10084000FE4F85919491089581E090E00895843061
:1008500088F461110FC090E0880F991FE1E0E42750
:10086000E80FF92FF11DEE0FFF1FE25FFE4F85919C
:100870009491089581E090E0089581E008950E94A8
:100880003D04089581E008950E943B030895089572
:100890000E9447040895A6E0B0E0E1E5F4E00C947E
:1008A000FE3149835A839E833091FB0189819A816D
:1008B00031111AC03E81332399F0222389F00E941E
:1008C000000A182F682F89819A810E94CD096981B9
:1008D0007A81812F0E9435112696E3E00C941A321A
:1008E0000E94E709182FF3CF0E94000A69817A81DC
:1008F000F1CFFC01262F4081518162817381848177
:1009000095810E944B040895CF93DF93EC0161E041
:100910000E947904BE010E943F04DF91CF910895A7
:10092000CF93DF93EC0160E00E947904BE010E9446
:100930004804DF91CF91089581E008950E949C04BE
:100940000895CF93C82F0E94B7088C2F0E949E0451
:100950002FEF84E39CE0215080409040E1F700C0FD
:100960000000CF91089581E00E94A1040E94102A06
:10097000089580E00E94A1040E94342A08950F93F4
:100980001F93CF93DF938C0161E00E947904EC0107
:10099000F801858181110E949A1CB801CE010E9444
:1009A000F325811106C080E0DF91CF911F910F9157
:1009B0000895B801CE010E9444048823A1F3B80130
:1009C000CE010E94FD24882371F3B801CE010E945C
:1009D0006420882341F3B801CE010E943A20882385
:1009E00011F3B801CE010E94B91C8823E1F2B801CD
:1009F000CE010E9441258823B1F2F8018581882328
:100A000061F0C330FCE7DF07E9F058F4C115ECE70B
:100A1000DE07A9F0C130DC47B9F0C8010E944204EA
:100A2000C3CFCB358CE7D807A9F0CC35ECE7DE0790
:100A300071F0CA35DC4789F70E94690EEECF0E943B
:100A4000B304B1CF0E94710E0E94B904ACCF0E94D2
:100A50005F0EE3CF0E946D0EE0CF0E9442290E94FC
:100A600069050E94C61A08950E946D050E94D11B57
:100A70000E9447290895982F92959F7011F0892F11
:100A800094E0282F2695269511F09E5F822F86955B
:100A900009F09F5F892F0895089581E008950895D2
:100AA000CF93DF93D82F0E944D05C82F882319F0CC
:100AB0008D2F0E944F058C2FDF91CF9108950895BF
:100AC000CF93C82F0E944C058C2F0E945005CF91C8
:100AD000089580E00E94600508950E9482270E9488
:100AE00060050895CF930E948227C82F8091F60158
:100AF0008C1779F0C093F6010E94D1296093F70119
:100B00007093F8018093F9019093FA018C2F0E9461
:100B10006005CF910895ADE0B0E0E1E9F5E00C9417
:100B2000FF31488759876A877B878C879D8791111A
:100B30000E946F0D1F8286E0FE013896DE0111963D
:100B400001900D928A95E1F78D8181110DC0298167
:100B50003A814B815C816D817E818F810E94B90CCD
:100B60002D96E2E00C941B32CE0101960E94840483
:100B70008111EDCFF5CFFC012481213021F480815A
:100B800091810E942D0A0895662329F00E94C521B3
:100B90000E94AA2208950E943122FACFCF93C82F33
:100BA000882399F08CEF8C0F813A88F48C2F0E9467
:100BB0002228882329F08C2F0E94C2280E94030E2D
:100BC0008C2F0E94AB280E94030ECF91089580E2E3
:100BD0008C0F883048F4C77081E001C0880FCA9537
:100BE000EAF70E94520DEFCFEBE5EC0FE33040F453
:100BF000F0E0E959FE4F808190E00E94B627E5CFF2
:100C0000E8E5EC0FEB3150F4F0E0EE0FFF1FEF5C86
:100C1000FE4F808191810E94DB27D7CF83E38C0F29
:100C2000833198F661E08C2F0E94C405CECF8823D3
:100C300081F19CEF980F913A28F40E94C2280E94FB
:100C4000030E089590E2980F983050F4877091E069
:100C500001C0990F8A95EAF7892F0E94580DEFCFAE
:100C60009BE5980F933028F490E080E00E94B6272F
:100C7000089598E5980F9B3128F490E080E00E9459
:100C8000DB27089593E3980F933118F460E00E94F6
:100C9000C40508951F93CF93DF93182FEB010E9493
:100CA000CE05209739F4812F0E941706DF91CF914E
:100CB0001F9108958FE99FE00197F1F700C00000B0
:100CC0002197EFCF70E060E0893311F460E570E0C8
:100CD0000E944A060895882321F00E94520D0E9426
:100CE000030E0895882321F00E94580D0E94030EE0
:100CF0000895B0E0A0E0EFE7F6E00C94F8316C0165
:100D0000D62FC72FFC011581068102950F700E9416
:100D1000480DE82E8823F9F0E12E1123E1F08C2F05
:100D2000807F803461F080E28D0F883008F18C2F55
:100D3000807E803221F4D230D8F00023C9F0809137
:100D4000070382FF15C082E00E94330E0E94480D07
:100D500091E0E82EE926BC2EB2949FE0B922FBE098
:100D6000FB15B8F1EB2DF0E0E35AFC4C0C94B131DB
:100D7000E12CF1CF0C2F0F70C07F11F00295007F96
:100D8000112399F0002359F080E28D0F883010F084
:100D9000D11107C0802F0E94520D0E94030E8D2F8B
:100DA0005AC0802F0E94620DF8CF8D2F0E94170627
:100DB000002379F080E28D0F883010F0D11104C04B
:100DC000802F0E94580D03C0802F0E94680D0E9442
:100DD000030EEB2DE850FF0B349720F40E9482277E
:100DE0000E946005EE2089F00E94440D80FD0DC038
:100DF000F60115820E943E0D0E944109C6010E9423
:100E00007E080E943E0D0E944D09CDB7DEB7E9E095
:100E10000C9414322C2F2F70F22EC07FC03219F098
:100E2000F29480EFF822DD2341F0D130D1F111238B
:100E300009F444C00023F1F0B2CF8091070382FD92
:100E400015C0112359F0FF2029F08F2D0E94520D5B
:100E50000E94030E80E00E94CE05BBCF80E00E947E
:100E60001706FF2009F4B5CF8F2DABCF112369F002
:100E7000011104C08F2D0E946B06ABCF013009F029
:100E8000A8CF8F2D0E94860DA4CF0111A2CF8F2D48
:100E90000E9472068F2D0E94920D8F2D0E94760D5A
:100EA00098CF112321F0063008F093CFE3CF05301F
:100EB00008F08FCF8F2D0E9472068BCF0023D1F3C5
:100EC000D93349F43FEF87EE93E0315080409040B2
:100ED000E1F700C000008D2F0E9417067ACF8C2FFB
:100EE00086958695837069F0813009F072CF8D2FD9
:100EF0009C2F9370111102C080E090E00E94DB27CC
:100F000068CF8D2F9C2F9370111102C080E090E06C
:100F10000E94B6275ECF612F8D2F0E94C40559CF46
:100F20008C2F837079F5111154CF4D2F4295469532
:100F30004770440F440F8D2F8F70042E01C0880F0F
:100F40000A94EAF72D2F2071D4FF07C02FE030E07C
:100F500001C0220F4A95EAF72095C695C695C37041
:100F6000822BC23049F058F4C13019F00E940B09AD
:100F700030CF0E9405092DCF0E9411092ACF0E946F
:100F8000020927CF8695112311F08C2F81708823B9
:100F900009F41FCF4D2F429546954770440F440FDB
:100FA0008D2F8F70042E01C0880F0A94EAF72D2F21
:100FB0002071D4FF07C02FE030E001C0220F4A9516
:100FC000EAF72095C695C695C370822BC23049F0CA
:100FD00058F4C13019F00E946C09FBCE0E946609DA
:100FE000F8CE0E947209F5CE0E941A09F2CECF7097
:100FF000112329F08C2F0E9441098D2F3CCF8D2F7A
:101000000E9472068C2F0E944D09E3CED23F41F11F
:1010100060F4D03FB9F0D13F81F0112309F446C00C
:101020000111BDCE8C2F8F711FC0D33F01F1D43F72
:10103000A1F78091070382FD24C08C2F8F711123AB
:1010400011F312C0112341F0053008F0C2CE8C2FED
:101050008F710E945A09BDCE063008F0BACEF7CF84
:101060008C2F8F711111CFCF0E944109B2CE112365
:1010700029F08C2F8F710E943809ABCE0E941F0976
:10108000A8CE112349F0CF718C2F0E94410963E053
:101090008C2F0E94150E9DCE81E00E94330E0230EF
:1010A00008F497CE82E00E94330E93CE002359F0CD
:1010B000D93309F010CFEFEFF7EE23E0E150F04025
:1010C0002040E1F706CF8C2F8F719DCF0F931F9398
:1010D000CF93DF93EC01688179818D810E94380A7A
:1010E0008C010E9478090E940109B801CE010E947A
:1010F0007906DF91CF911F910F910895CF93DF93E0
:10110000EC018C81882399F0CE010E94BF048111EB
:1011100011C00E94480D882351F08D81882339F039
:101120008091070382FF03C082E00E94330EDF91AB
:10113000CF910895CE010E946608CE010E949004CE
:10114000F6CF90E080E00E94B62790E080E00E9419
:10115000DB270E946F0D0E94030E0E94C6220E9490
:10116000AA2208950E94D9280E94A10808950E94E9
:101170005F0D0E94B208089592959F70963091F08D
:1011800058F4925F9F70923058F4803F19F030F419
:10119000883E30F481E008959A5FF4CF843FD1F324
:1011A00080E00895883EB0F3813FD1F7F3CFFC0192
:1011B0002481222339F0808191810E942D0A0E948E
:1011C000BC08089580E00895A6E0B0E0EAEEF8E0FB
:1011D0000C94FF312696E2E00C941B32A7E0B0E0BD
:1011E000E4EFF8E00C94FF312796E2E00C941B3218
:1011F00008950E94F80808950E94F9088093060255
:10120000089508950E94FC08089590910602892B84
:101210000E94FC0808959091060289230E94FC0810
:1012200008959091060289270E94FC0808950E9463
:10123000C50308950E94170980930502089580E070
:101240000E941A090895811105C081E0662349F0C2
:1012500080E0089590E002C0959587956A95E2F741
:1012600081700895682F809105020E9423090895D6
:1012700091E001C0990F8A95EAF7892F0E941A0917
:10128000089521E030E001C0220F8A95EAF78091AD
:101290000502822B0E941A09089521E030E001C066
:1012A000220F8A95EAF720958091050282230E94F9
:1012B0001A09089521E030E001C0220F8A95EAF76B
:1012C0008091050282270E941A09089590910502D3
:1012D000892B0E941A0908959091050289230E9482
:1012E0001A0908959091050289270E941A09089504
:1012F0000895262F277091E001C0990F2A95EAF7EB
:1013000023E0769567952A95E1F7FB01EE0FFF1F25
:10131000E60FF71FE40FF51F50E040E0682F70E084
:101320008191DF0111979B01042E02C0369527950C
:101330000A94E2F7217021952827292328272C9346
:101340004F5F5F4F4330510559F70895A82FA7709D
:1013500023E0969587952A95E1F7FC01EE0FFF1F94
:10136000E80FF91FE60FF71F50E040E080E0219101
:1013700030E00A2E02C0369527950A94E2F72170D4
:101380003327042E01C0220F0A94EAF7822B4F5F05
:101390005F4F4330510559F70895282F862F93301A
:1013A00070F4233058F4622F70E023E0929F600DB8
:1013B000711D11244FEF51E00E94790908959C5F3F
:1013C0009230E0F7622F70E04CEF51E0F5CF292F1B
:1013D000933068F4833090F490E06FEF71E033E085
:1013E000239F800D911D11240E94A60908952C5F52
:1013F000223020F46CEF71E090E0F6CF80E00895A9
:10140000CF92DF92FF920F931F93CF93DF936C01E4
:101410000091050280910602082BC3E0D0E010E0A5
:10142000FC2EC8010C2E02C0959587950A94E2F710
:1014300080FD0CC02197A0F7F12C8F2DDF91CF916B
:101440001F910F91FF90DF90CF900895B6018C2FE0
:101450000E944E11019771F3F0CFCF93DF93EC010F
:101460000E94000ABE010E944E11DF91CF910895A3
:101470001F93CF93DF93EB019091FB01992339F0F8
:10148000CB010E942D0ADF91CF911F9108958823EF
:1014900069F0CB010E94000A182F682FCE010E942C
:1014A000CD09BE01812F0E944E11EDCFCB010E94CC
:1014B000E709182FF6CFE1E0F0E0DF0102C0AA0F44
:1014C000BB1F6A95E2F7BD01DF0102C0AA0FBB1F77
:1014D0004A95E2F76A2B01C0EE0F2A95EAF7962F9C
:1014E0009823961302C08E2B0895E0958E230895BD
:1014F000242F462F682F809105020E945B0A0E94CC
:101500001A0908951F93CF93DF93C091070217E044
:10151000809108028C1304C0DF91CF911F91089530
:10152000D0E01C9FF0011D9FF00D1124E75FFD4FDF
:1015300020813181428153816481758186810E943D
:10154000EE082196C770E4CF20914102309142020B
:1015500040914302509144026091450270914602CD
:10156000809147020E94EE080895CF93DF93809107
:101570004702807F09F04DC080914602882309F41C
:1015800048C0E091070250910802C0914202D091F8
:101590004102609143027091440247E05E17C9F135
:1015A0008E2F90E0E49FF0011124E75FFD4F24812E
:1015B000222391F1489FF001499FF00D1124DF0192
:1015C000A75FBD4F11962C9111972C1325C02C911C
:1015D0002D1322C015962C91159721111DC012961E
:1015E0002D913C91261B370B283C3105A8F48091A6
:1015F00047028F70806180934702E15FFD4F8081D9
:101600008F708061808381E492E00E947E080E9456
:10161000820ADF91CF910895FC013196E770BECF29
:10162000482F209107029091080257E0291302C029
:1016300080E0089530E0529FF001539FF00D112497
:10164000E75FFD4F8181681306C08081481303C0A6
:1016500085818111EECF2F5F3F4F2770E7CFA4E147
:10166000B0E0E5E3FBE00C94F5318C0186E0F80195
:10167000DE011F9601900D928A95E1F7F8018481B1
:10168000E58091E4A92E92E0B92E90914502911146
:101690001FC08823D1F0EE20A9F0C8010E94D7080E
:1016A000F82E882379F087E0F801D50101900D929A
:1016B0008A95E1F7C5010E94BB050E94B50A0E9408
:1016C000A40A5FC0C8010E947E08FF24F39459C099
:1016D000C080D18082809380F090460220914302A6
:1016E00030914402A401421B530BFF2009F4F9C0BE
:1016F000483C510508F0A7C0882309F442C09091E6
:10170000420280914702282F207F09F05CC09D1182
:1017100016C090914102C91212C0E1104EC08F70E4
:101720008061809347020E94A40A81E492E00E94B3
:101730007E0880914702F8018683F12C22C0E110D7
:101740003CC06D2D8C2D0E94100B6D2D8C2D0E9498
:10175000100BE82E8111F1CFCF86D88A8F8598891A
:101760000E942D0A292F22952F70243078F49F7023
:101770002230A8F09923B9F0F8019681907F99F46E
:10178000FE2C8F2D6496ECE00C9411322A5F2F70A2
:10179000223068F0C8010E947E08EF2CF1CF992317
:1017A00011F0882369F3805E883050F3F3CF803FD7
:1017B00038F3815F833070F7E3CF80914702816017
:1017C00080934702BACF9D1113C090914102C91274
:1017D0000FC0E1100DC08683C8010E947E0887E01B
:1017E000F801A1E4B2E001900D928A95E1F767CF8C
:1017F000C8010E94D708882309F464CFEE2009F4B9
:1018000061CF80914702803288F02091410230916F
:101810004202398728879B868A86909145029C8759
:101820001D868E87CE0108960E947E0887E0F8010B
:10183000A1E4B2E001900D928A95E1F70E94B50A09
:101840000E94A40A42CF90914702292F207FA1F441
:10185000682D9A8A898AA6017A899E2D0E94E408B9
:1018600081E492E00E947E0887E0F50111928A955A
:10187000E9F70E94A40A61CF882309F482CF8091FE
:1018800042028D1110C080914102C8120CC0E110BB
:101890000AC09683C8010E947E0887E0F501119274
:1018A0008A95E9F76ECFC8010E94D708882309F40A
:1018B00009CFEE2009F406CF80914702803208F468
:1018C000B5CF20914102309142023A8329839C8214
:1018D0008B82909145029D831E828F83CE0101965B
:1018E000A3CF483C5105B8F5882309F4EECEFE2C71
:1018F000EE2009F4E7CE809142028D111EC0809146
:101900004102C8121AC08091470280FD0DC0982F75
:10191000907F51F08683903F09F45ECF982F907F9F
:10192000905F8F70892B57CF87E0F801A1E4B2E078
:1019300001900D928A95E1F724CFC8010E94D70843
:10194000811174CF80914702816080934702C80162
:101950000E947E0816CF682D9A8A898AA6017A8904
:101960009E2D0E94E40887E0F50111928A95E9F71F
:10197000A6CEAEE0B0E0EFEBFCE00C94FE312887A1
:1019800039874A875B876C877D878E87CE0108966B
:101990000E942F0B8823B1F06C85662341F02885C7
:1019A00039854A855B857D858E850E94EE0817E026
:1019B000809107029091080289133DC02E96E3E0C2
:1019C0000C941A3287E0FE013896DE0111960190E0
:1019D0000D928A95E1F78C85882349F320910802BE
:1019E00030E0C90101968770992740910702481796
:1019F000190699F097E0929FD001939FB00D1124A2
:101A0000A75FBD4FFE01319601900D929A95E1F7C7
:101A1000809308020E94820ACACF0E94B7081092DF
:101A200008021092070287E0E1E4F2E0DF011D9274
:101A30008A95E9F7BCCF819FC0011124875F9D4F34
:101A40000E942F0B882309F4B9CFE09107021E9F53
:101A5000F0011124E75FFD4F2081318142815381E4
:101A60006481758186810E94EE088091070290E072
:101A7000019687709927809307029ACF8091700210
:101A80008695869586950895809170028770089551
:101A900090917002977081E009F480E00895809140
:101AA0009C02089590919C02892B80939C0208953A
:101AB000809590919C02982390939C020895109297
:101AC0009C02089590919B02892B80939B0208951C
:101AD000809590919B02982390939B020895109279
:101AE0009B02089508950E94720D089590917102CD
:101AF000292F282331F080958923809371020E9439
:101B0000730D089508950E94820D089590917202B8
:101B1000292F2823281729F0982B909372020E94CE
:101B2000830D089590917202292F282331F080951A
:101B30008923809372020E94830D0895809172021E
:101B4000882329F01092720280E00E94830D08958C
:101B5000CF93C0919C0280919B02C82B809172020E
:101B6000882331F0C82B0E94002881110E949E0D0D
:101B70008C2FCF910895CF93DF93C0910601D09120
:101B800007010E94A80D8883C0910601D09107012A
:101B900048E050E068E672E0CE010E94CE32892B28
:101BA00059F088E0FE01A8E6B2E001900D928A9516
:101BB000E1F7CE010E948F27DF91CF910895CF9357
:101BC000DF93C0910401D09105010E94A80D898383
:101BD000C0910401D091050140E250E068E472E058
:101BE000CE010E94CE32892B59F080E2FE01A8E49A
:101BF000B2E001900D928A95E1F7CE010E949A27FA
:101C0000DF91CF91089580913001882339F0809140
:101C1000060387FF03C00E94DF0D08950E94BB0DDD
:101C2000089508950E94110E08959091070392FF60
:101C300011C098E0899F90011124622B609370027B
:101C40000E944109809170028695869586950E9432
:101C5000120E08950E94410908951092700280E0CA
:101C60000E94120E089590917002809589238093AE
:101C70007002282F277069F4891759F09091070393
:101C800092FF07C08695869586950E944D090E9411
:101C90002D0E08959091070392FB222720F9281713
:101CA00069F080FB92F9909307038091060390916D
:101CB00007030E94930E82E00E94330E08958091E4
:101CC000070382FB882780F991E089270E944A0E4A
:101CD000089581E00E944A0E089580E00E944A0E15
:101CE00008956FEF7FEF90E080E00E942633089523
:101CF00090E080E00E94F232863E9E4F19F40E94EE
:101D00008A25089580E0089582E090E00E94E43200
:101D1000089583E090E00E94E432089584E090E02A
:101D20000E94F2320895BC0184E090E00E942633C4
:101D30000895AB01BC018FE090E00E941A33089532
:101D4000AB01BC0183E190E00E941A33089560E08A
:101D500070E0CB010E94A00E089560E070E0CB011E
:101D60000E94990E0E94A70E0895A8E0B0E0EBEB48
:101D7000FEE00C94FF3166EE7EEF90E080E00E9482
:101D8000263360E082E090E00E94083381E0809397
:101D9000060261E083E090E00E94083360E074E1B5
:101DA00084E090E00E94263360E086E090E00E94AC
:101DB00008336FEF87E090E00E94083340E050E086
:101DC000BA0188E090E00E941A3360E084E290E07B
:101DD0000E94083360E087E190E00E94083360E0F1
:101DE0008CE090E00E94083360E08DE090E00E947B
:101DF000083319821A821B821C821D821E821F8256
:101E0000188648E050E068E170E0CE0101960E943B
:101E1000F83240E050E0BA0180E290E00E941A33CC
:101E200080E00E94A3250E94D3250E94AD0E289633
:101E3000E2E00C941B320E94B50E0895682F8EE0EC
:101E400090E00E9408330895A6E0B0E0EAE2FFE0E7
:101E50000C94FD310E94C5298C0180919D029091C6
:101E60009E028017910781F019821A820E94C5296B
:101E7000682F49815A81792F80E090E00E948B057C
:101E800010939E0200939D022696E4E00C94193272
:101E90000E94D1296093AA027093AB028093AC0296
:101EA0009093AD026093A6027093A7028093A8025C
:101EB0009093A90208950E94D1296093AA02709379
:101EC000AB028093AC029093AD026093A202709338
:101ED000A3028093A4029093A50208950895089503
:101EE0000E946E0F08950E943403089584E492E1E5
:101EF0000E94C7130E946F0F0E94700F089581E027
:101F000008950E947F0F08950E947F0F08950895FD
:101F100008950E94870F0E94880F08950E946312FF
:101F20000E945F0508950E94BC290E94E3250E943B
:101F3000321D0E9420130E948E0F0E94791B0E9466
:101F4000730F0895A6E0B0E0E8EAFFE00C94F631E4
:101F50000E94810F811111C00E94240F0E949B1CBE
:101F60000E944F1D81110E945B0F0E94E8220E9477
:101F700072052696EBE00C9412320E9436131091F3
:101F80009F0280E00E94861218130EC01091A002DA
:101F900081E00E948612811307C01091A10282E0A5
:101FA0000E9486121817C1F28091AE0281FD0E9434
:101FB0008C120E94840FC82E8FE9A82E82E0B82EC2
:101FC00010E099249394812F0E948612082FF50126
:101FD00081915F01081729F1D02ED826F12CEE242B
:101FE000E3948D2D8E21A9F0CC2099F0F9821A83EB
:101FF0000E94C5299C838B839D8291E0802F8E2136
:1020000009F490E049815A816B817C818D810E9425
:102010008B05F394EE0CF3E0FF12E3CFF50131975B
:1020200000831F5F133079F60E94480F97CF1F93EC
:10203000CF93DF930E945311EC01C11580E5D807BF
:10204000F0F5C11580E4D80708F09CC0C03ED1056A
:1020500020F5CD3CD10508F082C0C83AD10578F40E
:10206000C53AD10508F073C0C130D10519F12097E8
:1020700009F1C430D105F0F4D0E0C0E01BC0C33C8E
:10208000D105D0F7C85AD0E0CC0FDD1FC659DE4FBE
:102090000990D881C02DD4640DC0C11580E2D80745
:1020A00008F0D1C0C11581E0D80708F05AC0C83E79
:1020B000D10510F7CE01DF91CF911F910895C03661
:1020C00082E5D80718F5C03482E5D80708F06BC060
:1020D000C03282E5D80708F05FC0C11582E5D80795
:1020E00008F497C02C2F2695269580E2289F900112
:1020F00011248C2F8370C1E0D0E002C0CC0FDD1F13
:102100008A95E2F7C22BD32BDD68D4CFC03A82E5A3
:10211000D80760F4C03882E5D80708F459C0CF71F9
:10212000D0E0DC2FCC27C46FD06AC4CFC03C82E59E
:10213000D80708F462C0C03E82E5D80708F09CCFFB
:10214000DC2FCC27CC27DF71C06FD06AB3CFC55A44
:10215000D0E0C056DE4FC881D0E0D064ABCFD065B0
:10216000A9CF8D2F0E94F511182FCE0199270E941B
:102170005311C12FD0E0DC2FCC27CC27DF71C82B27
:10218000D92B98CFCE0199270E945311CC27DF700D
:10219000C82BD92BD06A8ECFCF71D0E0DC2FCC27C3
:1021A000C16FD06A87CF2C2F26952695277080E2A5
:1021B000289F900111248C2F8370C1E0D0E002C0D1
:1021C000CC0FDD1F8A95E2F7C22BD32BDC6872CFD0
:1021D0002C2F26952695277080E2289F90011124A8
:1021E0008C2F8370C1E0D0E002C0CC0FDD1F8A9538
:1021F000E2F7C22BD32BDA685DCF8C2F8F710E9450
:10220000F511C82FD0E0DC2FCC27CC27DF71D062AE
:1022100051CF8C2F8F710E94F51155E0D695C7953F
:102220005A95E1F7CF70D0E0DC2FCC27282F30E093
:1022300084FF05C044E0220F331F4A95E1F7C22B0B
:10224000D32BD06937CF8D2F8F710E94F511182FA6
:10225000CE0199270E945311C12FD0E0DC2FCC274B
:10226000CC27DF71C82BD92BD2CF462F672F7330E5
:1022700028F4433080F40E94481F08957D3F39F4CC
:10228000411109C041E060E00E94541F08957C3F65
:1022900011F44423C1F390E080E008950E943511C9
:1022A0000E941710089582389105B9F1B0F4813376
:1022B000910509F47DC048F48932910509F46DC097
:1022C0008A32910509F47BC008958533910509F49C
:1022D0005FC08933910509F10895833E9105D9F1D5
:1022E00038F4803E910529F1823E910579F10895F7
:1022F000863E9105D9F1873E910509F43EC0843EA2
:10230000910541F52091070321FF24C08091060328
:1023100084FD19C087EE90E0089520910603237094
:1023200009F05AC02091070323FF14C089E290E00E
:1023300008952091060320FD38C03091070330FF37
:1023400009C024FF43C090E080E008952091060377
:1023500022FDF7CF08952091060322FD3AC0309167
:10236000070330FD39C024FFF5CFEDCF20910603E0
:1023700023FFF0CF24FDE7CFCDCF2091060323FD2F
:102380002EC03091070331FFEECF84EE90E0089528
:102390002091060325FFDECFC9CF2091060325FD3E
:1023A00021C02091070323FFD5CF89E390E0D2CF4E
:1023B0002091060326FFCECF8AE290E00895209177
:1023C000060326FFC7CF81E390E0089583EE90E0F7
:1023D000089582EE90E0089580EE90E0089586EEF4
:1023E00090E0089585E390E008959091060392FFB0
:1023F00010C041E0282F2471243009F040E031E082
:10240000282F2871283009F030E0431711F02CE014
:10241000822793FF10C041E0282F2471243109F056
:1024200040E031E0282F2871283109F030E04317CF
:1024300011F02CE082273091070330FF10C051E0EB
:10244000282F2171213009F050E041E0282F287118
:10245000283009F040E0541711F029E0822731FFBD
:1024600010C041E0282F2171213109F040E031E016
:10247000282F2871283109F030E0431711F029E0A6
:10248000822794FD877E089580E008950E94710E52
:1024900008950E9436132FEF86E791E02150804087
:1024A0009040E1F700C000000E94361380E00E94D7
:1024B000861280FF04C00E9446120E94102A0895CE
:1024C0000E94491208950E94780E811102C00E9454
:1024D0001B0F0E94840E8093AE020E948E0E90937A
:1024E0000703809306030E9460120E94890E0E94D7
:1024F0000209809105020E941709089508950E941B
:102500007E12089508950E9482120895E82FF0E047
:10251000E55FFC4F80810895089580EA8A95F1F780
:10252000089500C008950E948D120895F894E82F30
:10253000E295EF70F0E031A1282F2F7081E090E05C
:1025400001C0880F2A95EAF7982F9095932391A3BD
:1025500092A1892B82A37894089580EF0E9496120D
:1025600085E30E94961286E30E94961281EF0E94F4
:10257000961286E90E94961287E90E9496120895A3
:10258000B0E0A0E0E6ECF2E10C94F9317C01162F0A
:10259000042FC62FD0E0CE018D559E4F6C01EC016B
:1025A00028812F3F09F444C0F894E22FE295EF70A0
:1025B000F0E031A12F7081E090E001C0880F2A95F2
:1025C000EAF7932F982B91A392A18095892382A358
:1025D00078940E949112A6EAB1E0F70149EA51E02D
:1025E000F12C602F60959D9180819F3F31F1292FC3
:1025F00022952F7030E0E90128A130E09F7002C0E1
:10260000359527959A95E2F720FD17C0802B80839A
:10261000FF24F39431964A175B0729F7F60180816E
:102620008F3F11F00E9496126F2D812F0E949312FE
:10263000CDB7DEB7E8E00C94153286238083EACF6D
:102640000E94AD1283E0EBE0F3E0DF01982F1D92D2
:102650009A95E9F7E8E0F3E0DF011D928A95E9F742
:1026600083E00E9472130E947F120895A3E0B0E0FD
:10267000ECE3F3E10C94FD3119821A821B8210E025
:1026800001E0402F612FCE0101960E94C0121F5F12
:10269000000F1330B1F743E050E0BE016F5F7F4F92
:1026A00088E093E00E94CE3221E0009709F420E018
:1026B000892B49F089819A81AB818093080390939B
:1026C0000903A0930A0343E06BE073E088E093E022
:1026D0000E947313182F0E948312812F2396E4E027
:1026E0000C9419320895B0E0A0E0E9E7F3E10C940E
:1026F000F9316C017B01042FC22F222379F081E094
:102700008093B1020E94C5299093B0028093AF02DA
:1027100080E0CDB7DEB7E8E00C941532D091B1027D
:10272000DD23B1F38091AF029091B0020E94DD29C8
:10273000059770F310E0A801B601C7010E94CE32E0
:10274000892B31F0A801B601C7010E94DB32CD2FE1
:102750001092B1028C2FDDCF0E94B52B0E94930FF7
:102760000E94C22B08950E94C72B0E94A20F0E94B4
:10277000E12B08950E945E290E949B2B0E94760FF8
:102780000E94AC130E94B3130E94890FFBCF909359
:10279000F5018093F4010895EF92FF920F931F9338
:1027A000CF93DF93EB01E82FD1110EC0442321F02A
:1027B000F0E0E058FD4FE4916E2F7E2F8E2FCDB7C5
:1027C000DEB7E6E00C9417320D2F10E0282F30E032
:1027D000442329F020583D4FF901249130E0F6E0E0
:1027E000CF9FC0011124EFEFF0E0BF010E946731DD
:1027F000AB018C2F90E0880F991FA5E5A49FB00135
:10280000A59F700D1124861B970B982F990F980F79
:10281000BF01601B710B629FD001639FB00D729F5F
:10282000B00D11248B2F9D9FB0011124672F7727A6
:10283000EF01C61BD70BBE01629FE001639FD00D65
:10284000729FD00D11247F01E91AF108E09EB001BA
:10285000E19E700DF09E700D1124672F7727E61B07
:10286000F70BE29F8001E39F100DF29F100D1124E2
:10287000E12F722F4230510599F048F4411551056E
:1028800069F04130510581F0EB2F8D2F07C04430A6
:10289000510569F080F046305105B1F76E2F8FCFAA
:1028A000E22F7B2F812FFACFE22F7D2FF7CFEB2F57
:1028B000822F712FF3CF7B2F822FED2FEFCF41E0AF
:1028C0000E94CC13089508950E945F140895CF9339
:1028D000DF93762FE901682F842F0E946414798397
:1028E00068838A83DF91CF91089580910E03982F9A
:1028F0009C7F29F48370846080930E0308958C3A42
:10290000E8F38370886AF8CFB0E0A0E0EAE8F4E189
:102910000C94F93188E090E00E94EC326B017C016C
:1029200084E290E00E94E432282F30E040E050E062
:1029300060E070E080E090E000E20E942632B22F7A
:10294000A32FF42FE52FD62FC72F97018601BC297F
:10295000A12BFE295E2F532B2B2F3A2F4F2F6D2F9C
:102960007C2FCDB7DEB7E8E00C941532B0E0A0E0E4
:10297000ECEBF4E10C94F53149015A016B017C0157
:102980000E9475148401A4016A2D7B2D88E090E0DB
:102990000E941A3394014A2D5B2DB601C70100E253
:1029A0000E944132622F84E290E00E940833CDB74A
:1029B000DEB7ECE00C941132EEE0F3E020813181DF
:1029C0004281538164817581868197810E94B6140A
:1029D0000895EEE0F3E089E3808311828FEF828334
:1029E00083831482758129E330E04FEF5FEF60E06D
:1029F000868197810E94B614089580910E0380FF0E
:102A000003C086958695089580E0089580910E0311
:102A10008170089590911203933018F49F5F909302
:102A20001203882391F020910E0330910F034091FF
:102A30001003509111036091120370911303809160
:102A40001403909115030E94B614089581E00E942A
:102A50000A15089590911203992319F091509093BB
:102A60001203882391F020910E0330910F034091BF
:102A70001003509111036091120370911303809120
:102A80001403909115030E94B614089581E00E94EA
:102A90002A150895809112030895809312036623E6
:102AA00089F020910E0330910F0340911003509153
:102AB000110370911303682F8091140390911503F3
:102AC0000E94B614089560E00E944D15089580910B
:102AD0000F030895809110030895809111030895C4
:102AE00021E030E0A90102C0440F551F8A95E2F7AA
:102AF000CA012091DD02662339F0822B8093DD022A
:102B000081E08093CF02089580958223F7CF21E062
:102B100030E001C0220F8A95EAF79091DD029223FE
:102B200081E009F480E008950F931F93CF93DF9322
:102B3000D82F8B01C42F47FDCFE71093CA02009313
:102B4000C90261E08D2F0E947015CC0FC150C09357
:102B5000CB0221E030E001C0220FDA95EAF7809144
:102B6000CE02822B8093CE020E94C529800F911F36
:102B70009093CD028093CC02DF91CF911F910F9162
:102B8000089541E00E94941508951F93CF93DF9319
:102B90008091CE02882359F10E94C5292091CC0250
:102BA0003091CD02821B930B8F3F9F4700F5D0E001
:102BB000C0E01091CB028091CE0290E00C2E02C0BA
:102BC000959587950A94E2F780FF06C060E08C2F08
:102BD00010FF61E00E9470152196C830D10549F7B9
:102BE00011501093CB02111106C01092CE02DF914A
:102BF000CF911F9108950E94C5292091C90230915B
:102C0000CA02820F931F9093CD028093CC02EFCF24
:102C100070E00E94F21D0895A5E0B0E0E2E1F6E167
:102C20000C94F33170900C0180910E0380FF16C05C
:102C3000C090D002D090D102C114D10409F5809186
:102C40000B0133E0839FC0011124672D8A5E9C4FE6
:102C50000E9408162596EEE00C940F3280910D012B
:102C600090910E0123E0829FF0011124EA5EFC4F57
:102C70008917F0F61182108212828F5F3396F8CF97
:102C80008091D9028111DBCFF12CE12C43E0642E3D
:102C90008E2D0E948715882309F43BC0F701EE0FA3
:102CA000FF1FEC0DFD1DA590B490A114B10439F2E5
:102CB00045E050E0B501CE0101960E94B83209818D
:102CC0000F3F39F18A81800F9927991F853091052F
:102CD00014F084E090E04C01880C991C880D991D3B
:102CE0009C012A5E3C4F4901069D800111240A5E29
:102CF0001C4F0815190520F035E0A30EB11CD8CFE4
:102D000098014D816C818B810E9467140D5F1F4F6C
:102D1000F0CF8FEFE81AF80A28E0E216F10409F084
:102D2000B7CF8DCF90910E0390FF0EC090910D0103
:102D300020910E0133E0939FF0011124EA5EFC4FD5
:102D4000921718F00E940C160895818360834283C5
:102D50009F5F3396F5CFA3E0B0E0E1EBF6E10C9492
:102D6000FF3190910E0390FF0AC09E012F5F3F4FED
:102D70000E9467144B8169818A810E949216239672
:102D8000E2E00C941B32CF93DF93EC01EC81F0E096
:102D9000E558FE4F4491EEE0F3E0628181810E94AC
:102DA000AB168C818F5F8C83DF91CF910895CF9389
:102DB000DF93EC01EEE0F3E0438162818C810E94BD
:102DC000AB168C818F5F8C83DF91CF910895A3E048
:102DD000B0E0EDEEF6E10C94FD318C018091B20291
:102DE00081110AC09E012F5F3F4F4FEF6FEF0E948E
:102DF00067148A818093B202F8016481613069F0BE
:102E00008091B20240E0662361F040E0623011F44C
:102E10004091B20280E060E004C06091B20240E004
:102E200080E00E949216F801848190E0019663E0B0
:102E300070E00E947B3184832396E4E00C94193285
:102E4000A3E0B0E0E6E2F7E10C94F831082FD62ECB
:102E5000F42EC22E90910E0390FF2FC0E92FE6951D
:102E6000E695AE2FB0E0A755BE4F8C918093DB0264
:102E70009C7F943031F59E012F5F3F4F802F0E9441
:102E800067144B8169818A810E94921600930F0317
:102E9000D0921003F0921103CC2079F020910E0310
:102EA0006091120370911303302F4D2D5F2D80918F
:102EB0001403909115030E94B6142396E9E00C9434
:102EC0001432823019F4F0901103E0CF863019F4F7
:102ED00000910F03DBCF8930D9F38931B9F6E9517D
:102EE0006E2F6170B62EE695F0E0E558FD4F149117
:102EF000E12C60910F01E61618F00E940C16C6CF67
:102F0000E19EC001112470E00E946731802FB11052
:102F100014C0860F20910D01622F6E0D7727771F49
:102F20009B01220F331F260F371F2A5E3C4F4F2D68
:102F30006D2D0E946714E394DCCF861BEBCFEEE08F
:102F4000F3E09181282F438162818AE0890F0E94FA
:102F50002017089581E00E949F170895EEE0F3E0A6
:102F60009181282F4381628186EF890F0E9420176B
:102F7000089581E00E94AE170895EEE0F3E06281CB
:102F800021E1620F08F46FEF282F438181810E94B5
:102F90002017089581E00E94BD170895EEE0F3E048
:102FA000628121E1621B08F460E0282F4381818166
:102FB0000E942017089581E00E94CE170895EEE048
:102FC000F3E0438121E1420F08F44FEF282F6281A3
:102FD00081810E942017089581E00E94DF170895E3
:102FE000EEE0F3E0438121E1421B08F440E0282FAA
:102FF000628181810E942017089581E00E94F0176C
:10300000089520E00E9420170895EF92FF921F93E9
:10301000CF93DF93EC0110E0EE24EA94F12C609161
:103020000F01161770F00E940C169A818C8190FF88
:1030300027C08F5F8C83DF91CF911F91FF90EF901E
:10304000089520910D01422F410F5527551FCA01A8
:103050009A01220F331F280F391F2A5E3C4F70E060
:10306000C7010E947B31962F8C81409111036091A2
:103070001003199F800D11240E9467141F5FCFCF8A
:103080008150D8CFB0E0A0E0E8E4F8E10C94F8314A
:10309000FC0182810FEF80FF01E010E080910F01C1
:1030A000181798F00E940C168091B402013009F0B4
:1030B0004CC0811102C080910F0181508093B402F5
:1030C000CDB7DEB7E9E00C941432C0910D01C12EEA
:1030D000D12CCC0DDD2DD11DCE01880F991FC80F2D
:1030E000D91FCA5EDC4F198218821A8234E0E32E9F
:1030F000F12CB12C8091B4028B0D853004F18370DA
:10310000082E000C990BC816D90691F48091110372
:103110008E9DA0018F9D500D112455954795559575
:1031200047959E016091100380910F030E946714E0
:10313000B00EF1E0EF1AF108E9F61F5FAFCF87FF9D
:10314000DFCF90910F01890FDBCF90E00196609166
:103150000F0170E00E947B31B1CF0F931F93CF938B
:10316000DF9380910D0190910E0123E0829FF00189
:103170001124EA5EFC4F891740F1C0E0D3E0609172
:103180000F01C61740F10E940C1620910901809191
:10319000B302820F8093B30290910A01920F909331
:1031A0000A01191654F4082E000C990B40910F01D6
:1031B0004150550B841795071CF021952093090168
:1031C000DF91CF911F910F91089511821082128289
:1031D0008F5F3396D0CF0C2F10E070E0C8010E94B3
:1031E0007B3120910D01820F482F50E02091B302D6
:1031F000022E000C330B02171307BCF020910A01BA
:10320000022E000C330B201731077CF08D9F9001AC
:1032100011242A5E3C4F409111036091100380916C
:103220000F030E946714CF5FAACFFA01EE0FFF1FB2
:10323000E40FF51FEA5EFC4F118210821282F3CF79
:10324000B0E0A0E0E6E2F9E10C94F531EC014C814C
:10325000042F10E09801D8010E94C6319B01AC01F7
:103260000E94DC314B015C01E0E2F0E0E01BF10B7D
:10327000A5E5B0E0AC019B010E94DC316B017C0153
:103280009F01DF010E94BE319B01AC010E94E7312A
:103290009B01AC01280D391D4A1D5B1DC701B601FC
:1032A0000E948F31F22E822F90E039E23F1520F1FB
:1032B00043E0249F9001112435952795122F1095F6
:1032C00000E085E5E82EEF1880910F01081718F14E
:1032D0000E940C169C8181E0992319F0903219F418
:1032E0008FEF8093080180910801890F8C83CDB7FF
:1032F000DEB7ECE00C94113225E530E0B901681B33
:10330000790B9B01220F331F260F371F37FFD4CFB6
:103310002F5F3F4FD1CF8E2D01FD8F2D20910D01BD
:10332000622F600F7727771F9B01220F331F260F15
:10333000371F2A5E3C4F412F609110030E94671493
:103340000F5FC2CF0F931F93CF93DF93EC0110E079
:1033500000E090910F019017110609F06CF40E94A3
:103360000C168C8190E00196817099278C83DF91F7
:10337000CF911F910F91089520910D01A801420F47
:10338000511D9A01220F331F240F351F2A5E3C4F17
:103390004C816091100380910F0396959017110650
:1033A00051F04CF0442349F0409111030E946714FE
:1033B0000F5F1F4FCECF4423B9F340E0F7CFB0E00B
:1033C000A0E0E5EEF9E10C94F131FC01628044806B
:1033D00081E08483EBE7F1E07490EAEFF1E0E491BF
:1033E000C0911103C695C158D0E0CC0FDD1FCD2F81
:1033F000DD27812C75E0972EAA24AA94B12C5524A0
:103400005A94E719EE2EF12C80910F01881638F0AE
:103410000E940C16CDB7DEB7E0E10C940D32C82C3B
:10342000D12C82E0861568F09C9CF0019D9CF00DEB
:103430001124EB54FD4F80910F0380838091100382
:103440008183411023C09C9CF0019D9CF00D1124B0
:10345000EB54FD4F1382128220910D01C601820FA1
:10346000911D9C01220F331F280F391F2A5E3C4FEC
:103470009C9CF0019D9CF00D1124EB54FD4F42816A
:10348000618180810E9467148394BECF9C9C8001DF
:103490009D9C100D11240B541D4FF801838188232E
:1034A000F1F081508383859DC0011124648170E017
:1034B0000E946731FB01FF27E558FE4F8491E82FFA
:1034C000E719E59DC0011124B7010E946731809181
:1034D0001103689FB0011124F8017283BDCF0E94CF
:1034E000A832B5010E947B318C179D070CF0B4CF38
:1034F000F2E0F61598F40E94A832B5010E947B31E3
:10350000F80180830E94A832209110032695622F33
:1035100070E00E947B31280FF80121839C9CF00110
:103520009D9CF00D1124EB54FD4F128280911103EC
:10353000893C58F088EC9C9CF0019D9CF00D112476
:10354000EB54FD4F8483838387CF8431A0F784E1DC
:10355000F2CFEEE0F3E020812E7F208331814281A3
:10356000538164817581868197810E94B61410927F
:10357000DC020E940C160895EEE0F3E080818E7F5D
:1035800080831092DC020E940C1608951092DC02D7
:103590008091D902811114C081E08093D902809179
:1035A0000E0381708093D8028091CE028095909115
:1035B000DD0289238093DD021092CE020E94BC1AA4
:1035C000089560910E036695669570E04BE050E0BB
:1035D00080E191E00E94C132892B19F481E080934F
:1035E000DC020E94C5299093D3028093D2020895F1
:1035F00090910E0390FF34C09370811132C094609B
:1036000090930E03662391F020910E0330910F03E7
:1036100040911003509111036091120370911303B4
:1036200080911403909115030E94B61460910E03CB
:103630006695669570E04BE050E080E191E00E9475
:10364000C132892BB1F01092DC0281E08093D50267
:10365000409111036091100380910F030E940118A3
:1036600008958B3210F0986ACBCF880F880F982B73
:10367000C7CF0E94E11AE9CF682F90910E0396956B
:10368000969581E0890F8B3208F081E00E94F81A4C
:10369000089581E00E943C1B0895682F90910E03CD
:1036A000969596958FEF890F09F48AE20E94F81A91
:1036B000089581E00E944D1B089561E00E94F81A70
:1036C0000895EEE0F3E080818160808386958695A1
:1036D0000E945D1B089580910E0380FF03C00E942D
:1036E000A91A08950E94611B089560E00E94F81ACB
:1036F00008958091DA0281113FC00E94780E8111F5
:1037000004C00E941B0F0E94E9140E94841420939D
:103710000E0330930F0340931003509311036093F3
:1037200012037093130380931403909315032C7F5B
:10373000A1F40E94E9140E94841420930E03309394
:103740000F0340931003509311036093120370937F
:10375000130380931403909315030E947514109221
:10376000DC0280910E0380FF04C0869586950E943E
:10377000751B81E08093DA020895EEE0F3E080812A
:1037800081608083869586950E94751B089580913F
:103790000E0380FF03C00E94BC1A08950E94BD1B47
:1037A00008951092D9028091D802882329F00E94AE
:1037B000BD1B0E94E11A08958091DD028823C9F3A0
:1037C0000E940C16F6CF0F931F93CF93DF93809137
:1037D000DC028823C9F18091DB02E0910E03E695BB
:1037E000E695E81BE093D402823009F049C0F0E08E
:1037F000E958FE4FE491CE2FD0E003EC16E1809122
:10380000D502882361F01092D5020E94C5299093B9
:10381000D3028093D2021092D7021092D6020E9455
:10382000C529E091D202F091D3028E1B9F0B8F3FEE
:103830009F4750F4EC0FFD1FF093D302E093D202A8
:1038400082ED92E0F80109950E94C5158091CF02A2
:10385000882389F01092CF028091DC02811106C08A
:1038600080910E03869586950E94751B80910E03AC
:1038700080FF0E940C16DF91CF911F910F91089548
:10388000863049F4F0E0EC58FE4FE491CE2FD0E0C2
:1038900007ED16E1B4CF893051F4E695F0E0EF582A
:1038A000FE4FE491CE2FD0E005E018E1A8CF8F3095
:1038B00051F4E695F0E0E259FE4FE491CE2FD0E0CE
:1038C00002E418E19CCF853149F4F0E0E559FE4F60
:1038D000E491CE2FD0E00DEA18E191CFC8E2D0E01C
:1038E00000E219E1883109F48ACF833239F4E9E63C
:1038F000F1E0C591D49107EE16E181CFC4EFD1E09C
:1039000002EA19E1843209F47ACFC0EDD7E003E688
:1039100014E1853209F073CF8E2F63E00E945B3192
:10392000E92FF0E0EA59FE4FE491CE2FD0E00FED01
:1039300019E165CF08950E94E31B0895FA018111F2
:1039400001C0FB0109950895CF93DF93C82FD62FAF
:103950000E94FD148C1748F00E94FD148D1728F466
:103960000E94491BDF91CF9108958C2F0E945D1B0F
:10397000F9CF1F93CF93DF93EC01FB011581111158
:1039800010C00E944F0D8272FE01E052F847E531EF
:10399000F10508F05EC0E759FC4C0C94B1310E946F
:1039A0006B1B812FDF91CF911F91089549E55BE15A
:1039B00069E47BE10E949E1CF4CF49E45BE169E588
:1039C0007BE1F8CF49EB57E16AEA77E1F3CF4AEAC6
:1039D00057E169EB77E1EECF4BED57E16AEC77E128
:1039E000E9CF4AEC57E16BED77E1E4CF4DEF57E1DA
:1039F0006CEE77E1DFCF4CEE57E16DEF77E1DACF98
:103A000046E455E166E275E1D5CF46E255E166E46C
:103A100075E1D0CF81E00E945D1BC3CF65E082E0FD
:103A20000E94A41CBECF68E086E0FACF6EE089E079
:103A3000F7CF64E18FE0F4CF67E185E1F1CF88E172
:103A4000EACF62E289E1ECCF83E2E5CF6AE285E288
:103A5000E7CF11E0A6CF8FE891E00197F1F700C022
:103A60000000089581E08093DF025098589A5198A1
:103A7000599A0E942B1D2091DF0241EE52E0FA017B
:103A80008E2F841B821708F0089589B1817049999F
:103A900004C090E0892B8193F3CF92E0FBCFA8E1A3
:103AA000B0E0E5E5FDE10C94F23110E000E082E0E9
:103AB000982E94E0A92EB12C2DEF822E77247394AA
:103AC0003CEF632E43E0542E8091DF02181728F05C
:103AD000802F6896EFE00C940E32E12EF12CE9B1C4
:103AE000E17049997DC080E08E2BD701AF51BD4F69
:103AF000EC919E2F9370981709F470C0EE0FEE0FA3
:103B0000E82BEC93EF70F0E0EC52FE4FC7018052CF
:103B10009D4F6C018081F6019081890F808320E0A8
:103B200084303CF1F701E252FD4F80818F5F80834A
:103B30000E94C5291D876E86682F8F87988B598AAA
:103B40007A8A412F5CEF792F83E091E00E948B0508
:103B50000E94C5291B8B6C8A682F8D8B9E8B5F8A78
:103B6000188E412F5CEF792F83E090E00E948B0547
:103B700021E0F60180818D3F3CF5F701E252FD4FD7
:103B80008081815080830E94C52919838A82682F91
:103B90008B839C839D827E82412F5DEF792F82E013
:103BA00091E00E948B050E94C5291F838886682F9B
:103BB00089879A879B861C86412F5DEF792F82E04B
:103BC00090E00E948B0521E0F6018081082E000C18
:103BD000990BB5010E947B318083022B1F5F74CF4C
:103BE00082E082CF279A45B14F7755B15068EFB741
:103BF000F8949B01220F331F260F371F280F391F00
:103C00002817390741F4EFBF8FE594E00197F1F7EA
:103C100000C000000895DC016D91CD0178E055B938
:103C2000000000C067FF45B9660F000000C000C07B
:103C300000C045B900C07A9591F7E2CF84E00895BD
:103C400050E0440F551F96E0699F400D511D11240F
:103C500092E1899F400D511D1124CA018996089552
:103C60000F931F93CF93DF938430C8F46330B8F47D
:103C70004330A8F40E94201E8C010E94E432C82F19
:103C8000D0E0DC2FCC27C80101960E94E4329E01CF
:103C9000282BC901DF91CF911F910F91089590E0DA
:103CA00080E0F8CF0F931F93CF93DF93122F032F52
:103CB000843078F4633068F4433058F40E94201E56
:103CC000EC01602F0E940833612FCE0101960E9403
:103CD0000833DF91CF911F910F910895FF920F93B9
:103CE0001F93CF93DF93F42E843040F5611126C0EB
:103CF00024E0829F800111240F581F4F82E090E042
:103D0000442311F090E080E0800F911F0E94E43284
:103D1000C82FD0E0DC2FCC2783E090E0FF2011F00B
:103D200081E090E0800F911F0E94E4329E01282BD9
:103D3000C901CDB7DEB7E5E00C94183290E080E021
:103D4000F8CF0F931F93CF93DF93142F022F84305C
:103D5000F0F461111CC094E0899FE0011124CF5858
:103D6000DF4F82E090E0442311F090E080E0632F89
:103D70008C0F9D1F0E94083383E090E0112311F007
:103D800081E090E0602F8C0F9D1F0E940833DF912F
:103D9000CF911F910F9108951F93CF93DF93C0E0B0
:103DA000D0E011C0412F6D2F8C2F0E940B049C017D
:103DB000412F6D2F8C2F0E94521E1F5F133091F7E1
:103DC000DF5FD33011F010E0EDCF41E060E08C2FE9
:103DD0000E9427049C0141E060E08C2F0E94A11EFC
:103DE00040E060E08C2F0E9427049C0140E060E0EE
:103DF0008C2F0E94A11ECF5FC43091F6DF91CF912E
:103E00001F910895EF92FF920F931F93CF93DF932B
:103E1000EC018A017C01E60EF71ECE018996CE15D3
:103E2000DF0529F4CDB7DEB7E6E00C941732C834CD
:103E3000D10540F40E94E432F80180830F5F1F4FE8
:103E40002196EBCFF8011082F9CFB0E0A0E0EBE2D1
:103E5000FFE10C94F9317C016A018C01060F171FF8
:103E6000EC01CE018996C017D10729F4CDB7DEB792
:103E7000E8E00C941532C834D10540F4FE01EE1987
:103E8000FF09EC0DFD1D60810E9408332196E9CFEA
:103E9000843038F4633028F4433018F40E94301E24
:103EA000089590E080E00895843028F4611103C003
:103EB0000E946E1E089590E080E0089580E10895CC
:103EC0008FE793E00895EF92FF920F931F93CF93A4
:103ED000DF93EC018A017C01E60EF71ECE018F57BD
:103EE0009F4FCE15DF0529F4CDB7DEB7E6E00C9481
:103EF0001732CF3723E0D20740F40E94E432F801B2
:103F000080830F5F1F4F2196E9CFF8011082F9CF10
:103F1000B0E0A0E0EEE8FFE10C94F9317C016A0129
:103F20008C01060F171FEC01CE018F579F4FC01752
:103F3000D10729F4CDB7DEB7E8E00C941532CF37BE
:103F400023E0D20740F4FE01EE19FF09EC0DFD1D40
:103F500060810E9408332196E7CFCF93DF93C1E8B9
:103F6000D0E060E0CE010E9408332196C11584E0C4
:103F7000D807B9F7DF91CF910895A8E0B0E0E3EC5E
:103F8000FFE10C94F731F82E8FE08F1508F46EC026
:103F90008FEF93E00E94E432811168C001E810E0E5
:103FA000F11035C0FE0131966F0188E011928A95BB
:103FB000E9F77801FFEFEF1AFF0AC8010E94E43227
:103FC00089831A82882309F451C08130D1F45801C1
:103FD00082E0A80EB11CC7010E94E4328A838823C4
:103FE00009F444C09FEF980F9330F0F4780193E008
:103FF000E90EF11CC5010E94E4328B838823B1F1E4
:104000001C8260E0C6010E9433248701D2CF0115D3
:1040100094E0190759F1C8010E94E432811101C0EE
:10402000FA940F5F1F4FBCCF7501843051F702E047
:1040300010E07501EFEFEE1AFE0AC5010E94E432AE
:10404000F601E00FF11F8083882381F08C3741F463
:10405000E2E0F0E0EC0FFD1FE00FF11F1082D1CF86
:104060000F5F1F4F57010730110519F72896EAE037
:104070000C941332CF93DF93EB0186319C4711F5FB
:104080000E944F0D9D81992399F08A7A91E009F45D
:1040900090E09093E202811109C089E20E94AB286E
:1040A0000E94030E80E0DF91CF91089585E3F6CF63
:1040B0008091E202811104C089E20E94C228F0CFFF
:1040C00085E3FBCF81E0EFCFCF93DF93EC01FB01E2
:1040D0008581882309F4D2C09E01305723323105EF
:1040E00008F0B2C00E948E0E9093070380930603DF
:1040F000FE01E150F047E232F10520F4E258FC4CB9
:104100000C94B1318091060381608093060393C0C3
:10411000809107038860809307038DC08091060318
:104120008260F3CF809106038460EFCF8091060315
:104130008860EBCF809107038160EDCF809107030A
:104140008260E9CF809106038061DFCF8091060312
:104150008062DBCF809106038064D7CF0E94B708CE
:10416000809106038068D1CF809106038C60CDCF0B
:10417000809107038360CFCF809106038E7FC5CFE8
:1041800080910703877FC7CF809106038D7FBDCFC6
:10419000809106038B7FB9CF80910603877FB5CFCF
:1041A000809107038E7FB7CF809107038D7FB3CFB8
:1041B000809106038F7EA9CF809106038F7DA5CFC6
:1041C000809106038F7BA1CF0E94B70880910603E0
:1041D0008F779BCF80910603837F97CF80910703D2
:1041E0008C7F99CF8091060382FB992790F921E07B
:1041F000922790FB82F990FB83F987CF8091070388
:10420000982F909591708E7F892B90FB81F983CFA9
:1042100090910603892F8F7B96FF806476CF0E9452
:10422000B70890910603892F97FB87F980586DCFC7
:1042300081E00E941E0F80910603909107030E9467
:10424000930E0E94B70880E0DF91CF91089580E03F
:10425000F0CF90910603892F8F7E94FF806155CF18
:1042600090910603892F8E7F90FF81604ECF9091B1
:104270000703892F877F93FF88604DCF81E0E4CFCC
:10428000282F35EB2303C001112497FF04C0805869
:104290009109892F089580589F4FFBCF8091E902A3
:1042A00080FF0DC06091200170E0660F771F6038BD
:1042B000710570F56115710569F1862F089581FF0B
:1042C00007C06091200184E0689FB0011124EFCF06
:1042D0006091200182FD0AC08091E8028823A9F044
:1042E00020911F0160912001821710F088E0ECCF2F
:1042F000869FC001112433E0880F991F3A95E1F79A
:10430000622F70E00E947B31D2CF68E070E0D5CFA1
:104310008FE7089581E008958091E90280FF0CC045
:1043200060911C0170E075956795759567956115AD
:10433000710549F1862F089581FF06C060911C0127
:1043400070E075956795F3CF60911C0182FD0BC0FD
:104350009091E7029923A1F060911B0180911C01CB
:10436000961738F0682F70E06038710500F38FE71A
:104370000895899FC001112470E00E947B31F4CF21
:1043800061E070E0D7CF81E008959091EC02209138
:10439000ED02922B2091EF02922B2091EE02922BB4
:1043A00031F098E09093E80291E09093E7028D3C21
:1043B00031F40E944E2181958093ED0208958E3C48
:1043C00019F40E944E21F8CF8F3C31F40E944E2107
:1043D00081958093EC020895803D19F40E944E214E
:1043E000F8CF893D29F40E948C218093EE02089534
:1043F0008A3D21F40E948C218195F7CF8B3D31F4C9
:104400000E948C2181958093EF0208958C3D19F4D0
:104410000E948C21F8CF9FE2980F983070F4815D54
:10442000990B21E030E001C0220F8A95EAF78091D4
:10443000EB02822B8093EB0208958D3D31F4809145
:10444000E90281608093E90208958E3D21F4809114
:10445000E9028260F7CF8F3DB9F78091E90284606D
:10446000F1CF4091EC028D3C59F48091ED0287FF31
:104470000DC01092ED0241110BC01092E80208C06D
:104480008E3C81F48091ED0218169CF3442381F058
:104490008091EE029091EF02892B09F05AC01092A0
:1044A000E70208958F3C49F447FFF0CF1092EC02E9
:1044B0008091ED028111ECCFE0CF803D19F414160C
:1044C000ACF3E4CF9091EE02893D29F41916F4F68D
:1044D0001092EE02DBCF8A3D19F497FFD7CFF8CFC9
:1044E0009091EF028B3D29F497FFD0CF1092EF020D
:1044F000CDCF8C3D19F41916CCF3C8CF9FE2980F9D
:10450000983090F4815D990B21E030E0B90102C050
:10451000660F771F8A95E2F7CB0180959091EB02A9
:1045200089238093EB02B2CF8D3D31F48091E90273
:104530008E7F8093E902AACF8E3D21F48091E9021B
:104540008D7FF7CF8F3D09F0A1CF8091E9028B7F5E
:10455000F0CF08950E94C5299C019091EC028091B2
:10456000ED02982B21F03093E6022093E502909122
:10457000EE028091EF02982B21F03093E402209319
:10458000E3028AEE92E00E94A827089586E0EAEE10
:10459000F2E0DF011D928A95E9F71092E80210928D
:1045A000E7021092E9020895FC01828181110EC098
:1045B000838181110BC08481811108C091E08581C4
:1045C000811101C090E0892F8170089581E0FCCFB6
:1045D000A6E0B0E0EEEEF2E20C94FE3186E0EAEE08
:1045E000F2E0DE01119601900D928A95E1F71092AA
:1045F000EC021092ED021092EE021092EF028B810B
:104600009C81892B89F08091E5029091E6020E94BD
:10461000DD29AC019091E8029923C9F18091210133
:104620008417150608F440C08D819E81892B91F076
:104630008091E3029091E4020E94DD29AC01909107
:10464000E702992309F46AC080911D0184171506B9
:1046500008F472C0BE016F5F7F4F8AEE92E00E9445
:10466000F328811105C08AEE92E00E94D4228111C4
:104670000E94AA2286E0FE013196AAEEB2E00190E5
:104680000D928A95E1F72696E3E00C941A32209178
:1046900022018AE0289F900111242417350720F673
:1046A0009F5F9093E80202C09F3FD1F71B811123C7
:1046B00059F00E944E219FEF11160CF491E0899F52
:1046C000802D11248093EC021C81112359F00E944B
:1046D0004E219FEF11160CF491E0899F802D11243B
:1046E0008093ED028091EC02882309F49DCF109114
:1046F000ED02112309F498CF0E944021882351F044
:104700008093EC02812F0E944021882329F080931E
:10471000ED028ACF81E0F4CF81E0F9CF20911E0134
:104720008AE0289F900111242417350708F092CFC2
:104730009F5F9093E70202C09F3FD1F71D81112335
:1047400059F00E948C219FEF11160CF491E0899F83
:10475000802D11248093EE021E81112359F00E94B6
:104760008C219FEF11160CF491E0899F802D11246C
:104770008093EF028091EE02882309F46BCF1091B1
:10478000EF02112309F466CF0E944021882351F0E3
:104790008093EE02812F0E944021882329F080938C
:1047A000EF0258CF81E0F4CF81E0F9CFB0E0A0E094
:1047B000ECEDF3E20C94FA31E82FF0E0E058FC4F16
:1047C000D490282F26952695269530E0F901E05EB5
:1047D000FB4F0491877010E0082E02C015950795D5
:1047E0000A94E2F701701127F901E05FFB4FE490B2
:1047F000F12C082E02C0F594E7940A94E2F791E0B8
:10480000E922FF24F901E050FC4FC491D0E002C03E
:10481000D595C7958A95E2F7C170DD270115110579
:1048200019F081EE0E94CE05E114F10419F086EE34
:104830000E94CE058D2D0E946206E114F10419F04C
:1048400086EE0E9417060115110519F081EE0E94EF
:104850001706CD2B19F08CE20E946206CDB7DEB7A9
:10486000E7E00C941632EF92FF920F931F93CF93D1
:10487000DF93EC01162F0AE08881882309F454C0E5
:10488000813009F04EC08981813099F47E0122E0A7
:10489000E20EF11C8A810E946206E7012196812FB7
:1048A000815050F3EFE9FFE03197F1F700C00000CD
:1048B000F7CF823041F47E0182E0E80EF11C8A815C
:1048C0000E94CE05EACF833041F47E01E2E0EE0E95
:1048D000F11C8A810E941706E0CF843011F02196E6
:1048E000DDCF2A81229690E080E0AE014F5F5F4FDE
:1048F0002053330B2A30310548F0019778F2EFE965
:10490000FFE03197F1F700C00000F7CF089FB0013A
:10491000099F700D1124C901860F971F2981EA0193
:10492000E4CF0E94D623BACFCDB7DEB7E6E00C9431
:1049300017320F931F93CF93DF93C42FD22FFC0115
:1049400085818823C9F04093F2020E94C529909383
:10495000F1028093F00280E28C0F883040F4C7703F
:1049600081E001C0880FCA95EAF70E946B06DF91CB
:10497000CF911F910F9108951091F202141332C03C
:104980008091F0029091F1020E94DD29883C91050E
:1049900048F5C0E2CD0F1D17B9F080E2810F8830D5
:1049A00040F4177081E001C0880F1A95EAF70E9461
:1049B0007206C83048F481E09D2F977001C0880FBF
:1049C0009A95EAF70E946B06802F0E946206C83013
:1049D00070F6D77081E001C0880FDA95EAF70E947F
:1049E0007206C5CF80E28C0F883008F6C77081E070
:1049F00001C0880FCA95EAF7F2CF0F93DB01885107
:104A00009C4787309105A0F5FC01E056FC4C0C94C6
:104A1000B13106E221EE41EE6AE17CE7CD010E9470
:104A2000992480E00F91089507E225EE45EE6BE1B1
:104A30007CE7F4CF06E221EE40EE68E17CE7EECFC2
:104A400007E225EE44EE69E17CE7E8CF06E221EEDD
:104A500042EE6CE17CE7E2CF07E225EE46EE6DE147
:104A60007CE7DCCF08E221E045EE6EE17CE7D6CFC3
:104A700015968C91882319F01092F202D3CF81E021
:104A8000D1CF1F93CF93DF9387372CE7920759F04D
:104A9000C1E088379C47E1F4FB01C581CC2371F16B
:104AA0000E94842506C0FB01C581CC23B1F00E9481
:104AB00081250E9441090E948725D82F0E948425C4
:104AC000C82F0E9481254D2F6C2F0E94780AC0E0CC
:104AD0008C2FDF91CF911F9108950E9481250E9414
:104AE0004D090E948725182F0E948425D82F0E94E7
:104AF0008125412F6D2F0E94780AEACF0E948425DC
:104B0000EECF809125010895809124010895809130
:104B10002301089585E290E00E94E432843289F412
:104B200086E290E00E94E432823059F487E290E01D
:104B30000E94E43291E0823009F090E0892F817088
:104B4000089580E0FCCFCF93C82F6FEF811164E20E
:104B500085E290E00E940833C1110DC0CFEF6C2FA9
:104B600086E290E00E9408336C2F87E290E00E947A
:104B70000833CF910895C2E0F2CF089588E290E023
:104B80000E94E432682F70E090E080E0089508957C
:104B9000CF93C62F0E94C7256C2F88E290E00E9419
:104BA0000833CF91089580E00E94A32560E070E073
:104BB000CB010E94C8250E94CC1E0E94AD1F81E03F
:104BC0000E94A32508950E94BD250E94BE250E9433
:104BD000C7250E948A25811102C00E94D32508950D
:104BE0000E94C71B08959C01FB018581882351F019
:104BF000A90157574038510530F4822F0E94BD1F3C
:104C000080E0089581E008952FEFFC01208308954E
:104C100080E00895CF93DF93EC0188818230E9F042
:104C200028F4813071F0DF91CF9108958330F9F04D
:104C30008430C9F70E94671589830E946A158A83A8
:104C4000F2CF0E946D152FEF829FC00111246FEFEC
:104C500070E00E9467316983E6CF0E9406158823C1
:104C600021F00E94FD148983DECF80E0FCCF0E94FA
:104C70004A15F9CFCF93DF93EC018881823021F17F
:104C800028F4813069F0DF91CF910895833041F1AC
:104C90008430C9F70E946D15482F6A81898111C03F
:104CA00089812FEF829FC00111246FEF70E00E9475
:104CB0006731D62F0E946A15C82F0E9467154D2FA5
:104CC0006C2F0E940118DFCF8981811103C00E94DF
:104CD000BC1AD9CF0E94BD1B89810E94751BD3CFFE
:104CE00089810E946315CFCFFC019C012E5F3F4F4D
:104CF0009081983041F0993051F0973059F4C901C2
:104D00000E943A260895C9010E940A2608950E9429
:104D1000DC1408958FEF80830895FC0121812230F7
:104D200019F40E94742608950E9404260895B0E0A4
:104D3000A0E0EDE9F6E20C94F931EC01E62E0E94D8
:104D40000826811110C0E881E150E531B8F4F0E0A7
:104D5000E955FC4C0C94B13119828CE08A836E2D9C
:104D6000CE010E948F2ACDB7DEB7E8E00C94153251
:104D700089818230C1F028F4813061F08FEF88831F
:104D8000EECF833099F08430C9F71A821B821C82DF
:104D90001D82E5CF0E94D1290E94B7316A837B83AF
:104DA0008C839D83DCCF0E94BE25F6CF8A81082F9D
:104DB00010E06E0193E0C90ED11C9CE1F92EF80EB3
:104DC0000330110560F6802F0E948612F601819350
:104DD0006F010F5F1F4FF012F3CFC1CF8981823077
:104DE00031F0853059F68A810E94F025B8CF6A816A
:104DF0007B818C819D810E94B7310E94C825AFCFF5
:104E00004B816A8189810E94301E982789279827C3
:104E10009D838C83A4CF2C813D8132272327322789
:104E20004B816A8189810E94521E99CF0E94CC1EBB
:104E300096CF6E2DCE010E948D2691CF0E945E1FCF
:104E400089838DCF0E94601F9827892798279A838E
:104E5000898385CF6B8170E089819A81AE014C5F37
:104E60005F4F9827892798270E94631F78CF6B810F
:104E700070E089819A81AE014C5F5F4F9827892746
:104E800098270E94881F6BCF0E94AD1F68CF0E9499
:104E90001E1ED6CF6B8170E089819A81AE014C5F76
:104EA0005F4F9827892798270E94021F58CF6B8150
:104EB00070E089819A81AE014C5F5F4F9827892706
:104EC00098270E94251F4BCF41E08B81811101C0A3
:104ED00040E06A8189810E946E1E97CF2C813D81BE
:104EE00032272327322741E08B81811101C040E026
:104EF0006A8189810E94A11E32CF9093F80280932B
:104F0000F7020895E091F702F091F802309729F046
:104F10000190F081E02D0995089580E00895E091D9
:104F2000F702F091F802309721F00280F381E02D32
:104F300009950895E091F702F091F802309739F061
:104F400026E0DC012C930480F581E02D099508957D
:104F5000E091F702F091F802309739F022E0DC019D
:104F60002C930680F781E02D09950895A3E0B0E029
:104F7000ECEBF7E20C94FF312091F5023091F60250
:104F800028173907A1F09093F6028093F502E0917B
:104F9000F702F091F802309751F023E029839B83C8
:104FA0008A830084F185E02DCE0101960995239630
:104FB000E2E00C941B32A3E0B0E0E1EEF7E20C94E7
:104FC000FF312091F3023091F40228173907A1F044
:104FD0009093F4028093F302E091F702F091F802CB
:104FE000309751F024E029839B838A830084F185E4
:104FF000E02DCE01019609952396E2E00C941B3238
:1050000020910601309107012E5F3F4F80913001C2
:10501000882379F08091060387FF0BC0209104015B
:10502000309105012E5F3F4F9EE180E0915018F4D2
:10503000089596E0FACFF90141919F014423B1F31D
:105040008F5FF4CF882321F190913001992311F1E2
:105050009091060397FF1EC0E82FE695E695E6952A
:10506000EE31B0F42091040130910501E20FF32FED
:10507000F11D228130E0877041E050E002C0440F12
:10508000551F8A95E2F72423352381E0232B91F4E1
:1050900080E008952091060130910701F9013296D0
:1050A000285F3F4F9191981721F0E217F307D1F74E
:1050B000EFCF81E008959C01FC0132969FEF80E0E4
:1050C0004191461751F09F3F19F4411101C0982FAB
:1050D0008F5F8630A9F79F3F09F40895290F311D8E
:1050E00097FD3A95F90162830895FC01329608967E
:1050F0002191261303C0DF0111971C92E817F907CD
:10510000B9F70895E62FE695E695E695EE3168F451
:10511000E80FF92FF11D677021E030E001C0220F88
:105120006A95EAF78281822B82830895E62FE695BD
:10513000E695E695EE3170F4E80FF92FF11D6770F2
:1051400021E030E001C0220F6A95EAF720958281C4
:10515000282322830895682F80913001882359F0F5
:105160008091060387FF07C080910401909105019B
:105170000E948228089580910601909107010E9463
:105180005B280895682F80913001882359F0809121
:10519000060387FF07C080910401909105010E94DA
:1051A0009628089580910601909107010E94752824
:1051B000089580913001882379F08091060387FF5C
:1051C0000BC0E0910401F091050132968EE1DF0100
:1051D0001D928A95E9F70895E0910601F091070183
:1051E000329686E0F4CFDC01FB0111969C91119779
:1051F0008181981322C012968C911297882319F0FE
:10520000928189131AC013968C911397882319F0F1
:105210009381891312C015968C911597882319F0E4
:10522000958189130AC014969C91992321F081E0FD
:105230002481291303C080E001C081E081700895BA
:1052400008950E9420290895811106C081E080936D
:10525000F9020E942129089582E0F9CF83E080932A
:10526000F9020E94212908950E942429089581E0CD
:105270008093F9020E94212908950E9437290895F8
:10528000089508950E9441290895089508950E945F
:1052900040290895CF930E9445290E9436130E9409
:1052A0004629C0E08C2F0E948612811105C0CF5F75
:1052B000C330C1F7CF91089581E0FCCF85B78068F6
:1052C00085BF85B7806885BF08951F921FB61F925E
:1052D00011248F939F93AF93BF938091FA02811112
:1052E00013C08091220390912303A0912403B091D5
:1052F00025034196A11DB11D8093220390932303A2
:10530000A0932403B0932503BF91AF919F918F91F8
:105310001F901FBE1F90189580912A03843031F191
:105320000E942D051092FA0288E190E020E40FB669
:10533000F894A895809360000FBE2093600083B717
:10534000817F846083BF83B7816083BF78948895B1
:1053500083B78E7F83BF0FB6F894A89580916000C5
:10536000886180936000109260000FBE08950E94D3
:10537000B7080E943405089582E084BD93E095BD8E
:105380009AEF97BD80936E0008952FB7F89480919F
:10539000220390912303A0912403B09125032FBFF2
:1053A00008952FB7F89460912203709123038091A0
:1053B0002403909125032FBF08959C014FB7F894C3
:1053C0008091220390912303A0912403B09125039F
:1053D0004FBF821B930B089578941F921FB61F92A4
:1053E00011248F939F93AF93BF9380912203909149
:1053F0002303A0912403B09125030196A11DB11DA3
:105400008093220390932303A0932403B093250356
:10541000BF91AF919F918F911F901FBE1F901895C4
:1054200081E08093E00080E28093D8001092C90070
:105430008FE19EE40197F1F700C0000087E090EB58
:10544000DC018093330390933403A0933503B0932E
:10545000360388E19CE00FB6F894A895809360002D
:105460000FBE90936000FFCF88E19CE00FB6F894E8
:10547000A895809360000FBE90936000FFCF80914D
:10548000030308959B01BA0190912A039430E9F433
:105490008F708093E9009FEF8091E800915085FD27
:1054A00006C085ED8A95F1F700009111F5CF809146
:1054B000E80085FF0AC050E040E0C9010E94852C49
:1054C0008091E8008E778093E800089543E050E0F3
:1054D000BC0184E00E94422A089546E050E0BC01ED
:1054E00084E00E94422A089540E250E0BC0184E03A
:1054F0000E94422A0895CF93DF93EC0148E050E0E8
:10550000BC0181E00E94422A88E0FE01ABEFB2E0DC
:1055100001900D928A95E1F7DF91CF910895603265
:1055200031F440E250E0BC0182E00E94422A08953A
:1055300080912903811109C00E94642E0E94C12E0E
:105540008091E20084608093E20008951092290324
:1055500008950E94372908956091260381E0611122
:1055600001C080E00E942E29089590912A0381E0D5
:10557000943009F080E0609126030E943429089558
:1055800042E061EC81E00E94E02D42E261EC84E0C7
:105590000E94E02D42E261EC82E00E94E02D42E2B6
:1055A00060EC83E00E94E02D90912A0381E094302A
:1055B00009F080E0609126030E94242908958091DB
:1055C0002C03833009F463C030F48130E1F1823080
:1055D00009F4A0C008958A3009F48CC08B3009F416
:1055E00071C0893009F052C080912B03813209F0DB
:1055F0004DC080912F0390913003009719F00297CE
:1056000009F044C08091E800877F8093E800809192
:10561000E80082FF37C09091F3008091F20002977A
:1056200031F48091F100813011F0863021F48091C5
:10563000F100809303038091E8008B778093E8006A
:105640000E94142E23C080912B03813AF9F480919B
:10565000E800877F8093E80080912F0390913003CA
:10566000892B61F468E08BEF92E070E00E94232DBB
:105670008091E8008B778093E800089560E090E0E7
:1056800080E0F3CF80912A038111C1CF08958091EA
:105690002B03813AD9F780912F0390913003892B06
:1056A000A9F78091E800877F8093E8008091E80067
:1056B00080FFFCCF809130018093F1008091E80061
:1056C0008E77BCCF80912B03813201F780912F031D
:1056D00090913003892BD1F68091E800877F8093E9
:1056E000E8000E94142E80912D03809330010E94C7
:1056F000B708089580912B03813241F68091E8002C
:10570000877F8093E8000E94142E80912E0380935F
:105710000403089580912B03813A09F0B7CF80915B
:10572000E800877F8093E8008091E80080FFFCCF4D
:1057300080910403C1CF84B7877F84BF0FB6F894EC
:10574000A89580916000886180936000109260004D
:105750000FBE80E890E00FB6F894809361009093BC
:1057600061000FBE0E943D2908950E94642E0E9490
:10577000C12EE2EEF0E080818460808378940E9404
:105780004031089586E291E00E947D27089580913E
:105790002A03853031F480912A03853019F00E9464
:1057A000B72908950E948C2980912803882399F3B2
:1057B0000E944A29882379F30E946F2C0E94B7081F
:1057C000EACFA0E2B0E0E7EEFBE20C94FF3180917B
:1057D0002A03843009F583E08093E9008091E80092
:1057E00082FF1AC08091E80090E085FF09C050E078
:1057F00040E060E270E0CE0101960E94D42C91E07E
:105800008091E8008B778093E800992329F060E28B
:10581000CE0101960E949726A096E2E00C941B32DE
:105820009A0140913103509132030E94182C08953F
:10583000492F55274330510521F168F44130510576
:1058400009F443C04230510509F444C090E080E0BF
:1058500050E040E026C04132510551F1423251053D
:10586000A9F76330710590F7FB01EE0FFF1FE951B7
:10587000FE4F408151816C517E4FFB01808190E051
:1058800010C099278130910581F0009729F0029787
:10589000E9F6E0E3F4E002C0E6E6F4E0849190E0AB
:1058A000AF01F901518340830895E6E4F4E0F6CFB7
:1058B0006330710558F6660F771FFB01E351FE4F09
:1058C0004081518189E090E0ECCF82E190E045ECAD
:1058D00054E0E7CF8BE590E04AE654E0E2CF80E188
:1058E00089BD82E189BD09B400FEFDCF8091D80059
:1058F0008F7D8093D8008091E00082608093E000EB
:105900008091E00081FDFCCF0895AF92BF92CF92CD
:10591000DF92FF920F931F93CF93DF936C01EB0104
:105920008A010E94332EF82E811123C00115110522
:1059300039F0F80180819181C81BD90BC80ED91E9E
:10594000B12CA12C2097A9F08091E80085FD22C000
:105950008091E8008E778093E80001151105A1F091
:10596000F80180819181A80EB91EB182A08285E0E4
:10597000F82E8F2DDF91CF911F910F91FF90DF9027
:10598000CF90BF90AF9008950E94332E8823D1F21C
:10599000F82EEFCFF60181916F018093F1002197EE
:1059A000FFEFAF1ABF0ACECFAF92BF92CF92DF9276
:1059B000FF920F931F93CF93DF936C01EB018A014A
:1059C0000E94332EF82E811123C00115110539F0E4
:1059D000F80180819181C81BD90BC80ED91EB12C4A
:1059E000A12C2097A9F08091E80085FD22C080912C
:1059F000E8008B778093E80001151105A1F0F8010C
:105A000080819181A80EB91EB182A08285E0F82E16
:105A10008F2DDF91CF911F910F91FF90DF90CF904D
:105A2000BF90AF9008950E94332E8823D1F2F82EB4
:105A3000EFCF8091F100F60181936F012197FFEF85
:105A4000AF1ABF0ACECFFC0180913103909132038F
:105A500086179707A0F06115710529F49091E80069
:105A60009E779093E80090E06115710551F49111D3
:105A700008C08091E80082FF34C080E00895BC0136
:105A8000F2CF80912A038823C1F18530C1F1809142
:105A9000E80083FD30C08091E80082FDEACF80916C
:105AA000E80080FFE1CF8091F3002091F200382FD1
:105AB0006115710519F02830310558F091E0283052
:105AC000310509F090E02091E8002E772093E8005E
:105AD000CBCF81918093F100615071092F5F3F4FCF
